:020000040000FA
:060800001CEF49F012009C
:020806001200DE
:0608080062EF1EF0120079
:060818005CEF20F012006D
:02081E000100D7
:0C08200077920000CE0100002A000000CA
:04082C000FC127F1E0
:1008300010C128F10101296B2A6B11C12BF112C1E2
:100840002CF12D6B2E6B13C12FF114C130F1316BD4
:10085000326B15C133F116C134F1356B366B17C1EC
:1008600037F118C138F1396B3A6B19C13BF11AC134
:100870003CF13D6B3E6B1BC13FF11CC140F1416B34
:10088000426B1DC143F11EC144F1456B466B120022
:100890000101010E776F786B796B7A6B27C17BF161
:1008A00028C17CF129C17DF12AC17EF17B0EE96E60
:1008B000010EEA6E030EEBCFF3FF2E51F318E8AEF4
:1008C00002D0F33408D0EE502B5DEE502C59EE5090
:1008D0002D59EE502E590DE3020E776F786B796B20
:1008E0007A6B2BC17BF12CC17CF12DC17DF12EC126
:1008F0007EF17B0EE96E010EEA6E030EEBCFF3FF85
:100900003251F318E8AE02D0F33408D0EE502F5D28
:10091000EE503059EE503159EE5032590DE3030E7E
:10092000776F786B796B7A6B2FC17BF130C17CF17B
:1009300031C17DF132C17EF17B0EE96E010EEA6EAE
:10094000030EEBCFF3FF3651F318E8AE02D0F334C9
:1009500008D0EE50335DEE503459EE503559EE501C
:1009600036590DE3040E776F786B796B7A6B33C170
:100970007BF134C17CF135C17DF136C17EF17B0E56
:10098000E96E010EEA6E030EEBCFF3FF3A51F31856
:10099000E8AE02D0F33408D0EE50375DEE5038594F
:1009A000EE503959EE503A590DE3050E776F786BDA
:1009B000796B7A6B37C17BF138C17CF139C17DF13C
:1009C0003AC17EF17B0EE96E010EEA6E030EEBCFAB
:1009D000F3FF3E51F318E8AE02D0F33408D0EE50E6
:1009E0003B5DEE503C59EE503D59EE503E590DE303
:1009F000060E776F786B796B7A6B3BC17BF13CC1EC
:100A00007CF13DC17DF13EC17EF17B0EE96E010EB0
:100A1000EA6E030EEBCFF3FF4251F318E8AE02D0BB
:100A2000F33408D0EE503F5DEE504059EE5041593E
:100A3000EE5042590DE3070E776F786B796B7A6B46
:100A40003FC17BF140C17CF141C17DF142C17EF1EA
:100A50007B0EE96E010EEA6E030EEBCFF3FF4651FB
:100A6000F318E8AE02D0F33408D0EE50435DEE50F8
:100A70004459EE504559EE5046590DE3080E776F34
:100A8000786B796B7A6B43C17BF144C17CF145C1D2
:100A90007DF146C17EF17E35000E7E1909E6D880D3
:100AA000640E7B55000E7C55000E7D55000E7E5564
:100AB00008E3776B786B796B7A6B7B6B7C6B7D6B08
:100AC0007E6B1200010E0101771917E1785115E1D3
:100AD000795113E17A5111E12BC16BF12CC16CF109
:100AE0002DC16DF12EC16EF143C153F144C154F1DA
:100AF00045C155F146C156F1BED0020E771917E136
:100B0000785115E1795113E17A5111E12FC16BF15F
:100B100030C16CF131C16DF132C16EF127C153F1B9
:100B200028C154F129C155F12AC156F1A4D0030EB0
:100B3000771917E1785115E1795113E17A5111E1F3
:100B400033C16BF134C16CF135C16DF136C16EF159
:100B50002BC153F12CC154F12DC155F12EC156F1C9
:100B60008AD0040E771917E1785115E1795113E114
:100B70007A5111E137C16BF138C16CF139C16DF1B6
:100B80003AC16EF12FC153F130C154F131C155F169
:100B900032C156F170D0050E771917E1785115E181
:100BA000795113E17A5111E13BC16BF13CC16CF118
:100BB0003DC16DF13EC16EF133C153F134C154F109
:100BC00035C155F136C156F156D0060E771917E1E9
:100BD000785115E1795113E17A5111E13FC16BF17F
:100BE00040C16CF141C16DF142C16EF137C153F1A9
:100BF00038C154F139C155F13AC156F13CD0070E14
:100C0000771917E1785115E1795113E17A5111E122
:100C100043C16BF144C16CF145C16DF146C16EF148
:100C20003BC153F13CC154F13DC155F13EC156F1B8
:100C300022D0080E771917E1785115E1795113E1A7
:100C40007A5111E127C16BF128C16CF129C16DF115
:100C50002AC16EF13FC153F140C154F141C155F178
:100C600042C156F108D06B6B6C6B6D6B6E6B536B46
:100C7000546B556B566B530EE96E010EEA6E6B5159
:100C8000EE24146E6C51EE20156E6D51EE20166E32
:100C90006E51EE20176ED890E850000A08E6520E0A
:100CA000145C030E1558000E1658000E175807E373
:100CB000010E676F686B696B6A6BE66E12D06B51E1
:100CC0006C116D116E1107E15351541155115611EC
:100CD00002E1676B02D0020E676F686B696B6A6B2B
:100CE000E66AE66A1EEC28F0E552E5521200D9CF1A
:100CF000E6FFE1CFD9FF160EE1260101BA0E836FA0
:100D0000846985698669CE0E876F886989698A6971
:100D1000E66A83EC34F0E552F3CF57F1F4CF58F1A3
:100D20000101596B5A6B636B646B656B666B5F6B30
:100D3000606B616B626B8B6B8C6B8D6B8E6B190E4A
:100D4000E66E010EE66E76EC32F0E552E552010EEB
:100D50000618F5E10750F3E10850F1E10950EFE121
:100D6000E66A76EC28F0E552E66A83EC34F0E55268
:100D7000F3CF5BF1F4CF5CF101015D6B5E6B570E5D
:100D8000E96E010EEA6EEE505B5D5F6FEE505C59EE
:100D9000606FEE505D59616FEE505E59626FD89092
:100DA0006251000A08E6B40E5F5D000E6059000E45
:100DB0006159000E625908E3680E5F5F010E605BC7
:100DC000000E615B625B15D06235FF0E621909E6A9
:100DD000D8804C0E5F55FF0E6055FF0E6155FF0E1B
:100DE000625507E3680E5F27010E6023000E612342
:100DF0006223D8906251000A08E65A0E5F5D000E29
:100E00006059000E6159000E625924E36235000EEC
:100E1000621909E6D880B40E5F55000E6055000EC9
:100E20006155000E625516E35FC106F060C107F020
:100E300061C108F062C109F02CEC45F007C014F064
:100E400008C015F009C016F00AC017F0330E0C6E7A
:100E50000D6E4ED0D8906251000A08E62D0E5F5DEF
:100E6000000E6059000E6159000E625910E36235A0
:100E7000000E621909E6D8805A0E5F55000E6055C3
:100E8000000E6155000E625502E3370E65D0D89012
:100E90006251000A08E6190E5F5D000E6059000EEF
:100EA0006159000E62593CE36235000E621909E691
:100EB000D8802D0E5F55000E6055000E6155000E56
:100EC00062552EE35FC106F060C107F061C108F012
:100ED00062C109F02CEC45F007C014F008C015F011
:100EE00009C016F00AC017F0330E0C6E0D6E930E8B
:100EF0000E6E3F0E0F6E14C007F015C008F016C03E
:100F000009F017C00AF045EC45F060EC46F006C069
:100F100063F107C064F108C065F109C066F120D033
:100F2000D8906251000A08E60A0E5F5D000E605913
:100F3000000E6159000E625913E36235000E62190A
:100F400009E6D880190E5F55000E6055000E6155F8
:100F5000000E625505E3170E636F646B656B666B7D
:100F6000D88001016251FF0A08E64C0E5F5DFF0E5A
:100F70006059FF0E6159FF0E625924E36235FF0E7E
:100F8000621909E6D880A60E5F55FF0E6055FF0E68
:100F90006155FF0E625516E35FC106F060C107F0B0
:100FA00061C108F062C109F02CEC45F007C014F0F3
:100FB00008C015F009C016F00AC017F0330E0C6E09
:100FC0000D6E4ED0D8806251FF0A08E6A60E5F5D16
:100FD000FF0E6059FF0E6159FF0E625910E3623532
:100FE000FF0E621909E6D880D30E5F55FF0E6055DB
:100FF000FF0E6155FF0E625502E3C90E65D0D88021
:101000006251FF0A08E6D30E5F5DFF0E6059FF0EC6
:101010006159FF0E62593CE36235FF0E621909E621
:10102000D880E70E5F55FF0E6055FF0E6155FF0E2D
:1010300062552EE35FC106F060C107F061C108F0A0
:1010400062C109F02CEC45F007C014F008C015F09F
:1010500009C016F00AC017F0330E0C6E0D6E930E19
:101060000E6E3F0E0F6E14C007F015C008F016C0CC
:1010700009F017C00AF045EC45F060EC46F006C0F8
:1010800063F107C064F108C065F109C066F120D0C2
:10109000D8806251FF0A08E6E70E5F5DFF0E6059D7
:1010A000FF0E6159FF0E625913E36235FF0E62199C
:1010B00009E6D880F60E5F55FF0E6055FF0E6155AC
:1010C000FF0E625505E3E90E636F64696569666941
:1010D000120EDBCF1CF0130EDBCF1DF01E6A1F6A51
:1010E0001DAE02D01E681F68010163511C5C186EA2
:1010F00064511D58196E65511E581A6E66511F585D
:101100001B6E18C006F019C007F01AC008F0096E6F
:101110002CEC45F007C014F008C015F009C016F01B
:101120000AC017F0660E0C6E0D6E260E0E6E3F0E88
:101130000F6E45EC45F031EC46F0140E08C0DBFFB5
:10114000150E09C0DBFF140EDBCF14F0150EDBCF3C
:1011500015F0166A176A15AE02D016681768630E86
:10116000E96E010EEA6E1450EE5C0101636F1550DA
:10117000EE58646F1650EE58656F1750EE58666F54
:10118000D8906251000A08E6110E5F5D000E6059AA
:10119000000E6159000E62590FE26235FF0E6219AE
:1011A00009E6D880EF0E5F55FF0E6055FF0E6155C2
:1011B000FF0E625501E27ED0800E661512E063C11B
:1011C00014F064C115F065C116F066C117F0000E89
:1011D000146C151E1522161E1622171E1722148EA9
:1011E00008D063C114F064C115F065C116F066C182
:1011F00017F014C0B8F0800E661511E063C114F04A
:1012000064C115F065C116F066C117F0000E146CCC
:10121000151E1522161E1622171E172209D063C18D
:1012200014F064C115F065C116F066C117F0148E94
:1012300014C0B9F0800E661512E063C114F064C1E9
:1012400015F065C116F066C117F0000E146C151E7E
:101250001522161E1622171E1722148E08D063C1DF
:1012600014F064C115F065C116F066C117F014C022
:10127000BAF0800E661511E063C114F064C115F078
:1012800065C116F066C117F0000E146C151E15220C
:10129000161E1622171E172209D063C114F064C14E
:1012A00015F065C116F066C117F0148E14C0BBF0BE
:1012B0000AEC2DF0120E63C1DBFF130E64C1DBFFDD
:1012C000050EE66E010EE66E76EC32F0E552E55262
:1012D000D8900950000A08E6320E065C000E075846
:1012E000000E0858000E095806E3010EF36E060EB4
:1012F000F3CFDBFF02D0060EDB6A070EDB6A110EAE
:10130000E66E010EE66E76EC32F0E552E552D890CC
:101310000950000A08E6320E065C000E0758000E5F
:101320000858000E095806E3010EF36E080EF3CFBD
:10133000DBFF02D0080EDB6A090EDB6A010EE66EE7
:10134000E66E76EC32F0E552E552D8900950000A8C
:1013500008E6320E065C000E0758000E0858000E14
:10136000095806E3010EF36E0A0EF3CFDBFF02D03D
:101370000A0EDB6A0B0EDB6AE66E010EE66E76EC99
:1013800032F0E552E552D8900950000A08E6320ED4
:10139000065C000E0758000E0858000E095806E3B8
:1013A000010EF36E0C0EF3CFDBFF02D00C0EDB6AE6
:1013B0000D0EDB6AD950060FE96EDACFEAFF010E97
:1013C000EE1823E1ED5021E1D950080FE96EDACF94
:1013D000EAFFEE50ED1019E1D9500A0FE96EDACFAD
:1013E000EAFFEE50ED1011E1D9500C0FE96EDACFA3
:1013F000EAFFEE50ED1009E1010EF36E0E0EF3CF91
:10140000DBFF0F0EDB6A010E48D2D950060FE96EE2
:10141000DACFEAFFEE50ED1023E1D950080FE96E64
:10142000DACFEAFF010EEE181BE1ED5019E1D950B9
:101430000A0FE96EDACFEAFFEE50ED1011E1D95054
:101440000C0FE96EDACFEAFFEE50ED1009E1020E63
:10145000F36E0E0EF3CFDBFF0F0EDB6A020E1DD212
:10146000D950060FE96EDACFEAFF010EEE1825E13A
:10147000ED5023E1D950080FE96EDACFEAFF010EF3
:10148000EE181BE1ED5019E1D9500A0FE96EDACFE1
:10149000EAFFEE50ED1011E1D9500C0FE96EDACFF2
:1014A000EAFFEE50ED1009E10C0EF36E0E0EF3CFD5
:1014B000DBFF0F0EDB6A0C0EF0D1D950060FE96E80
:1014C000DACFEAFFEE50ED1023E1D950080FE96EB4
:1014D000DACFEAFFEE50ED101BE1D9500A0FE96EAA
:1014E000DACFEAFF010EEE1813E1ED5011E1D95009
:1014F0000C0FE96EDACFEAFFEE50ED1009E1030EB2
:10150000F36E0E0EF3CFDBFF0F0EDB6A030EC5D1B9
:10151000D950060FE96EDACFEAFF010EEE1825E189
:10152000ED5023E1D950080FE96EDACFEAFFEE5013
:10153000ED101BE1D9500A0FE96EDACFEAFF010E78
:10154000EE1813E1ED5011E1D9500C0FE96EDACF2E
:10155000EAFFEE50ED1009E10D0EF36E0E0EF3CF23
:10156000DBFF0F0EDB6A0D0E98D1D950060FE96E26
:10157000DACFEAFFEE50ED1025E1D950080FE96E01
:10158000DACFEAFF010EEE181DE1ED501BE1D95054
:101590000A0FE96EDACFEAFF010EEE1813E1ED5003
:1015A00011E1D9500C0FE96EDACFEAFFEE50ED10E1
:1015B00009E1170EF36E0E0EF3CFDBFF0F0EDB6AA1
:1015C000170E6BD1D950060FE96EDACFEAFF010E84
:1015D000EE1827E1ED5025E1D950080FE96EDACF7A
:1015E000EAFF010EEE181DE1ED501BE1D9500A0F84
:1015F000E96EDACFEAFF010EEE1813E1ED5011E1CA
:10160000D9500C0FE96EDACFEAFFEE50ED1009E188
:101610007B0EF36E0E0EF3CFDBFF0F0EDB6A7B0E3D
:101620003CD1D950060FE96EDACFEAFFEE50ED104B
:1016300023E1D950080FE96EDACFEAFFEE50ED1042
:101640001BE1D9500A0FE96EDACFEAFFEE50ED1038
:1016500013E1D9500C0FE96EDACFEAFF010EEE1854
:101660000BE1ED5009E1040EF36E0E0EF3CFDBFF3C
:101670000F0EDB6A040E11D1D950060FE96EDACFD6
:10168000EAFF010EEE1823E1ED5021E1D950080FD9
:10169000E96EDACFEAFFEE50ED1019E1D9500A0FEA
:1016A000E96EDACFEAFFEE50ED1011E1D9500C0FE0
:1016B000E96EDACFEAFF010EEE1809E1ED5007E11D
:1016C0000E0EF36EDB6E0F0EDB6A0E0EE6D0D950F7
:1016D000060FE96EDACFEAFFEE50ED1025E1D950A2
:1016E000080FE96EDACFEAFF010EEE181DE1ED50AA
:1016F0001BE1D9500A0FE96EDACFEAFFEE50ED1088
:1017000013E1D9500C0FE96EDACFEAFF010EEE18A3
:101710000BE1ED5009E1180EF36E0E0EF3CFDBFF77
:101720000F0EDB6A180EB9D0D950060FE96EDACF6A
:10173000EAFF010EEE1827E1ED5025E1D950080F20
:10174000E96EDACFEAFF010EEE181DE1ED501BE164
:10175000D9500A0FE96EDACFEAFFEE50ED1013E12F
:10176000D9500C0FE96EDACFEAFF010EEE180BE14B
:10177000ED5009E17C0EF36E0E0EF3CFDBFF0F0E82
:10178000DB6A7C0E8AD0D950060FE96EDACFEAFF09
:10179000EE50ED1025E1D950080FE96EDACFEAFFDF
:1017A000EE50ED101DE1D9500A0FE96EDACFEAFFD5
:1017B000010EEE1815E1ED5013E1D9500C0FE96E52
:1017C000DACFEAFF010EEE180BE1ED5009E1220E2F
:1017D000F36E0E0EF3CFDBFF0F0EDB6A220E5DD031
:1017E000D950060FE96EDACFEAFF010EEE1827E1B5
:1017F000ED5025E1D950080FE96EDACFEAFFEE503F
:10180000ED101DE1D9500A0FE96EDACFEAFF010EA3
:10181000EE1815E1ED5013E1D9500C0FE96EDACF57
:10182000EAFF010EEE180BE1ED5009E1860EF36EB2
:101830000E0EF3CFDBFF0F0EDB6A860E2ED0D950D3
:10184000060FE96EDACFEAFFEE50ED102CE1D95029
:10185000080FE96EDACFEAFF010EEE1824E1ED5031
:1018600022E1D9500A0FE96EDACFEAFF010EEE1835
:101870001AE1ED5018E1D9500C0FE96EDACFEAFF0A
:10188000010EEE1810E1ED500EE1EA0EF36E0E0EB1
:10189000F3CFDBFF0F0EDB6AEA0EF36E100EF3CF11
:1018A000DBFF110E40D0D950060FE96EDACFEAFF08
:1018B000010EEE1835E1ED5033E1D950080FE96E15
:1018C000DACFEAFF010EEE182BE1ED5029E1D950F5
:1018D0000A0FE96EDACFEAFF010EEE1821E1ED50B2
:1018E0001FE1D9500C0FE96EDACFEAFF010EEE18B6
:1018F00017E1ED5015E1D20EF36E0E0EF3CFDBFFC4
:10190000040EF36E0F0EF3CFDBFFD20EF36E100E4C
:10191000F3CFDBFF040EF36E110EF3CFDBFF04D029
:101920000E0EDB6A0F0EDB6AD9500E0FE96EDACFAE
:10193000EAFF180EEE180EE1ED500CE1010EE66E16
:1019400076EC28F0E5520001B86BB96BBA6BBB6B53
:101950005DEF15F0D9500E0FE96EDACFEAFF7C0E7D
:10196000EE1801E07BD0ED5001E078D0D950040FA3
:10197000E96EDACFEAFF010EEE1802E0F7EF15F09C
:10198000ED5002E0F7EF15F0010EE66E76EC28F070
:10199000E5520101800E8A1512E087C114F088C15A
:1019A00015F089C116F08AC117F0000E146C151ECF
:1019B0001522161E1622171E1722148E08D087C154
:1019C00014F088C115F089C116F08AC117F014C04F
:1019D000B8F0800E8A1512E087C114F088C115F0A6
:1019E00089C116F08AC117F0000E146C151E15225D
:1019F000161E1622171E1722148E08D087C114F047
:101A000088C115F089C116F08AC117F014C0B9F069
:101A1000800E8A1512E087C114F088C115F089C1C3
:101A200016F08AC117F0000E146C151E1522161E32
:101A30001622171E1722148E08D087C114F088C1F1
:101A400015F089C116F08AC117F014C0BAF0800EE3
:101A50008A1502E19AEF12F091EF12F0D9500E0FB1
:101A6000E96EDACFEAFFEA0EEE1801E079D0ED5028
:101A700001E076D0D950040FE96EDACFEAFF010E0B
:101A8000EE1802E0F7EF15F0ED5002E0F7EF15F079
:101A9000010EE66E76EC28F0E5520101800E8A1503
:101AA00011E087C114F088C115F089C116F08AC110
:101AB00017F0000E146C151E1522161E1622171E86
:101AC000172209D087C114F088C115F089C116F01A
:101AD0008AC117F0148E14C0B8F0800E8A1511E078
:101AE00087C114F088C115F089C116F08AC117F0BA
:101AF000000E146C151E1522161E1622171E172214
:101B000009D087C114F088C115F089C116F08AC1C7
:101B100017F0148E14C0B9F0800E8A1511E087C139
:101B200014F088C115F089C116F08AC117F0000EB3
:101B3000146C151E1522161E1622171E172209D008
:101B400087C114F088C115F089C116F08AC117F059
:101B5000148E14C0BAF0800E8A1501E0B0D3B8D349
:101B6000D9500E0FE96EDACFEAFF170EEE1801E03A
:101B700079D0ED5001E076D0D950040FE96EDACF7C
:101B8000EAFF010EEE1802E0F7EF15F0ED5002E06B
:101B9000F7EF15F0010EE66E76EC28F0E552010144
:101BA000800E8A1511E087C114F088C115F089C133
:101BB00016F08AC117F0000E146C151E1522161EA1
:101BC0001622171E172209D087C114F088C115F0FC
:101BD00089C116F08AC117F0148E14C0B8F0800EB7
:101BE0008A1512E087C114F088C115F089C116F07A
:101BF0008AC117F0000E146C151E1522161E16222F
:101C0000171E1722148E08D087C114F088C115F052
:101C100089C116F08AC117F014C0B9F0800E8A1578
:101C200012E087C114F088C115F089C116F08AC18D
:101C300017F0000E146C151E1522161E1622171E04
:101C40001722148E08D087C114F088C115F089C1FD
:101C500016F08AC117F014C0BAF0800E8A1501E0A0
:101C60002ED336D3D9500E0FE96EDACFEAFF220E0B
:101C7000EE1801E079D0ED5001E076D0D950040F94
:101C8000E96EDACFEAFF010EEE1802E0F7EF15F089
:101C9000ED5002E0F7EF15F0010EE66E76EC28F05D
:101CA000E5520101800E8A1512E087C114F088C147
:101CB00015F089C116F08AC117F0000E146C151EBC
:101CC0001522161E1622171E1722148E08D087C141
:101CD00014F088C115F089C116F08AC117F014C03C
:101CE000B8F0800E8A1511E087C114F088C115F094
:101CF00089C116F08AC117F0000E146C151E15224A
:101D0000161E1622171E172209D087C114F088C18B
:101D100015F089C116F08AC117F0148E14C0B9F0FD
:101D2000800E8A1511E087C114F088C115F089C1B1
:101D300016F08AC117F0000E146C151E1522161E1F
:101D40001622171E172209D087C114F088C115F07A
:101D500089C116F08AC117F0148E14C0BAF0800E33
:101D60008A1501E1E7D3DDD3D9500E0FE96EDACF42
:101D7000EAFF010EEE1801E00DD1ED5001E00AD1AD
:101D8000010EE66E8FEC28F0E552DC0E065C050EC7
:101D90000758000E0858000E09580BE3010E010108
:101DA000771901E077D0785175E1795173E17A5173
:101DB00071E1D950040FE96EDACFEAFF010EEE1897
:101DC00002E0F7EF15F0ED5002E0F7EF15F001013A
:101DD000800E8A1512E087C114F088C115F089C100
:101DE00016F08AC117F0000E146C151E1522161E6F
:101DF0001622171E1722148E08D087C114F088C12E
:101E000015F089C116F08AC117F014C0B8F0800E21
:101E10008A1512E087C114F088C115F089C116F047
:101E20008AC117F0000E146C151E1522161E1622FC
:101E3000171E1722148E08D087C114F088C115F020
:101E400089C116F08AC117F014C0B9F0800E8A1546
:101E500012E087C114F088C115F089C116F08AC15B
:101E600017F0000E146C151E1522161E1622171ED2
:101E70001722148E08D087C114F088C115F089C1CB
:101E800016F08AC117F014C0BAF0800E8A1501E16D
:101E900051D347D30001B86BB96BBA6BBB6B0AEC7B
:101EA0002DF00A0EE66EE66A30EC24F0E552E552BB
:101EB0000001800EB86FB96FBA6FBB6F0AEC2DF0DE
:101EC000140EE66EE66A30EC24F0E552E5520101AC
:101ED000800E861511E083C114F084C115F085C110
:101EE00016F086C117F0000E146C151E1522161E72
:101EF0001622171E172209D083C114F084C115F0D1
:101F000085C116F086C117F0148E14C0B8F0800E8B
:101F1000861511E083C114F084C115F085C116F057
:101F200086C117F0000E146C151E1522161E1622FF
:101F3000171E172209D083C114F084C115F085C182
:101F400016F086C117F0148E14C0B9F0800E8615F5
:101F500011E083C114F084C115F085C116F086C16B
:101F600017F0000E146C151E1522161E1622171ED1
:101F7000172209D083C114F084C115F085C116F071
:101F800086C117F0148E14C0BAF0800E861501E0D9
:101F900058D368D3D9500E0FE96EDACFEAFF020E9C
:101FA000EE1801E002D1ED5001E0FFD0010EE66E27
:101FB0008FEC28F0E552DC0E065C050E0758000E8B
:101FC0000858000E095871E2D950040FE96EDACFB3
:101FD000EAFF010EEE1802E0F7EF15F0ED5002E017
:101FE000F7EF15F00101800E8A1511E087C114F09A
:101FF00088C115F089C116F08AC117F0000E146C63
:10200000151E1522161E1622171E172209D087C16B
:1020100014F088C115F089C116F08AC117F0148E2A
:1020200014C0B8F0800E8A1512E087C114F088C180
:1020300015F089C116F08AC117F0000E146C151E38
:102040001522161E1622171E1722148E08D087C1BD
:1020500014F088C115F089C116F08AC117F014C0B8
:10206000B9F0800E8A1512E087C114F088C115F00E
:1020700089C116F08AC117F0000E146C151E1522C6
:10208000161E1622171E1722148E08D087C114F0B0
:1020900088C115F089C116F08AC117F014C0BAF0D2
:1020A000800E8A1501E00BD113D10001B86BB96B1A
:1020B000BA6BBB6B0AEC2DF00A0EE66EE66A30ECEA
:1020C00024F0E552E5520001800EB86FB96FBA6F87
:1020D000BB6F0AEC2DF0140EE66EE66A30EC24F0CD
:1020E000E552E5520101800E861512E083C114F01D
:1020F00084C115F085C116F086C117F0000E146C6E
:10210000151E1522161E1622171E1722148E08D011
:1021100083C114F084C115F085C116F086C117F093
:1021200014C0B8F0800E861511E083C114F084C18C
:1021300015F085C116F086C117F0000E146C151E3F
:102140001522161E1622171E172209D083C114F05D
:1021500084C115F085C116F086C117F0148E14C025
:10216000B9F0800E861511E083C114F084C115F01A
:1021700085C116F086C117F0000E146C151E1522CD
:10218000161E1622171E172209D083C114F084C10F
:1021900015F085C116F086C117F0148E14C0BAF080
:1021A000800E861501E12CD11AD1D9500E0FE96E9F
:1021B000DACFEAFF030EEE1801E02BD1ED5001E07B
:1021C00028D1010EE66E8FEC28F0E552DC0E065C9D
:1021D000050E0758000E0858000E095801E381D07B
:1021E000D950040FE96EDACFEAFF010EEE1802E0D3
:1021F000F7EF15F0ED5002E0F7EF15F00101800E5A
:102200008A1511E087C114F088C115F089C116F054
:102210008AC117F0000E146C151E1522161E162208
:10222000171E172209D087C114F088C115F089C183
:1022300016F08AC117F0148E14C0B8F0800E8A15FB
:1022400011E087C114F088C115F089C116F08AC168
:1022500017F0000E146C151E1522161E1622171EDE
:10226000172209D087C114F088C115F089C116F072
:102270008AC117F0148E14C0B9F0800E8A1511E0CF
:1022800087C114F088C115F089C116F08AC117F012
:10229000000E146C151E1522161E1622171E17226C
:1022A00009D087C114F088C115F089C116F08AC120
:1022B00017F0148E14C0BAF0800E8A1509E087C199
:1022C00014F088C115F089C116F08AC117F05AD3ED
:1022D00087C114F088C115F089C116F08AC117F0C2
:1022E000E0D30001B86BB96BBA6BBB6B0AEC2DF095
:1022F0000A0EE66EE66A30EC24F0E552E552000183
:10230000800EB86FB96FBA6FBB6F0AEC2DF0140E68
:10231000E66EE66A30EC24F0E552E5520101800EEB
:10232000861512E083C114F084C115F085C116F042
:1023300086C117F0000E146C151E1522161E1622EB
:10234000171E1722148E08D083C114F084C115F013
:1023500085C116F086C117F014C0B8F0800E86153E
:1023600012E083C114F084C115F085C116F086C156
:1023700017F0000E146C151E1522161E1622171EBD
:102380001722148E08D083C114F084C115F085C1C2
:1023900016F086C117F014C0B9F0800E861512E051
:1023A00083C114F084C115F085C116F086C117F001
:1023B000000E146C151E1522161E1622171E17224B
:1023C000148E08D083C114F084C115F085C116F0B5
:1023D00086C117F014C0BAF0800E861511E083C1D3
:1023E00014F084C115F085C116F086C117F0000EF7
:1023F000146C151E1522161E1622171E17223AD10E
:1024000083C114F084C115F085C116F086C117F0A0
:1024100032D1D9500E0FE96EDACFEAFF040EEE1872
:1024200001E043D1ED5001E040D1010EE66E8FECAA
:1024300028F0E552DC0E065C050E0758000E085821
:10244000000E095801E37FD0D950040FE96EDACFAE
:10245000EAFF010EEE1801E0CAD3ED5001E0C7D348
:102460000101800E8A1512E087C114F088C115F0B1
:1024700089C116F08AC117F0000E146C151E1522C2
:10248000161E1622171E1722148E08D087C114F0AC
:1024900088C115F089C116F08AC117F014C0B8F0D0
:1024A000800E8A1511E087C114F088C115F089C12A
:1024B00016F08AC117F0000E146C151E1522161E98
:1024C0001622171E172209D087C114F088C115F0F3
:1024D00089C116F08AC117F0148E14C0B9F0800EAD
:1024E0008A1511E087C114F088C115F089C116F072
:1024F0008AC117F0000E146C151E1522161E162226
:10250000171E172209D087C114F088C115F089C1A0
:1025100016F08AC117F0148E14C0BAF0800E8A1516
:1025200009E087C114F088C115F089C116F08AC18D
:1025300017F0AFD287C114F088C115F089C116F029
:102540008AC117F0B8D20001B86BB96BBA6BBB6B1C
:102550000AEC2DF00A0EE66EE66A30EC24F0E55245
:10256000E5520001800EB86FB96FBA6FBB6F0AEC0D
:102570002DF0140EE66EE66A30EC24F0E552E552DA
:102580000101800E861511E083C114F084C115F09D
:1025900085C116F086C117F0000E146C151E1522A9
:1025A000161E1622171E172209D083C114F084C1EB
:1025B00015F085C116F086C117F0148E14C0B8F05E
:1025C000800E861512E083C114F084C115F085C118
:1025D00016F086C117F0000E146C151E1522161E7B
:1025E0001622171E1722148E08D083C114F084C13E
:1025F00015F085C116F086C117F014C0B9F0800E31
:10260000861512E083C114F084C115F085C116F05F
:1026100086C117F0000E146C151E1522161E162208
:10262000171E1722148E08D083C114F084C115F030
:1026300085C116F086C117F014C0BAF0800E861559
:1026400011E083C114F084C115F085C116F086C174
:1026500017F0000E146C151E1522161E1622171EDA
:10266000172209D083C114F084C115F085C116F07A
:1026700086C117F0148E14C0BBF00AEC2DF0960E34
:10268000E66EE66A30EC24F0E552E5520001B86BE4
:10269000B96BBA6BBB6B0AEC2DF00A0EE66EE66AFC
:1026A00030EC24F0E552E552A2D2D9500E0FE96E7B
:1026B000DACFEAFFEE50ED1001E099D2010EF36E91
:1026C000020EF3CFDBFF030EDB6A010EE66E8FEC2A
:1026D00028F0E552DC0E065C050E0758000E08587F
:1026E000000E095801E3ECD1D950100FE96EDACF92
:1026F000EAFF010EEE1865E1ED5063E10101800E85
:10270000861512E083C114F084C115F085C116F05E
:1027100086C117F0000E146C151E1522161E162207
:10272000171E1722148E08D083C114F084C115F02F
:1027300085C116F086C117F014C0B8F0800E86155A
:1027400012E083C114F084C115F085C116F086C172
:1027500017F0000E146C151E1522161E1622171ED9
:102760001722148E08D083C114F084C115F085C1DE
:1027700016F086C117F014C0B9F0800E861512E06D
:1027800083C114F084C115F085C116F086C117F01D
:10279000000E146C151E1522161E1622171E172267
:1027A000148E08D083C114F084C115F085C116F0D1
:1027B00086C117F014C0BAF0800E861501E173D1FE
:1027C00060D1D950100FE96EDACFEAFF020EEE1891
:1027D00064E1ED5062E10101800E861511E083C1D4
:1027E00014F084C115F085C116F086C117F0000EF3
:1027F000146C151E1522161E1622171E172209D03C
:1028000083C114F084C115F085C116F086C117F09C
:10281000148E14C0B8F0800E861512E083C114F037
:1028200084C115F085C116F086C117F0000E146C36
:10283000151E1522161E1622171E1722148E08D0DA
:1028400083C114F084C115F085C116F086C117F05C
:1028500014C0B9F0800E861512E083C114F084C153
:1028600015F085C116F086C117F0000E146C151E08
:102870001522161E1622171E1722148E08D083C189
:1028800014F084C115F085C116F086C117F014C08C
:10289000BAF0800E86156EE17ED0D950100FE96E29
:1028A000DACFEAFF030EEE1801E07ED0ED5001E032
:1028B0007BD00101800E861511E083C114F084C124
:1028C00015F085C116F086C117F0000E146C151EA8
:1028D0001522161E1622171E172209D083C114F0C6
:1028E00084C115F085C116F086C117F0148E14C08E
:1028F000B8F0800E861511E083C114F084C115F084
:1029000085C116F086C117F0000E146C151E152235
:10291000161E1622171E172209D083C114F084C177
:1029200015F085C116F086C117F0148E14C0B9F0E9
:10293000800E861511E083C114F084C115F085C1A5
:1029400016F086C117F0000E146C151E1522161E07
:102950001622171E172209D083C114F084C115F066
:1029600085C116F086C117F0148E14C0BAF0800E1F
:10297000861511E083C114F084C115F085C116F0ED
:1029800086C117F0000E146C151E1522161E162295
:10299000171E172290D083C114F084C115F085C191
:1029A00016F086C117F07DD0D950100FE96EDACF3E
:1029B000EAFF040EEE1801E01AD1ED5001E017D144
:1029C0000101800E861512E083C114F084C115F058
:1029D00085C116F086C117F0000E146C151E152265
:1029E000161E1622171E1722148E08D083C114F04B
:1029F00084C115F085C116F086C117F014C0B8F077
:102A0000800E861511E083C114F084C115F085C1D4
:102A100016F086C117F0000E146C151E1522161E36
:102A20001622171E172209D083C114F084C115F095
:102A300085C116F086C117F0148E14C0B9F0800E4F
:102A4000861511E083C114F084C115F085C116F01C
:102A500086C117F0000E146C151E1522161E1622C4
:102A6000171E172209D083C114F084C115F085C147
:102A700016F086C117F0148E14C0BAF0800E8615B9
:102A800012E083C114F084C115F085C116F086C12F
:102A900017F0000E146C151E1522161E1622171E96
:102AA0001722148E08D083C114F084C115F085C19B
:102AB00016F086C117F014C0BBF00AEC2DF097D0C9
:102AC000D9500E0FE96EDACFEAFF180EEE1801E1C9
:102AD000ED5001E1CCD0D9500E0FE96EDACFEAFF0C
:102AE0007C0EEE1801E1ED5001E1C1D0D9500E0F7E
:102AF000E96EDACFEAFFEA0EEE1803E1ED5001E1EC
:102B0000B6D0050E0101771907E1785105E1795139
:102B100003E17A5101E1BAD0010EF36E020EF3CF58
:102B2000DBFF030EDB6A800E861511E083C114F013
:102B300084C115F085C116F086C117F0000E146C23
:102B4000151E1522161E1622171E172209D083C124
:102B500014F084C115F085C116F086C117F0148EEB
:102B600014C0B8F0800E861511E083C114F084C142
:102B700015F085C116F086C117F0000E146C151EF5
:102B80001522161E1622171E172209D083C114F013
:102B900084C115F085C116F086C117F0148E14C0DB
:102BA000B9F0800E861511E083C114F084C115F0D0
:102BB00085C116F086C117F0000E146C151E152283
:102BC000161E1622171E172209D083C114F084C1C5
:102BD00015F085C116F086C117F0148E14C0BAF036
:102BE000800E861502E0C2EF1CF0D3EF1CF016EC4D
:102BF00004F048EC04F062EC05F0D950020FE96EE5
:102C0000DACFEAFF010EEE1801E0B1D0ED5001E09D
:102C1000AED0020E0101671905E1685103E1695167
:102C200001E16A5106E06751681169116A1101E01A
:102C30009ED0D9500E0FE96EDACFEAFF180EEE18CB
:102C400001E1ED5014E0D9500E0FE96EDACFEAFF42
:102C50007C0EEE1801E1ED500AE0D9500E0FE96E3E
:102C6000DACFEAFFEA0EEE1808E1ED5006E1020EB7
:102C7000DB6A030EDB6AB0EF06F0050E77190CE194
:102C800078510AE1795108E17A5106E1010EF36EBB
:102C9000020EF3CFDBFF2BD2010EF36E020EF3CF49
:102CA000DBFF030EDB6A800E861511E083C114F092
:102CB00084C115F085C116F086C117F0000E146CA2
:102CC000151E1522161E1622171E172209D083C1A3
:102CD00014F084C115F085C116F086C117F0148E6A
:102CE00014C0B8F0800E861511E083C114F084C1C1
:102CF00015F085C116F086C117F0000E146C151E74
:102D00001522161E1622171E172209D083C114F091
:102D100084C115F085C116F086C117F0148E14C059
:102D2000B9F0800E861511E083C114F084C115F04E
:102D300085C116F086C117F0000E146C151E152201
:102D4000161E1622171E172209D083C114F084C143
:102D500015F085C116F086C117F0148E14C0BAF0B4
:102D6000800E861502E1D3EF1CF0C2EF1CF0010EBD
:102D70000101671902E05DEF1BF0685102E05DEFB1
:102D80001BF0695102E05DEF1BF06A5102E05DEF5C
:102D90001BF0010E771901E0ADD1785101E0AAD105
:102DA000795101E0A7D17A5101E0A4D1010EF36E6F
:102DB000040EF3CFDBFF050EDB6AE66A8FEC28F02A
:102DC000E552D880B80E06540B0E0754000E085476
:102DD000000E095401E389D1010EF36E020EF3CF08
:102DE000DBFF030EDB6A010EE66EE66E1EEC28F0DA
:102DF000E552E552010EE66EE66A1EEC28F0E55259
:102E0000E552DE6ADD6ADECF14F0DDCF15F0D89032
:102E1000155004E6320E145C000E155801E354D12F
:102E2000050EE66E010EE66E76EC32F0E552E552E6
:102E3000D8900950000A08E6320E065C000E0758CA
:102E4000000E0858000E095801E2B2D00001B86B1C
:102E5000B96BBA6BBB6B0AEC2DF00A0EE66EE66A34
:102E600030EC24F0E552E5520001800EB86FB96FE6
:102E7000BA6FBB6F0AEC2DF0140EE66EE66A30EC0A
:102E800024F0E552E5520101800E861511E083C160
:102E900014F084C115F085C116F086C117F0000E3C
:102EA000146C151E1522161E1622171E172209D085
:102EB00083C114F084C115F085C116F086C117F0E6
:102EC000148E14C0B8F0800E861511E083C114F082
:102ED00084C115F085C116F086C117F0000E146C80
:102EE000151E1522161E1622171E172209D083C181
:102EF00014F084C115F085C116F086C117F0148E48
:102F000014C0B9F0800E861511E083C114F084C19D
:102F100015F085C116F086C117F0000E146C151E51
:102F20001522161E1622171E172209D083C114F06F
:102F300084C115F085C116F086C117F0148E14C037
:102F4000BAF0800E861511E083C114F084C115F02B
:102F500085C116F086C117F0000E146C151E1522DF
:102F6000161E1622171E172209D083C114F084C121
:102F700015F085C116F086C117F0148E14C0BBF091
:102F80000AEC2DF0960EE66EE66A30EC24F0E5527F
:102F9000E5520001B86BB96BBA6BBB6B0AEC2DF054
:102FA0000A0EE66EE66A30EC24F0E552E5528CD06B
:102FB0000101800E861512E083C114F084C115F062
:102FC00085C116F086C117F0000E146C151E15226F
:102FD000161E1622171E1722148E08D083C114F055
:102FE00084C115F085C116F086C117F014C0B8F081
:102FF000800E861512E083C114F084C115F085C1DE
:1030000016F086C117F0000E146C151E1522161E40
:103010001622171E1722148E08D083C114F084C103
:1030200015F085C116F086C117F014C0B9F0800EF6
:10303000861512E083C114F084C115F085C116F025
:1030400086C117F0000E146C151E1522161E1622CE
:10305000171E1722148E08D083C114F084C115F0F6
:1030600085C116F086C117F014C0BAF0800E86151F
:1030700012E083C114F084C115F085C116F086C139
:1030800017F0000E146C151E1522161E1622171EA0
:103090001722148E08D083C114F084C115F085C1A5
:1030A00016F086C117F014C0BBF00AEC2DF00A0E22
:1030B000E66EE66A30EC24F0E552E552DF2A010EB6
:1030C00001E2A1D6DB2A9FD6010E0101671902E0B9
:1030D000B4EF06F0685102E0B4EF06F0695102E087
:1030E000B4EF06F06A51B4EF06F0020EDB6A030E8D
:1030F00058EF1EF0020E771975E1785173E179519E
:1031000071E17A516FE1E66A76EC28F0E552020E41
:10311000DB6A030EDB6A040EDB6A050EDB6A010163
:10312000800E861511E083C114F084C115F085C1AD
:1031300016F086C117F0000E146C151E1522161E0F
:103140001622171E172209D083C114F084C115F06E
:1031500085C116F086C117F0148E14C0B8F0800E29
:10316000861512E083C114F084C115F085C116F0F4
:1031700086C117F0000E146C151E1522161E16229D
:10318000171E1722148E08D083C114F084C115F0C5
:1031900085C116F086C117F014C0B9F0800E8615EF
:1031A00012E083C114F084C115F085C116F086C108
:1031B00017F0000E146C151E1522161E1622171E6F
:1031C0001722148E08D083C114F084C115F085C174
:1031D00016F086C117F014C0BAF0800E861501E112
:1031E000E2D3D0D3030E771975E1785173E17951A9
:1031F00071E17A516FE1E66A76EC28F0E552020E51
:10320000DB6A030EDB6A040EDB6A050EDB6A010172
:10321000800E861511E083C114F084C115F085C1BC
:1032200016F086C117F0000E146C151E1522161E1E
:103230001622171E172209D083C114F084C115F07D
:1032400085C116F086C117F0148E14C0B8F0800E38
:10325000861512E083C114F084C115F085C116F003
:1032600086C117F0000E146C151E1522161E1622AC
:10327000171E1722148E08D083C114F084C115F0D4
:1032800085C116F086C117F014C0B9F0800E8615FE
:1032900012E083C114F084C115F085C116F086C117
:1032A00017F0000E146C151E1522161E1622171E7E
:1032B0001722148E08D083C114F084C115F085C183
:1032C00016F086C117F014C0BAF0800E861501E121
:1032D0006AD358D3040E771975E1785173E17951A7
:1032E00071E17A516FE1E66A76EC28F0E552020E60
:1032F000DB6A030EDB6A040EDB6A050EDB6A010182
:10330000800E861511E083C114F084C115F085C1CB
:1033100016F086C117F0000E146C151E1522161E2D
:103320001622171E172209D083C114F084C115F08C
:1033300085C116F086C117F0148E14C0B8F0800E47
:10334000861512E083C114F084C115F085C116F012
:1033500086C117F0000E146C151E1522161E1622BB
:10336000171E1722148E08D083C114F084C115F0E3
:1033700085C116F086C117F014C0B9F0800E86150D
:1033800012E083C114F084C115F085C116F086C126
:1033900017F0000E146C151E1522161E1622171E8D
:1033A0001722148E08D083C114F084C115F085C192
:1033B00016F086C117F014C0BAF0800E861501E031
:1033C000E1D2F1D2050E77190BE1785109E179517B
:1033D00007E17A5105E1E66A76EC28F0E55268D11A
:1033E000060E771975E1785173E1795171E17A51DF
:1033F0006FE1E66A76EC28F0E552020EDB6A030E16
:10340000DB6A040EDB6A050EDB6A0101800E86159D
:1034100012E083C114F084C115F085C116F086C195
:1034200017F0000E146C151E1522161E1622171EFC
:103430001722148E08D083C114F084C115F085C101
:1034400016F086C117F014C0B8F0800E861511E092
:1034500083C114F084C115F085C116F086C117F040
:10346000000E146C151E1522161E1622171E17228A
:1034700009D083C114F084C115F085C116F086C14E
:1034800017F0148E14C0B9F0800E861511E083C1B8
:1034900014F084C115F085C116F086C117F0000E36
:1034A000146C151E1522161E1622171E172209D07F
:1034B00083C114F084C115F085C116F086C117F0E0
:1034C000148E14C0BAF0800E861501E1E0D3CDD37E
:1034D000070E771975E1785173E1795171E17A51ED
:1034E0006FE1E66A76EC28F0E552020EDB6A030E25
:1034F000DB6A040EDB6A050EDB6A0101800E8615AD
:1035000012E083C114F084C115F085C116F086C1A4
:1035100017F0000E146C151E1522161E1622171E0B
:103520001722148E08D083C114F084C115F085C110
:1035300016F086C117F014C0B8F0800E861511E0A1
:1035400083C114F084C115F085C116F086C117F04F
:10355000000E146C151E1522161E1622171E172299
:1035600009D083C114F084C115F085C116F086C15D
:1035700017F0148E14C0B9F0800E861511E083C1C7
:1035800014F084C115F085C116F086C117F0000E45
:10359000146C151E1522161E1622171E172209D08E
:1035A00083C114F084C115F085C116F086C117F0EF
:1035B000148E14C0BAF0800E861501E168D355D37D
:1035C000080E771975E1785173E1795171E17A51FB
:1035D0006FE1E66A76EC28F0E552020EDB6A030E34
:1035E000DB6A040EDB6A050EDB6A0101800E8615BC
:1035F00012E083C114F084C115F085C116F086C1B4
:1036000017F0000E146C151E1522161E1622171E1A
:103610001722148E08D083C114F084C115F085C11F
:1036200016F086C117F014C0B8F0800E861511E0B0
:1036300083C114F084C115F085C116F086C117F05E
:10364000000E146C151E1522161E1622171E1722A8
:1036500009D083C114F084C115F085C116F086C16C
:1036600017F0148E14C0B9F0800E861511E083C1D6
:1036700014F084C115F085C116F086C117F0000E54
:10368000146C151E1522161E1622171E172209D09D
:1036900083C114F084C115F085C116F086C117F0FE
:1036A000148E14C0BAF0800E861501E1F0D2DDD27E
:1036B000020EDB6A030EDB6AF5D2020E671901E027
:1036C000F1D2685101E0EED2695101E0EBD26A51CA
:1036D00001E0E8D2010E771907E1785105E179514F
:1036E00003E17A5101E1DED2020E77196CE17851E3
:1036F0006AE1795168E17A5166E1040EDB6A050EF0
:10370000DB6A800E861511E083C114F084C115F0C8
:1037100085C116F086C117F0000E146C151E152217
:10372000161E1622171E172209D083C114F084C159
:1037300015F085C116F086C117F0148E14C0B8F0CC
:10374000800E861512E083C114F084C115F085C186
:1037500016F086C117F0000E146C151E1522161EE9
:103760001622171E1722148E08D083C114F084C1AC
:1037700015F085C116F086C117F014C0B9F0800E9F
:10378000861512E083C114F084C115F085C116F0CE
:1037900086C117F0000E146C151E1522161E162277
:1037A000171E1722148E08D083C114F084C115F09F
:1037B00085C116F086C117F014C0BAF0800E8615C8
:1037C00001E0E0D0F0D0030E77196BE1785169E1A8
:1037D000795167E17A5165E1040EDB6A050EDB6A17
:1037E000800E861511E083C114F084C115F085C1E7
:1037F00016F086C117F0000E146C151E1522161E49
:103800001622171E172209D083C114F084C115F0A7
:1038100085C116F086C117F0148E14C0B8F0800E62
:10382000861512E083C114F084C115F085C116F02D
:1038300086C117F0000E146C151E1522161E1622D6
:10384000171E1722148E08D083C114F084C115F0FE
:1038500085C116F086C117F014C0B9F0800E861528
:1038600012E083C114F084C115F085C116F086C141
:1038700017F0000E146C151E1522161E1622171EA8
:103880001722148E08D083C114F084C115F085C1AD
:1038900016F086C117F014C0BAF0800E861572E1DA
:1038A00082D0040E771901E087D0785101E084D0EE
:1038B000795101E081D07A5101E07ED0040EDB6ABB
:1038C000050EDB6A800E861511E083C114F084C1F9
:1038D00015F085C116F086C117F0000E146C151E88
:1038E0001522161E1622171E172209D083C114F0A6
:1038F00084C115F085C116F086C117F0148E14C06E
:10390000B8F0800E861512E083C114F084C115F062
:1039100085C116F086C117F0000E146C151E152215
:10392000161E1622171E1722148E08D083C114F0FB
:1039300084C115F085C116F086C117F014C0B9F026
:10394000800E861512E083C114F084C115F085C184
:1039500016F086C117F0000E146C151E1522161EE7
:103960001622171E1722148E08D083C114F084C1AA
:1039700015F085C116F086C117F014C0BAF0800E9C
:10398000861511E083C114F084C115F085C116F0CD
:1039900086C117F0000E146C151E1522161E162275
:1039A000171E17227CD183C114F084C115F085C184
:1039B00016F086C117F069D1050E771907E1785125
:1039C00005E1795103E17A5101E16CD1060E7719D5
:1039D0006CE178516AE1795168E17A5166E1040E4F
:1039E000DB6A050EDB6A800E861512E083C114F0D7
:1039F00084C115F085C116F086C117F0000E146C55
:103A0000151E1522161E1622171E1722148E08D0F8
:103A100083C114F084C115F085C116F086C117F07A
:103A200014C0B8F0800E861511E083C114F084C173
:103A300015F085C116F086C117F0000E146C151E26
:103A40001522161E1622171E172209D083C114F044
:103A500084C115F085C116F086C117F0148E14C00C
:103A6000B9F0800E861511E083C114F084C115F001
:103A700085C116F086C117F0000E146C151E1522B4
:103A8000161E1622171E172209D083C114F084C1F6
:103A900015F085C116F086C117F0148E14C0BAF067
:103AA000800E861501E1F3D0E0D0070E77196CE1A6
:103AB00078516AE1795168E17A5166E1040EDB6A76
:103AC000050EDB6A800E861512E083C114F084C1F6
:103AD00015F085C116F086C117F0000E146C151E86
:103AE0001522161E1622171E1722148E08D083C107
:103AF00014F084C115F085C116F086C117F014C00A
:103B0000B8F0800E861511E083C114F084C115F061
:103B100085C116F086C117F0000E146C151E152213
:103B2000161E1622171E172209D083C114F084C155
:103B300015F085C116F086C117F0148E14C0B9F0C7
:103B4000800E861511E083C114F084C115F085C183
:103B500016F086C117F0000E146C151E1522161EE5
:103B60001622171E172209D083C114F084C115F044
:103B700085C116F086C117F0148E14C0BAF0800EFD
:103B8000861501E184D071D0080E771901E08AD042
:103B9000785101E087D0795101E084D07A5101E079
:103BA00081D0040EDB6A050EDB6A800E861512E0FA
:103BB00083C114F084C115F085C116F086C117F0D9
:103BC000000E146C151E1522161E1622171E172223
:103BD000148E08D083C114F084C115F085C116F08D
:103BE00086C117F014C0B8F0800E861511E083C1AD
:103BF00014F084C115F085C116F086C117F0000ECF
:103C0000146C151E1522161E1622171E172209D017
:103C100083C114F084C115F085C116F086C117F078
:103C2000148E14C0B9F0800E861511E083C114F013
:103C300084C115F085C116F086C117F0000E146C12
:103C4000151E1522161E1622171E172209D083C113
:103C500014F084C115F085C116F086C117F0148EDA
:103C600014C0BAF0800E861512E083C114F084C12E
:103C700015F085C116F086C117F0000E146C151EE4
:103C80001522161E1622171E1722148E08D083C165
:103C900014F084C115F085C116F086C117F014C068
:103CA000BBF00CD0010EF36E040EF3CFDBFF050E5C
:103CB000DB6A0001B86BB96BBA6BBB6B0AEC2DF019
:043CC000B4EF06F067
:0C3CC400DACFE4FFE2CFDAFFE9CFE4FF43
:103CD000EACFE4FFF6CFE4FFF7CFE4FFF5CFE4FF50
:103CE000F3CFE4FFF4CFE4FFFACFE4FF00EE00F0FF
:103CF000140EE80403E3EECFE4FFFBD700EE14F06C
:103D00000C0EE80403E3EECFE4FFFBD7E652F2A487
:103D100032D1D59EFC0ED76E3F0ED66ED58E0101E8
:103D2000072B000E082301018F2B000E90239123F7
:103D300092230101932B000E9423952396230101D6
:103D4000972B000E982399239A2301019B2B000E99
:103D50009C239D239E230101092B000E0A230001B1
:103D6000E62B000EE723320E0001815D02E2000126
:103D7000812B030E0101001901E1015101E187D0FE
:103D8000020E0101001901E1015144E0010E01019F
:103D9000001901E1015107E00101005101E1015168
:103DA00001E0E3D0E7D08050100B100A01E0010ED3
:103DB000010808E10101026B036B0101002B000EF9
:103DC000012327D00101022B000E03230101F40E71
:103DD000D8800255010E03551CE20101026B036BF2
:103DE0000101010E0D1901E10E5106E00101070E5E
:103DF0000D1901E10E510DE10101AAB1BBD0010184
:103E0000AAB3B8D00101AAB5B5D00101AAB7B2D002
:103E1000897EB0D080A805D001010007000E015BAB
:103E200035D00101022B000E03230101320ED88090
:103E30000255000E03552AE2000EE66EE66A000EF9
:103E4000E66EE66A5AEC24F0E552E552E552E55298
:103E5000899E899C8A908A98020E01010D1901E1C0
:103E60000E510BE001010D5101E10E5101E00AD0AC
:103E7000898E0101096B0A6B05D0040E01010D6FDB
:103E80000E6B00D00101002B000E012373D080A81F
:103E90003FD0040E01010D1901E10E5133E0070E70
:103EA00001010D1901E10E5128E0050E01010D1966
:103EB00001E10E511DE0030E01010D1901E10E514A
:103EC00012E0010E01010D1901E10E5107E001019F
:103ED0000D5101E10E5101E016D015D0020E010185
:103EE0000D6F0E6B10D0010E01010D6F0E6B0BD01C
:103EF000060E01010D6F0E6B06D0080E01010D6F4D
:103F00000E6B01D0FF000101002B000E01232CD00D
:103F1000050E01010D1901E10E5116E001010D51CF
:103F200001E10E5101E020D00101D00ED8800955E9
:103F3000070E0A5508E2899C050E01010D6F0E6BF4
:103F40000101026B036B10D00101022B000E032351
:103F50000101640ED8800255000E035504E20101F0
:103F6000026B036B897E00D005D0010E0101006F4A
:103F7000016B00D0F2949EA673D00001816B00010A
:103F8000826B000180510F0A64E0010A5EE0030ABF
:103F900044E0010A39E0070A2EE0080A23E0010A9A
:103FA0000AE0030A01E058D083C0C9FF0001846B16
:103FB0000001802B54D0C5AC03D080C082F011D05A
:103FC00000018451842BEA6A860FE96E000EEA2212
:103FD000EF50C96E000185510001845D02E10001CE
:103FE000802B3DD0C5AC03D080C082F003D0C58407
:103FF0000001806B34D0010E00018311C96E0001F5
:10400000846B0001802B2BD0C5AC03D080C082F024
:1040100003D0C5860001802B22D000018451842B5F
:10402000EA6A860FE96E000EEA22C9CFEFFF0001AF
:1040300085510001845D04E2C59A0001800703D028
:10404000C58A0001802BC5880AD0C5840001802B59
:1040500006D00001806B03D00001806B00D09E96DB
:10406000A1A606D0A196400E000180110001826F2A
:10407000E55200EE1FF00C0EE80403E3E5CFEDFF80
:10408000FBD700EE13F0140EE80403E3E5CFEDFFD9
:10409000FBD7E5CFFAFFE5CFF4FFE5CFF3FFE5CFA0
:1040A000F5FFE5CFF7FFE5CFF6FFE5CFEAFFE5CF78
:1040B000E9FFE5CFDAFF1100D8CFE4FFE0CFE4FF5E
:1040C000E46EDACFE4FFE2CFDAFFE9CFE4FFEACF34
:1040D000E4FFE6529EAC2CD19E9CC4CF06F1C3CF28
:1040E00005F101010451EA6AA00FE96E010EEA220E
:1040F000EF50020801E09BD001010C3504E20B51A6
:104100000308000E0C5501E391D005C105F106C16D
:1041100006F10101FF0ED8800557030E0657010E68
:104120000101D89005370637E806FBE10101900E42
:10413000055D010E065905E20101900E056F010EA5
:10414000066F900E0101055F010E0101065B010182
:10415000FF0ED8800555030E065504E201010569DE
:10416000030E066F01010451E96EEA6AD890E93640
:10417000EA360F0EE926010EEA22EE50010105276C
:10418000EE500101062305C120F006C121F0010E09
:104190000F0B05E0D89021322032E806FBE1010147
:1041A0000451E96EEA6AD890E936EA360F0EE9263C
:1041B000010EEA2220C0EEFF21C0EDFF01010B6BD2
:1041C0000C6B01010451090A2EE0010A29E00F0AD3
:1041D00024E0010A1FE0030A1AE0010A15E0070AB9
:1041E00010E0010A0BE0030A06E0010A01E01ED01C
:1041F000929089801BD09292898218D0929489845F
:1042000015D09296898612D0929A898A0FD093946B
:104210008A840CD093968A8609D093928A8206D09B
:1042200093988A8803D093908A8000D02CD0010183
:104230000451E96EEA6AD890E936EA360F0EE926AB
:10424000010EEA22EE5001010527EE50010106237E
:1042500005C120F006C121F0010E0F0B05E0D8903A
:1042600021322032E806FBE101010451E96EEA6ADD
:10427000D890E936EA360F0EE926010EEA2220C070
:10428000EEFF21C0EDFF0A0E206E0101042B01019B
:104290000451D880205402E30101046B0101045150
:1042A000EA6AA00FE96E010EEA22EF50020837E138
:1042B00001010B2B000E0C2301010C3504E20B5104
:1042C0000308000E0C552BE201010451090A25E0F8
:1042D000010A21E00F0A1DE0010A19E0030A15E0B6
:1042E000010A11E0070A0DE0010A09E0030A05E0EE
:1042F000010A01E014D0928012D0928210D09284F0
:104300000ED092860CD0928A0AD0938408D09386DD
:1043100006D0938204D0938802D0938000D001010C
:104320000451EA6ACE0FE96E010EEA22EF50C26E26
:104330009EAA98D0ABA403D0AECFEAF093D0ABA2A4
:1043400003D0AB98AB888ED0AECFEAF00101010E5E
:104350000D1901E10E5173E00001EB51080A66E00E
:104360000F0A5AE0010A4EE0030A42E0010A36E071
:10437000070A2AE0010A1EE0030A12E0010A01E02E
:104380005ED0520E0001EA5D03E10001010EEB6F09
:10439000560E0001EA5D03E10001050EEB6F4FD000
:1043A000650E0001EA5D02E1020E01D0000E00017F
:1043B000EB6F45D0730E0001EA5D02E1030E01D000
:1043C000000E0001EB6F3BD0650E0001EA5D02E1DB
:1043D000040E01D0000E0001EB6F31D0740E00010D
:1043E000EA5D02E1070E01D0000E0001EB6F27D05D
:1043F000650E0001EA5D02E1060E01D0000E00012B
:10440000EB6F1DD0720E0001EA5D02E1070E01D0D4
:10441000000E0001EB6F13D00D0E0001EA5D02E10A
:10442000080E01D0000E0001EB6F09D00A0E00014A
:10443000EA5D02E1FF0002D00001EB6B00D0000159
:10444000E851EA6AC50FE96E000EEA22EAC0EFFF02
:104450001F0E206E0001E82B0001E851205C02E2F3
:104460000001E86BE552E5CFEAFFE5CFE9FFE5CFD4
:10447000DAFFE550E5CFE0FFE5CFD8FF1000D9CF58
:10448000E6FFE1CFD9FF030EE126F00ED36EC00E9A
:104490009B6E0001EB6B01010D6B0E6B006B016BF2
:1044A000026B036B010EDB6A020EDB6A010EDBCFCF
:1044B00014F0020EDBCF15F0D890155004E61A0E5A
:1044C000145C000E15581AE2010EDBCFE9FF020E54
:1044D000DBCFEAFFD890E936EA36D890E936EA36FB
:1044E000270EE926010EEA22EE6AEE6AEE6AEE6A0D
:1044F000010EDB2A020EDAE3DB2AD8D7010EDB6AD3
:10450000020EDB6A010EDBCF14F0020EDBCF15F0DA
:10451000D890155004E6040E145C000E15581AE2EB
:10452000010EDBCFE9FF020EDBCFEAFFD890E936C0
:10453000EA36D890E936EA368F0EE926010EEA22ED
:10454000EE6AEE6AEE6AEE6A010EDB2A020EDAE32A
:10455000DB2AD8D7010EDB6A020EDB6A010EDBCF45
:1045600014F0020EDBCF15F0D890155004E60A0EB9
:10457000145C000E155811E2010EDBCFE9FF020EAC
:10458000DBCFEAFFA00EE926010EEA22010EEF6E54
:10459000DB2A020EE3E3DB2AE1D70101236B246B64
:1045A000256B266B046B0B6B0C6BAA6BAB6B096BEF
:1045B0000A6B076B086B896A3F0EDF6EDF50926EE5
:1045C0008A6A1F0EDF6E0101E01DDF16E66A080E23
:1045D000E66E6AEC27F0E552E5520101A86B010195
:1045E000D81DDF16E66A090EE66E6AEC27F0E55282
:1045F000E5520101A96BDF50936E180E8B6E980E79
:10460000946E020ED56EFC0ED76E3F0ED66ED58E12
:10461000F294F28AF184B00EB16EA292A192A092AD
:10462000B1809D92010ECA6ECC68CB68CA849F6F20
:10463000000E256F266B236F246BE66EE66AE66E2E
:10464000E66AA2D8E552E552E552E5529F9C9D8C60
:10465000BE0EC06E020EC16E01010451EA6ACE0F99
:10466000E96E010EEA22EF50C26E29EC36F04CECF6
:104670002CF0D09CD08EF28EF28C780E146E900EB0
:10468000156E166A14C0E6FFE66E16C0E6FF78ECFB
:1046900036F0E552E552E552FFEC38F032EC2DF001
:1046A000E66A4AEC2DF0E552010E0101006F016B44
:1046B0008050100B100A01E0010E0108F9E0010121
:1046C0000D510E1103E1010E0D6F0E6B898E030E5D
:1046D000E15C02E2E16AE552E16EE552E7CFD9FF23
:1046E0001200CDDEF40EE66E010EE66EB9D8E5528C
:1046F000E552EAEC33F00101096B0A6BBEEC36F0CF
:10470000000902E0C4EC36F0070E01010D1901E1C9
:104710000E5137E0050E0D1901E10E512DE0060E88
:104720000D1901E10E5128E0020E0D1901E10E51A3
:104730001BE0030E0D1901E10E5116E0010E0D19DB
:10474000DDE10E51DBE1CC51095DCD510A59D6E3D3
:10475000096B0A6BAAA102D058EC39F00101AAA397
:10476000CDD79FEC3AF0CAD777EC06F0898E010ED0
:1047700001010D6F0E6BC2D7E2EC28F060EC29F05E
:10478000BDD76BEC2AF0BAD7D9CFE6FFE1CFD9FF7E
:10479000040EE126FD0EDBCF14F0FE0EDBCF15F08C
:1047A000FF0ED8801454030E155407E2FD0EDB688B
:1047B000030EF36EFE0EF3CFDBFFFB0EDBCF14F028
:1047C000FC0EDBCF15F0FF0ED8801454030E1554E9
:1047D00007E2FB0EDB68030EF36EFC0EF3CFDBFF8C
:1047E000FB0EDBCF14F0FC0EDBCF15F0060ED890DD
:1047F00014361536E804FBE114C0DEFF15C0DDFFFA
:10480000FD0EDBCF14F0FE0EDBCF15F0060ED890B8
:1048100014361536E804FBE1020E14C0DBFF030E6C
:1048200015C0DBFF010EDB50BE6E030EDB50BB6E0E
:10483000DF50E840E8403F0B300B0C09BD6E020E24
:10484000DB40E8403F0B300B0C09BA6E040EE15C14
:1048500002E2E16AE552E16EE552E7CFD9FF1200CC
:10486000D9CFE6FFE1CFD9FF020EE126F29A01018E
:10487000096B0A6BF28AF29A09C1DEFF0AC1DDFFF9
:10488000F28ADECF14F0DDCF15F0FD0EDBCF16F08F
:10489000FE0EDBCF17F01650145C17501558EBE3E3
:1048A000020EE15C02E2E16AE552E16EE552E7CF19
:1048B000D9FF1200D9CFE6FFE1CFD9FF0A0EE126DA
:1048C00023C114F024C115F0FD0EDB50141811E1C2
:1048D000FE0EDB5015180DE125C116F026C117F0AC
:1048E000FB0EDB50161805E1FC0EDB50171801E13A
:1048F000E7D2000EE66EE66AE66EE66A45DFE5524E
:10490000E552E552E5528B9A8B908A9C8A9AA09246
:10491000A192B190B368050EB26EB180080EF8C1D5
:10492000DBFFFD0EDBCF14F0FE0EDBCF15F01534F0
:1049300001E387D014500008000E155401E381D024
:10494000010EF36E040EF3CFDBFF060EDB6A080EDA
:10495000086E096AFD0EDBCF0DF0FE0EDBCF0EF008
:10496000E6EC45F006C0DEFF07C0DDFF0101000EEA
:10497000D880F855000EF95501E3F8D0DECF14F0D9
:10498000DDCF15F015341EE214509008010E1554B9
:1049900019E2DECF16F0DDCF17F0900E165E010E95
:1049A000175A16C008F017C009F0FCC10DF0FDC180
:1049B0000EF0C8EC48F00101F8510824146EF951CA
:1049C000092027D0DECF14F0DDCF15F0900ED8806F
:1049D0001456010E1556F851145CF95115581CE285
:1049E000DECF16F0DDCF17F0900ED8801656010EF0
:1049F000175616C008F017C009F0FCC10DF0FDC134
:104A00000EF0C8EC48F001010850F85D146E095032
:104A1000F959080E14C0DBFF080EDB50146E156A3E
:104A2000DECF16F0DDCF17F015501718E8AE02D024
:104A3000173404D01650145C1750155801E396D063
:104A400089D0FD0EDBCF14F0FE0EDBCF15F0000198
:104A5000800E151401E18FD0040EDB6A010EF36E97
:104A6000060EF3CFDBFFF80E086E0968FD0EDBCFF4
:104A70000DF0FE0EDBCF0EF0E6EC45F006C0DEFFDB
:104A800007C0DDFF0101000ED880F855000EF95572
:104A90006DE2DECF14F0DDCF15F015341EE21450B8
:104AA0009008010E155419E2DECF16F0DDCF17F095
:104AB000900E165E010E175A16C008F017C009F0C6
:104AC000FCC10DF0FDC10EF0C8EC48F00101F85139
:104AD0000824146EF951092027D0DECF14F0DDCF61
:104AE00015F0900ED8801456010E1556F851145C2E
:104AF000F95115581CE2DECF16F0DDCF17F0900EFD
:104B0000D8801656010E175616C008F017C009F0C7
:104B1000FCC10DF0FDC10EF0C8EC48F001010850D9
:104B2000F85D146E0950F959080E14C0DBFF080E29
:104B3000DB50146E156ADECF16F0DDCF17F015507E
:104B40001718E8AE02D0173404D01650145C175072
:104B500015580CE2080EDB50146E156AD9CFE9FF28
:104B6000DACFEAFFE850EE5E1550ED5A640EDE260D
:104B7000000EDD220FD001019F510CE0010EF36EFB
:104B8000040EF3CFDBFF010EF36E060EF3CFDBFF57
:104B9000DE6ADD6A090EFAC1DBFFFB0EDBCF14F023
:104BA000FC0EDBCF15F0153401E393D01450000850
:104BB000000E155401E38DD0010EF36E050EF3CFF8
:104BC000DBFF070EDB6A080E086E096AFB0EDBCFFF
:104BD0000DF0FC0EDBCF0EF0E6EC45F0020E06C049
:104BE000DBFF030E07C0DBFF0101000ED880FA5582
:104BF000000EFB5501E310D1020EDBCF14F0030EC3
:104C0000DBCF15F0153420E214509008010E155436
:104C10001BE2020EDBCF16F0030EDBCF17F0900E77
:104C2000165E010E175A16C008F017C009F0FCC135
:104C30000DF0FDC10EF0C8EC48F00101FA51082456
:104C4000146EFB5109202BD0020EDBCF14F0030EA3
:104C5000DBCF15F0900ED8801456010E1556FA5180
:104C6000145CFB5115581EE2020EDBCF16F0030E4A
:104C7000DBCF17F0900ED8801656010E175616C0CF
:104C800008F017C009F0FCC10DF0FDC10EF0C8EC32
:104C900048F001010850FA5D146E0950FB59090EE5
:104CA00014C0DBFF090EDB50146E156A020EDBCF59
:104CB00016F0030EDBCF17F015501718E8AE02D030
:104CC000173404D01650145C1750155801E3A4D0C3
:104CD00096D0FB0EDBCF14F0FC0EDBCF15F00001FD
:104CE000800E151401E1A2D0050EDB6A010EF36EF1
:104CF000070EF3CFDBFFF80E086E0968FB0EDBCF63
:104D00000DF0FC0EDBCF0EF0E6EC45F0020E06C017
:104D1000DBFF030E07C0DBFF0101000ED880FA5550
:104D2000000EFB5501E378D0020EDBCF14F0030E2A
:104D3000DBCF15F0153420E214509008010E155405
:104D40001BE2020EDBCF16F0030EDBCF17F0900E46
:104D5000165E010E175A16C008F017C009F0FCC104
:104D60000DF0FDC10EF0C8EC48F00101FA51082425
:104D7000146EFB5109202BD0020EDBCF14F0030E72
:104D8000DBCF15F0900ED8801456010E1556FA514F
:104D9000145CFB5115581EE2020EDBCF16F0030E19
:104DA000DBCF17F0900ED8801656010E175616C09E
:104DB00008F017C009F0FCC10DF0FDC10EF0C8EC01
:104DC00048F001010850FA5D146E0950FB59090EB4
:104DD00014C0DBFF090EDB50146E156A020EDBCF28
:104DE00016F0030EDBCF17F015501718E8AE02D0FF
:104DF000173404D01650145C175015580DE2090EE4
:104E0000DB50146E156AD950020FE96EDACFEAFF53
:104E10001450EE5E1550ED5AD950020FE96EDACFFC
:104E2000EAFF640EEE26000EED2211D001019F5123
:104E30000EE0010EF36E050EF3CFDBFF010EF36EF5
:104E4000070EF3CFDBFF020EDB6A030EDB6A010104
:104E5000010E9F6FFD0EDBCF23F1FE0EDBCF24F1A1
:104E6000FB0EDBCF25F1FC0EDBCF26F1A1A2FED796
:104E7000A192020EDBCFE6FF030EDBCFE6FFDECF13
:104E8000E6FFDDCFE6FF80DCE552E552E552E55274
:104E9000040EDB50E8B08B8AE8A08B9A060EDB503C
:104EA000E8B08B80E8A08B90050EDB50E8B08A8CD0
:104EB000E8A08A9C070EDB50E8B08A8AE8A08A9AAC
:104EC0000A0EE15C02E2E16AE552E16EE552E7CFEB
:104ED000D9FF1200D9CFE6FFE1CFD9FFFE0EDB509C
:104EE000090A5AE0010A50E00F0A46E0010A3CE0D4
:104EF000030A32E0010A28E0070A1EE0010A14E072
:104F0000030A0AE0010A4EE1FD0EDB50E8B0898099
:104F1000E8B048D0899046D0FD0EDB50E8B08982D9
:104F2000E8B040D089923ED0FD0EDB50E8B08984D5
:104F3000E8B038D0899436D0FD0EDB50E8B08986D1
:104F4000E8B030D089962ED0FD0EDB50E8B0898ACB
:104F5000E8B028D0899A26D0FD0EDB50E8B08A84CC
:104F6000E8B020D08A941ED0FD0EDB50E8B08A86CF
:104F7000E8B018D08A9616D0FD0EDB50E8B08A82D1
:104F8000E8B010D08A920ED0FD0EDB50E8B08A88CF
:104F9000E8B008D08A9806D0FD0EDB50E8B08A80D1
:104FA000E8A08A90E552E7CFD9FF1200D9CFE6FFFB
:104FB000E1CFD9FFE652DF6AFE0EDB50090A35E089
:104FC000010A2EE00F0A28E0010A22E0030A1CE091
:104FD000010A16E0070A10E0010A0AE0030A04E0E9
:104FE000010A26E1895022D08950020B20E01BD013
:104FF0008950040B1CE017D08950080B18E013D01F
:105000008950200B14E00FD08A50040B10E00BD015
:105010008A50080B0CE007D08A50020B08E003D03E
:105020008A50100B04E0010E02D08A50010BDF6E93
:10503000DF50E552E552E7CFD9FF1200D9CFE6FFA6
:10504000E1CFD9FFFE0EDB50030A1EE0010A14E097
:10505000030A0AE0010A1EE1FD0EDB50E8B0898E6A
:10506000E8B018D0899E16D0FD0EDB50E8B0898CD0
:10507000E8B010D0899C0ED0FD0EDB50E8B08A80DD
:10508000E8B008D08A9006D0FD0EDB50E8B08A88E0
:10509000E8A08A98E552E7CFD9FF1200D9CFE6FF02
:1050A000E1CFD9FFE652DF6AFE0EDB50030A13E0C0
:1050B000010A0DE0030A06E0010A12E18950800BA3
:1050C00008E003D08950400B04E0010E02D08A5062
:1050D000010BDF6E05D08A50100B01E0010EDF6E70
:1050E000DF50E552E552E7CFD9FF1200D9CFE6FFF6
:1050F000E1CFD9FFF29AFE0EDB50040DF3CFE9FFAA
:10510000F4CFEAFF8F0EE926010EEA22EE6AEE6A7C
:10511000EE6AEE6AF28AE552E7CFD9FF1200D9CFE4
:10512000E6FFE1CFD9FF040EE126F29AFE0EDB5036
:10513000040DF3CFE9FFF4CFEAFF8F0EE926010E4D
:10514000EA22EECFDFFF010EEECFDBFF020EEECF45
:10515000DBFF030EEECFDBFFF28ADECF06F0DECF01
:1051600007F0DECF08F0DDCF09F0DD52DD52040E8E
:10517000E15C02E2E16AE552E16EE552E7CFD9FF78
:105180001200B36AB26AB1801200D9CFE6FFE1CF54
:10519000D9FF020EE126B250DF6E010EB3CFDBFF66
:1051A000DECF14F0DDCF15F014C0F3FF15C0F4FF0F
:1051B000020EE15C02E2E16AE552E16EE552E7CF00
:1051C000D9FF1200E66AE66A39DFE552E552E66A7F
:1051D000010EE66E33DFE552E552E66A020EE66E38
:1051E0002DDFE552E552E66A030EE66E27DFE55253
:1051F000E552050E01010D6F0E6B0101050E0D1933
:105200005EE10E515CE1320ED8800F55010E105553
:1052100003E2010EE66E01D0E66AE66A0FDFE552B0
:10522000E5520101320ED8801155010E125503E2EC
:10523000010EE66E02D0E66A010EE66EFFDEE55272
:10524000E5520101FF0ED8801355010E145503E2FB
:10525000010EE66E01D0E66A020EE66EEFDEE55262
:10526000E5520101FF0ED8801555010E165503E2D7
:10527000010EE66E01D0E66A030EE66EDFDEE55251
:10528000E5520101FF0ED8801755010E18550AE2AC
:10529000010EE66E020EE66ED1DEE552E552010E1B
:1052A000E66E07D0E66A020EE66EC8DEE552E5520B
:1052B000E66A030EE66EC2DEE552E5529ED71200A4
:1052C000E66AE66ABBDEE552E552E66A010EE66E84
:1052D000B5DEE552E552E66A020EE66EAFDEE55255
:1052E000E552E66A030EE66EA9DEE552E552010ECE
:1052F000E66EE66AA3DEE552E552320EE66EE66A37
:10530000E66EE66A5AEC24F0E552E552E552E552C3
:10531000E80EE66E030EE66E30EC24F0E552E55240
:10532000E66AE66A8BDEE552E552000EE66EE66A54
:10533000E66EE66A5AEC24F0E552E552E552E55293
:10534000C80EE66EE66A30EC24F0E552E552010E36
:10535000E66EE66E73DEE552E552CE0EE66EE66868
:10536000E66EE6685AEC24F0E552E552E552E55265
:10537000E80EE66E030EE66E30EC24F0E552E552E0
:10538000E66A010EE66E5ADEE552E552000EE66E62
:10539000E66AE66EE66A5AEC24F0E552E552E5521A
:1053A000E552C80EE66EE66A30EC24F0E552E552AE
:1053B000010EE66E020EE66E41DEE552E552320E59
:1053C000E66EE66ACE0EE66EE6685AEC24F0E5522A
:1053D000E552E552E552E80EE66E030EE66E30EC5D
:1053E00024F0E552E552E66A020EE66E27DEE5524B
:1053F000E552000EE66EE66AE66EE66A5AEC24F0C6
:10540000E552E552E552E552C80EE66EE66A30EC2A
:1054100024F0E552E552010EE66E030EE66E0EDE56
:10542000E552E552CE0EE66EE668320EE66EE66AAC
:105430005AEC24F0E552E552E552E552E80EE66EEC
:10544000030EE66E30EC24F0E552E552E66A030EF8
:10545000E66EF4DDE552E552000EE66EE66AE66EB3
:10546000E66A5AEC24F0E552E552E552E552320E76
:10547000E66EE66A000EE66EE66A5AEC24F0E55245
:10548000E552E552E552E80EE66E030EE66E30ECAC
:1054900024F0E552E552000EE66EE66A320EE66E44
:1054A000E66A5AEC24F0E552E552E552E552E80E80
:1054B000E66E030EE66E30EC24F0E552E552000E87
:1054C000E66EE66AE66EE66A5AEC24F0E552E552CC
:1054D000E552E5521200BEEC36F0000902E0C4ECE1
:1054E00036F00101080E0D1901E080D00E5101E0E7
:1054F0007DD0010EE66EE66AA1DDE552E552320E80
:10550000E66EE66AE66EE66A5AEC24F0E552E5528B
:10551000E552E552D00EE66E070EE66E30EC24F052
:10552000E552E552640EE66EE66AE66EE66A5AEC0D
:1055300024F0E552E552E552E552E80EE66E030E20
:10554000E66E30EC24F0E552E552010EE66E030EF5
:10555000E66E74DDE552E552000EE66EE66AE66E32
:10556000E66A5AEC24F0E552E552E552E552F40EB3
:10557000E66E010EE66E30EC24F0E552E552CE0EFA
:10558000E66EE668E66EE6685AEC24F0E552E5520F
:10559000E552E552D00EE66E070EE66E30EC24F0D2
:1055A000E552E5529C0EE66EE668E66EE6685AEC59
:1055B00024F0E552E552E552E552E80EE66E030EA0
:1055C000E66E30EC24F0E552E552E66A030EE66E34
:1055D00035DDE552E552000EE66EE66AE66EE66AF5
:1055E0005AEC24F0E552E552E552E552070E01016E
:1055F0000D6F0E6B70D7D9CFE6FFE1CFD9FF040E48
:10560000E126FD0EDBCF14F0FE0EDBCF15F0B40E5D
:10561000145C000E155869E2D950FD0FE96EFF0EBB
:10562000DA20EA6EEE50ED1007E1010EF36EFD0E8A
:10563000F3CFDBFFFE0EDB6AFD0EDBCF14F0FE0EB8
:10564000DBCF15F0166A176A410E145E000E155A6C
:10565000165A175A14C0DFFF010E15C0DBFF020EE9
:1056600016C0DBFF030E17C0DBFFD9CFE9FFDACF8F
:10567000EAFFC80E0B6E0C6A0D6A0E6AEECF06F0DA
:10568000EECF07F0EECF08F0EFCF09F004EC48F0D2
:1056900005C0EDFF04C0EDFF03C0EDFF02C0EFFF4A
:1056A000D9CFE9FFDACFEAFF730E0B6E0C6A0D6AF1
:1056B0000E6AEECF06F0EECF07F0EECF08F0EFCF98
:1056C00009F0B2EC45F009C0EDFF08C0EDFF07C0DE
:1056D000EDFF06C0EFFFD9CFE9FFDACFEAFF2C0ECE
:1056E000EE5E010EEE5A000E64D0FD0EDBCF14F01C
:1056F000FE0EDBCF15F0BE0E145C020E15585CE2F8
:10570000FD0EDBCF14F0FE0EDBCF15F0166A176A24
:10571000B40E145E000E155A165A175A14C0DFFF45
:10572000010E15C0DBFF020E16C0DBFF030E17C013
:10573000DBFFD9CFE9FFDACFEAFF580E0B6E020E7E
:105740000C6E0D6A0E6AEECF06F0EECF07F0EECFCC
:1057500008F0EFCF09F004EC48F005C0EDFF04C0FD
:10576000EDFF03C0EDFF02C0EFFFD9CFE9FFDACFB5
:10577000EAFF100E0B6E020E0C6E0D6A0E6AEECF73
:1057800006F0EECF07F0EECF08F0EFCF09F0B2EC65
:1057900045F009C0EDFF08C0EDFF07C0EDFF06C0F2
:1057A000EFFFD9CFE9FFDACFEAFF640EEE5E000E1D
:1057B000EE5AEE5AEE5A5DD0FD0EDBCF14F0FE0E1F
:1057C000DBCF15F0166A176ABE0E145E020E155A6C
:1057D000000E165A175A14C0DFFF010E15C0DBFF6A
:1057E000020E16C0DBFF030E17C0DBFFD9CFE9FFA7
:1057F000DACFEAFFF40E0B6E010E0C6E0D6A0E6A24
:10580000EECF06F0EECF07F0EECF08F0EFCF09F0C5
:1058100004EC48F005C0EDFF04C0EDFF03C0EDFF50
:1058200002C0EFFFD9CFE9FFDACFEAFF0F0E0B6E10
:10583000010E0C6E0D6A0E6AEECF06F0EECF07F089
:10584000EECF08F0EFCF09F0B2EC45F009C0EDFF64
:1058500008C0EDFF07C0EDFF06C0EFFFD9CFE9FF9D
:10586000DACFEAFFF40EEE26010EEE22000EEE2253
:10587000EE22DFCF14F0010EDBCF15F014C0F3FFE2
:1058800015C0F4FF040EE15C02E2E16AE552E16E4C
:08589000E552E7CFD9FF120039
:08589800C76A110EC86E280E4C
:1058A000C66E400EC56E948694889F869E969D8691
:1058B000A286A196A08606D8A00EE66E0EEC49F050
:1058C000E5521200D9CFE6FFE1CFD9FFE652C95029
:1058D000DF6EC69AC69CC69EC59CC59A0001846BA5
:1058E00082B803D00DD80001BE6B9E96A196806B46
:1058F000816B826BC68AE552E552E7CFD9FF120071
:10590000D9CFE6FFE1CFD9FFE6528A88C69ADF6A8F
:10591000090EDF5C0EE29496020EE66E28EC49F06A
:10592000E5529486020EE66E28EC49F0E552DF2A35
:10593000EFD7E552E552E7CFD9FF12000001816BA6
:105940001F0EC51403E1C750040B07E00A0E146EC6
:105950008151145CF5E24CEF2CF01200D9CFE6FF38
:10596000E1CFD9FFE652DF6A020E0001815DFCE360
:10597000E5DFFE0EDBCF83F0FD0EDBCF85F000010F
:10598000816B010E806FC580805112E0020E146E93
:105990008151145C03E2800E8011826F8251F4E029
:1059A000C5847ADFDF2A050EDF5CE9E3000E02D052
:1059B000816B010EE552E552E7CFD9FF1200D9CF36
:1059C000E6FFE1CFD9FF020E0001815DFCE3B6DF07
:1059D000FE0EDB5001090001836FFD0EDBCF85F069
:1059E000816B0B0E806FC58080510EE0020E146E2D
:1059F0008151145C03E2800E8011826F8251F4E0C9
:105A0000C5844ADF000E02D0816B010EE552E7CF5C
:105A1000D9FF1200D9CFE6FFE1CFD9FFE652DF6A06
:105A2000060EDF5C13E2DF50EA6AB80FE96E000E83
:105A3000EA22EF50E66EDF50EA6A860FE96E000E4A
:105A4000EA22E552E750EF6EDF2AEAD7060EE66E4D
:105A5000140EE66E83DFE552E552E552E552E7CFDC
:105A6000D9FF1200D9CFE6FFE1CFD9FFE652DF6AB6
:105A7000060EDF5C09E2DF50EA6AB80FE96E000E3D
:105A8000EA22EF6ADF2AF4D7C5DFE552E552E7CF15
:105A9000D9FF1200D9CFE6FFE1CFD9FF020EE126F0
:105AA000DF6A146AFE0EDB50145C09E2FE0EDB04B2
:105AB000E824300FE76E010EE7CFDBFF02D0010EC6
:105AC000DB6ADF50DF2AEA6A860FE96E000EEA22FF
:105AD000010EEF6EDF50DF2AEA6A860FE96E000ED4
:105AE000EA22EF6ADFCFE6FF010EDBCFE6FF36DF0B
:105AF000E552E552020EE15C02E2E16AE552E16E36
:105B0000E552E7CFD9FF1200D9CFE6FFE1CFD9FFA9
:105B1000020EE126DF6A146AFE0EDB50145C09E215
:105B2000FE0EDB04E824300FE76E010EE7CFDBFF4B
:105B300002D0010EDB6ADF50DF2AEA6A860FE96EC7
:105B4000000EEA22010EEF6EDF50DF2AEA6A860FAE
:105B5000E96E000EEA22010EEF6EDFCFE6FFDBCF2B
:105B6000E6FFFCDEE552E552640EE66EE66A30ECD6
:105B700024F0E552E552020EE15C02E2E16AE552F0
:105B8000E16EE552E7CFD9FF1200D9CFE6FFE1CFB2
:105B9000D9FF020EE126146AFE0EDB50145C09E206
:105BA000FE0EDB04E824300FE76E010EE7CFDBFFCB
:105BB00002D0010EDB6ADF6ADF50DF2AEA6A860F55
:105BC000E96E000EEA22030EEF6EDF50DF2AEA6A6A
:105BD000860FE96E000EEA22120EEF6EDF50DF2A0A
:105BE000EA6A860FE96E000EEA22FC0EDBCFEFFFB9
:105BF000DF50DF2AEA6A860FE96E000EEA22FA0E0B
:105C0000DBCFEFFFDFCFE6FF010EDBCFE6FFA6DE47
:105C1000E552E552020EE15C02E2E16AE552E16E14
:105C2000E552E7CFD9FF1200D9CFE6FFE1CFD9FF88
:105C3000020EE126146AFE0EDB50145C09E2FE0E31
:105C4000DB04E824300FE76E010EE7CFDBFF02D064
:105C5000010EDB6ADF6ADF50DF2AEA6A860FE96E2F
:105C6000000EEA22030EEF6EDF50DF2AEA6A860F8B
:105C7000E96E000EEA22130EEF6EDF50DF2AEA6AA9
:105C8000860FE96E000EEA22FD0EDBCFEFFFDF503C
:105C9000DF2AEA6A860FE96E000EEA22FC0EDBCFED
:105CA000EFFFDFCFE6FF010EDBCFE6FF57DEE55269
:105CB000E552020EE15C02E2E16AE552E16EE55274
:105CC000E7CFD9FF1200D9CFE6FFE1CFD9FF020E0F
:105CD000E126146AFE0EDB50145C09E2FE0EDB04C2
:105CE000E824300FE76E010EE7CFDBFF02D0010E94
:105CF000DB6ADF6ADF50DF2AEA6A860FE96E000E90
:105D0000EA22030EEF6EDF50DF2AEA6A860FE96EA1
:105D1000000EEA22140EEF6EDF50DF2AEA6A860FC9
:105D2000E96E000EEA22FD0EDBCFEFFFDF50DF2A27
:105D3000EA6A860FE96E000EEA22FC0EDBCFEFFF67
:105D4000DFCFE6FF010EDBCFE6FF08DEE552E552CE
:105D5000020EE15C02E2E16AE552E16EE552E7CF54
:105D6000D9FF1200D9CFE6FFE1CFD9FF020EE1261D
:105D7000146AFE0EDB50145C09E2FE0EDB04E8241C
:105D8000300FE76E010EE7CFDBFF02D0010EDB6ABA
:105D9000DF6ADF50DF2AEA6A860FE96E000EEA2228
:105DA000020EEF6EDF50DF2AEA6A860FE96E000E00
:105DB000EA22150EEF6EDF50DF2AEA6A860FE96EDF
:105DC000000EEA22FD0EDBCFEFFFDFCFE6FF010E74
:105DD000DBCFE6FFC3DDE552E552020EE15C02E2F5
:105DE000E16AE552E16EE552E7CFD9FF1200D9CF63
:105DF000E6FFE1CFD9FF060EE126146AFE0EDB5066
:105E0000145C09E2FE0EDB04E824300FE76E050E99
:105E1000E7CFDBFF02D0050EDB6A040EDB6ADBCFC7
:105E2000F3FFDB2AF350EA6A860FE96E000EEA22DE
:105E3000060EEF6E040EDBCFF3FFDB2AF350EA6AA7
:105E4000860FE96E000EEA22160EEF6E040EDBCF0F
:105E5000F3FFDB2AF350EA6A860FE96E000EEA22AE
:105E6000FD0EDBCFEFFFD9CFE9FFDACFEAFFF90E66
:105E7000DBCFEEFFFA0EDBCFEEFFFB0EDBCFEEFF4C
:105E8000FC0EDBCFEEFF040EDBCFF3FFDB2AF3507B
:105E9000EA6A860FE96E000EEA22DFCFEFFF040EFA
:105EA000DBCFF3FFDB2AF350EA6A860FE96E000EC0
:105EB000EA22010EDBCFEFFF040EDBCFF3FFDB2A7C
:105EC000F350EA6A860FE96E000EEA22020EDBCF7B
:105ED000EFFF040EDBCFF3FFDB2AF350EA6A860FF5
:105EE000E96E000EEA22030EDBCFEFFF040EDBCFDC
:105EF000E6FF050EDBCFE6FF31DDE552E552060E8B
:105F0000E15C02E2E16AE552E16EE552E7CFD9FFDA
:105F10001200D9CFE6FFE1CFD9FF040EE126146AC3
:105F2000FE0EDB50145C09E2FE0EDB04E824300FA9
:105F3000E76E030EE7CFDBFF02D0030EDB6A020E33
:105F4000DB6ADBCFF3FFDB2AF350EA6A860FE96EE8
:105F5000000EEA22010EEF6E020EDBCFF3FFDB2A0A
:105F6000F350EA6A860FE96E000EEA22800EEF6EA9
:105F7000020EDBCFE6FF030EDBCFE6FFEFDCE552E0
:105F8000E55200090AE00A0EE66E030EDBCFE6FFDB
:105F900016DDE552E552000902E1000E21D0020EA5
:105FA000DB6A0A0EF36E020EDBCFF4FFF350F45CF3
:105FB00016E2020EDB50EA6A860FE96E000EEA2254
:105FC000EF50E66E020EDB50EA6AC00FE96E010E7A
:105FD000EA22E552E750EF6E020EDB2AE2D7010E0D
:105FE000146E040EE15C02E2E16AE552E16E1450C7
:105FF000E552E7CFD9FF1200D9CFE6FFE1CFD9FFB5
:10600000050EE126146AFE0EDB50145C09E2FE0E5A
:10601000DB04E824300FE76E020EE7CFDBFF02D08F
:10602000020EDB6A030EDB6A0A0EF36EFD0EDBCF97
:10603000F4FFF350F45C02E2020E01D0160EE76E9C
:10604000040EE7CFDBFF030EDBCFF3FFDB2AF350B9
:10605000EA6A860FE96E000EEA22020EEF6E030E68
:10606000DBCFF3FFDB2AF350EA6A860FE96E000EFE
:10607000EA22810EEF6E030EDBCFF3FFDB2AF35033
:10608000EA6A860FE96E000EEA22FD0EDBCFEFFF13
:10609000030EDBCFE6FF020EDBCFE6FF5FDCE5524F
:1060A000E55200090BE0040EDBCFE6FF020EDBCF6A
:1060B000E6FF85DCE552E552000902E1F36A49D0CA
:1060C000040EDB5002080EE186C0DFFF010E87C020
:1060D000DBFFDECF14F0DDCF15F014C0F3FF15C0E9
:1060E000F4FF38D0030EDB6A0A0EF36E030EDBCF2B
:1060F000F4FFF350F45C27E2030EDB50E824EA6A75
:10610000860FE96E000EEA22EFCFDFFF030EDB50B1
:10611000E824010FEA6A860FE96E000EEA22010EFA
:10612000EFCFDBFF030EEA6ADB34FE0BEA36E96EE3
:10613000AC0EE926010EEA22DECFEEFFDDCFEDFF49
:10614000030EDB2AD1D79AC0CAF19BC0CBF1010E56
:10615000F36EF46A050EE15C02E2E16AE552E16E7B
:10616000E552E7CFD9FF1200D9CFE6FFE1CFD9FF43
:10617000040EE126146AFE0EDB50145C09E2FE0EEA
:10618000DB04E824300FE76E030EE7CFDBFF02D01D
:10619000030EDB6A020EDB6ADBCFF3FFDB2AF35070
:1061A000EA6A860FE96E000EEA22010EEF6E020E19
:1061B000DBCFF3FFDB2AF350EA6A860FE96E000EAD
:1061C000EA22820EEF6E020EDBCFE6FF030EDBCF7C
:1061D000E6FFAEEC2CF0E552E55200090BE0020EB2
:1061E000E66E030EDBCFE6FFDFEC2CF0E552E55266
:1061F000000903E1F36AF46A0DD086C0DFFF010EE7
:1062000087C0DBFFDECF14F0DDCF15F014C0F3FF45
:1062100015C0F4FF040EE15C02E2E16AE552E16EB2
:10622000E552E7CFD9FF1200D9CFE6FFE1CFD9FF82
:10623000020EE126030E146EFD0EDB50145C42E3E9
:10624000146AFE0EDB50145C09E2FE0EDB04E82447
:10625000300FE76E010EE7CFDBFF02D0010EDB6AE5
:10626000DF6ADF50DF2AEA6A860FE96E000EEA2253
:10627000020EEF6EDF50DF2AEA6A860FE96E000E2B
:10628000EA22830EEF6EDF50DF2AEA6A860FE96E9C
:10629000000EEA22FD0EDBCFEFFFDFCFE6FF010E9F
:1062A000DBCFE6FFAEEC2CF0E552E55200090AE048
:1062B000010EE66EDBCFE6FFDFEC2CF0E552E55297
:1062C000000902E1000E02D000018651146E020E98
