:020000040000FA
:0608000079EF61F0120027
:020806001200DE
:06080800BFEF36F0120004
:06081800B9EF38F01200F8
:02081E000100D7
:0C08200031C30000CE0100002A000000DF
:04082C000FC127F1E0
:1008300010C128F10101296B2A6B11C12BF112C1E2
:100840002CF12D6B2E6B13C12FF114C130F1316BD4
:10085000326B15C133F116C134F1356B366B17C1EC
:1008600037F118C138F1396B3A6B19C13BF11AC134
:100870003CF13D6B3E6B1BC13FF11CC140F1416B34
:10088000426B1DC143F11EC144F1456B466B120022
:100890000101010E776F786B796B7A6B27C17BF161
:1008A00028C17CF129C17DF12AC17EF17B0EE96E60
:1008B000010EEA6E030EEBCFF3FF2E51F318E8AEF4
:1008C00002D0F33408D0EE502B5DEE502C59EE5090
:1008D0002D59EE502E590DE3020E776F786B796B20
:1008E0007A6B2BC17BF12CC17CF12DC17DF12EC126
:1008F0007EF17B0EE96E010EEA6E030EEBCFF3FF85
:100900003251F318E8AE02D0F33408D0EE502F5D28
:10091000EE503059EE503159EE5032590DE3030E7E
:10092000776F786B796B7A6B2FC17BF130C17CF17B
:1009300031C17DF132C17EF17B0EE96E010EEA6EAE
:10094000030EEBCFF3FF3651F318E8AE02D0F334C9
:1009500008D0EE50335DEE503459EE503559EE501C
:1009600036590DE3040E776F786B796B7A6B33C170
:100970007BF134C17CF135C17DF136C17EF17B0E56
:10098000E96E010EEA6E030EEBCFF3FF3A51F31856
:10099000E8AE02D0F33408D0EE50375DEE5038594F
:1009A000EE503959EE503A590DE3050E776F786BDA
:1009B000796B7A6B37C17BF138C17CF139C17DF13C
:1009C0003AC17EF17B0EE96E010EEA6E030EEBCFAB
:1009D000F3FF3E51F318E8AE02D0F33408D0EE50E6
:1009E0003B5DEE503C59EE503D59EE503E590DE303
:1009F000060E776F786B796B7A6B3BC17BF13CC1EC
:100A00007CF13DC17DF13EC17EF17B0EE96E010EB0
:100A1000EA6E030EEBCFF3FF4251F318E8AE02D0BB
:100A2000F33408D0EE503F5DEE504059EE5041593E
:100A3000EE5042590DE3070E776F786B796B7A6B46
:100A40003FC17BF140C17CF141C17DF142C17EF1EA
:100A50007B0EE96E010EEA6E030EEBCFF3FF4651FB
:100A6000F318E8AE02D0F33408D0EE50435DEE50F8
:100A70004459EE504559EE5046590DE3080E776F34
:100A8000786B796B7A6B43C17BF144C17CF145C1D2
:100A90007DF146C17EF17E35000E7E1909E6D880D3
:100AA000640E7B55000E7C55000E7D55000E7E5564
:100AB00008E3776B786B796B7A6B7B6B7C6B7D6B08
:100AC0007E6B1200010E0101771917E1785115E1D3
:100AD000795113E17A5111E12BC16BF12CC16CF109
:100AE0002DC16DF12EC16EF143C153F144C154F1DA
:100AF00045C155F146C156F1BED0020E771917E136
:100B0000785115E1795113E17A5111E12FC16BF15F
:100B100030C16CF131C16DF132C16EF127C153F1B9
:100B200028C154F129C155F12AC156F1A4D0030EB0
:100B3000771917E1785115E1795113E17A5111E1F3
:100B400033C16BF134C16CF135C16DF136C16EF159
:100B50002BC153F12CC154F12DC155F12EC156F1C9
:100B60008AD0040E771917E1785115E1795113E114
:100B70007A5111E137C16BF138C16CF139C16DF1B6
:100B80003AC16EF12FC153F130C154F131C155F169
:100B900032C156F170D0050E771917E1785115E181
:100BA000795113E17A5111E13BC16BF13CC16CF118
:100BB0003DC16DF13EC16EF133C153F134C154F109
:100BC00035C155F136C156F156D0060E771917E1E9
:100BD000785115E1795113E17A5111E13FC16BF17F
:100BE00040C16CF141C16DF142C16EF137C153F1A9
:100BF00038C154F139C155F13AC156F13CD0070E14
:100C0000771917E1785115E1795113E17A5111E122
:100C100043C16BF144C16CF145C16DF146C16EF148
:100C20003BC153F13CC154F13DC155F13EC156F1B8
:100C300022D0080E771917E1785115E1795113E1A7
:100C40007A5111E127C16BF128C16CF129C16DF115
:100C50002AC16EF13FC153F140C154F141C155F178
:100C600042C156F108D06B6B6C6B6D6B6E6B536B46
:100C7000546B556B566B530EE96E010EEA6E6B5159
:100C8000EE24146E6C51EE20156E6D51EE20166E32
:100C90006E51EE20176ED890E850000A08E6520E0A
:100CA000145C030E1558000E1658000E175807E373
:100CB000010E676F686B696B6A6BE66E12D06B51E1
:100CC0006C116D116E1107E15351541155115611EC
:100CD00002E1676B02D0020E676F686B696B6A6B2B
:100CE000E66AE66A7BEC40F0E552E5521200010E3E
:100CF000010177190CE178510AE1795108E17A5143
:100D000006E10001B86BB96BBA6BBB6B7ED2020E09
:100D100077196EE178516CE179516AE17A5168E1B5
:100D2000020EE66ED3EC40F0E5520101800E86150E
:100D300011E083C114F084C115F085C116F086C19D
:100D400017F0000E146C151E1522161E1622171E03
:100D5000172209D083C114F084C115F085C116F0A3
:100D600086C117F0148E14C0B8F0800E861512E0FC
:100D700083C114F084C115F085C116F086C117F047
:100D8000000E146C151E1522161E1622171E172291
:100D9000148E08D083C114F084C115F085C116F0FB
:100DA00086C117F014C0B9F0800E861512E083C119
:100DB00014F084C115F085C116F086C117F0000E3D
:100DC000146C151E1522161E1622171E1722148EBD
:100DD00008D083C114F084C115F085C116F086C116
:100DE00017F014C0BAF0800E861501E0E5D0F5D0FA
:100DF000030E77196EE178516CE179516AE17A510D
:100E000068E1020EE66ED3EC40F0E5520101800E7F
:100E1000861511E083C114F084C115F085C116F068
:100E200086C117F0000E146C151E1522161E162210
:100E3000171E172209D083C114F084C115F085C193
:100E400016F086C117F0148E14C0B8F0800E861507
:100E500012E083C114F084C115F085C116F086C17B
:100E600017F0000E146C151E1522161E1622171EE2
:100E70001722148E08D083C114F084C115F085C1E7
:100E800016F086C117F014C0B9F0800E861512E076
:100E900083C114F084C115F085C116F086C117F026
:100EA000000E146C151E1522161E1622171E172270
:100EB000148E08D083C114F084C115F085C116F0DA
:100EC00086C117F014C0BAF0800E861501E185D0F6
:100ED00073D0040E771901E089D0785101E086D0F3
:100EE000795101E083D07A5101E080D0020EE66EA4
:100EF000D3EC40F0E5520101800E861511E083C16C
:100F000014F084C115F085C116F086C117F0000EEB
:100F1000146C151E1522161E1622171E172209D034
:100F200083C114F084C115F085C116F086C117F095
:100F3000148E14C0B8F0800E861512E083C114F030
:100F400084C115F085C116F086C117F0000E146C2F
:100F5000151E1522161E1622171E1722148E08D0D3
:100F600083C114F084C115F085C116F086C117F055
:100F700014C0B9F0800E861512E083C114F084C14C
:100F800015F085C116F086C117F0000E146C151E01
:100F90001522161E1622171E1722148E08D083C182
:100FA00014F084C115F085C116F086C117F014C085
:100FB000BAF0800E861511E083C114F084C115F0DB
:100FC00085C116F086C117F0000E146C151E15228F
:100FD000161E1622171E172216D183C114F084C1C3
:100FE00015F085C116F086C117F003D1050E7719EB
:100FF0000CE178510AE1795108E17A5106E1020EDB
:10100000E66ED3EC40F0E5521200060E77196EE161
:1010100078516CE179516AE17A5168E1020EE66E2D
:10102000D3EC40F0E5520101800E861512E083C139
:1010300014F084C115F085C116F086C117F0000EBA
:10104000146C151E1522161E1622171E1722148E3A
:1010500008D083C114F084C115F085C116F086C193
:1010600017F014C0B8F0800E861511E083C114F09B
:1010700084C115F085C116F086C117F0000E146CFE
:10108000151E1522161E1622171E172209D083C1FF
:1010900014F084C115F085C116F086C117F0148EC6
:1010A00014C0B9F0800E861511E083C114F084C11C
:1010B00015F085C116F086C117F0000E146C151ED0
:1010C0001522161E1622171E172209D083C114F0EE
:1010D00084C115F085C116F086C117F0148E14C0B6
:1010E000BAF0800E861501E186D073D0070E77190D
:1010F00001E08DD0785101E08AD0795101E087D0AC
:101100007A5101E084D0020EE66ED3EC40F0E55255
:101110000101800E861512E083C114F084C115F020
:1011200085C116F086C117F0000E146C151E15222D
:10113000161E1622171E1722148E08D083C114F013
:1011400084C115F085C116F086C117F014C0B8F03F
:10115000800E861511E083C114F084C115F085C19D
:1011600016F086C117F0000E146C151E1522161EFF
:101170001622171E172209D083C114F084C115F05E
:1011800085C116F086C117F0148E14C0B9F0800E18
:10119000861511E083C114F084C115F085C116F0E5
:1011A00086C117F0000E146C151E1522161E16228D
:1011B000171E172209D083C114F084C115F085C110
:1011C00016F086C117F0148E14C0BAF0800E861582
:1011D00012E083C114F084C115F085C116F086C1F8
:1011E00017F0000E146C151E1522161E1622171E5F
:1011F0001722148E08D083C114F084C115F085C164
:1012000016F086C117F014C0BBF067EF45F0080E6A
:10121000771901E08DD0785101E08AD0795101E051
:1012200087D07A5101E084D0020EE66ED3EC40F014
:10123000E5520101800E861512E083C114F084C1CD
:1012400015F085C116F086C117F0000E146C151E3E
:101250001522161E1622171E1722148E08D083C1BF
:1012600014F084C115F085C116F086C117F014C0C2
:10127000B8F0800E861511E083C114F084C115F01A
:1012800085C116F086C117F0000E146C151E1522CC
:10129000161E1622171E172209D083C114F084C10E
:1012A00015F085C116F086C117F0148E14C0B9F080
:1012B000800E861511E083C114F084C115F085C13C
:1012C00016F086C117F0000E146C151E1522161E9E
:1012D0001622171E172209D083C114F084C115F0FD
:1012E00085C116F086C117F0148E14C0BAF0800EB6
:1012F000861512E083C114F084C115F085C116F083
:1013000086C117F0000E146C151E1522161E16222B
:10131000171E1722148E08D083C114F084C115F053
:1013200085C116F086C117F014C0BBF067EC45F01C
:101330001200010E0101771907E1785105E1795199
:1013400003E17A5101E1C7D2020E771968E17851C1
:1013500066E1795164E17A5162E1800E861511E00F
:1013600083C114F084C115F085C116F086C117F051
:10137000000E146C151E1522161E1622171E17229B
:1013800009D083C114F084C115F085C116F086C15F
:1013900017F0148E14C0B8F0800E861512E083C1C9
:1013A00014F084C115F085C116F086C117F0000E47
:1013B000146C151E1522161E1622171E1722148EC7
:1013C00008D083C114F084C115F085C116F086C120
:1013D00017F014C0B9F0800E861512E083C114F026
:1013E00084C115F085C116F086C117F0000E146C8B
:1013F000151E1522161E1622171E1722148E08D02F
:1014000083C114F084C115F085C116F086C117F0B0
:1014100014C0BAF0800E861501E0D9D0E9D0030ED1
:10142000771968E1785166E1795164E17A5162E1B6
:10143000800E861511E083C114F084C115F085C1BA
:1014400016F086C117F0000E146C151E1522161E1C
:101450001622171E172209D083C114F084C115F07B
:1014600085C116F086C117F0148E14C0B8F0800E36
:10147000861512E083C114F084C115F085C116F001
:1014800086C117F0000E146C151E1522161E1622AA
:10149000171E1722148E08D083C114F084C115F0D2
:1014A00085C116F086C117F014C0B9F0800E8615FC
:1014B00012E083C114F084C115F085C116F086C115
:1014C00017F0000E146C151E1522161E1622171E7C
:1014D0001722148E08D083C114F084C115F085C181
:1014E00016F086C117F014C0BAF0800E861501E11F
:1014F0007FD06DD0040E771901E083D0785101E0E0
:1015000080D0795101E07DD07A5101E07AD0800E0F
:10151000861511E083C114F084C115F085C116F061
:1015200086C117F0000E146C151E1522161E162209
:10153000171E172209D083C114F084C115F085C18C
:1015400016F086C117F0148E14C0B8F0800E861500
:1015500012E083C114F084C115F085C116F086C174
:1015600017F0000E146C151E1522161E1622171EDB
:101570001722148E08D083C114F084C115F085C1E0
:1015800016F086C117F014C0B9F0800E861512E06F
:1015900083C114F084C115F085C116F086C117F01F
:1015A000000E146C151E1522161E1622171E172269
:1015B000148E08D083C114F084C115F085C116F0D3
:1015C00086C117F014C0BAF0800E861511E083C1F1
:1015D00014F084C115F085C116F086C117F0000E15
:1015E000146C151E1522161E1622171E172270D1F6
:1015F00083C114F084C115F085C116F086C117F0BF
:101600005DD1050E771907E1785105E1795103E1C4
:101610007A5101E160D1060E771968E1785166E1EF
:10162000795164E17A5162E1800E861512E083C13E
:1016300014F084C115F085C116F086C117F0000EB4
:10164000146C151E1522161E1622171E1722148E34
:1016500008D083C114F084C115F085C116F086C18D
:1016600017F014C0B8F0800E861511E083C114F095
:1016700084C115F085C116F086C117F0000E146CF8
:10168000151E1522161E1622171E172209D083C1F9
:1016900014F084C115F085C116F086C117F0148EC0
:1016A00014C0B9F0800E861511E083C114F084C116
:1016B00015F085C116F086C117F0000E146C151ECA
:1016C0001522161E1622171E172209D083C114F0E8
:1016D00084C115F085C116F086C117F0148E14C0B0
:1016E000BAF0800E861501E1EBD0D8D0070E77193D
:1016F00068E1785166E1795164E17A5162E1800EE6
:10170000861512E083C114F084C115F085C116F06E
:1017100086C117F0000E146C151E1522161E162217
:10172000171E1722148E08D083C114F084C115F03F
:1017300085C116F086C117F014C0B8F0800E86156A
:1017400011E083C114F084C115F085C116F086C183
:1017500017F0000E146C151E1522161E1622171EE9
:10176000172209D083C114F084C115F085C116F089
:1017700086C117F0148E14C0B9F0800E861511E0E2
:1017800083C114F084C115F085C116F086C117F02D
:10179000000E146C151E1522161E1622171E172277
:1017A00009D083C114F084C115F085C116F086C13B
:1017B00017F0148E14C0BAF0800E861501E180D0A7
:1017C0006DD0080E771901E086D0785101E083D002
:1017D000795101E080D07A5101E07DD0800E8615EC
:1017E00012E083C114F084C115F085C116F086C1E2
:1017F00017F0000E146C151E1522161E1622171E49
:101800001722148E08D083C114F084C115F085C14D
:1018100016F086C117F014C0B8F0800E861511E0DE
:1018200083C114F084C115F085C116F086C117F08C
:10183000000E146C151E1522161E1622171E1722D6
:1018400009D083C114F084C115F085C116F086C19A
:1018500017F0148E14C0B9F0800E861511E083C104
:1018600014F084C115F085C116F086C117F0000E82
:10187000146C151E1522161E1622171E172209D0CB
:1018800083C114F084C115F085C116F086C117F02C
:10189000148E14C0BAF0800E861512E083C114F0C5
:1018A00084C115F085C116F086C117F0000E146CC6
:1018B000151E1522161E1622171E1722148E08D06A
:1018C00083C114F084C115F085C116F086C117F0EC
:1018D00014C0BBF005D00001B86BB96BBA6BBB6B21
:1018E00067EF45F0D9CFE6FFE1CFD9FF180EE1262B
:1018F0000101BA0E836F846985698669E20E876F7C
:10190000886989698A69E66AE0EC4CF0E552F3CFB0
:1019100057F1F4CF58F10101596B5A6B636B646B4B
:10192000656B666B5F6B606B616B626B8B6B8C6BFB
:101930008D6B8E6B190EE66E010EE66ED3EC4AF0DF
:10194000E552E552010E0618F5E10750F3E10850A3
:10195000F1E10950EFE1E66AD3EC40F0E552010E07
:10196000E66ED3EC40F0E552E66AE0EC4CF0E5526E
:10197000F3CF5BF1F4CF5CF101015D6B5E6B570E51
:10198000E96E010EEA6EEE505B5D5F6FEE505C59E2
:10199000606FEE505D59616FEE505E59626FD89086
:1019A0006251000A08E6B40E5F5D000E6059000E39
:1019B0006159000E625908E3680E5F5F010E605BBB
:1019C000000E615B625B15D06235FF0E621909E69D
:1019D000D8804C0E5F55FF0E6055FF0E6155FF0E0F
:1019E000625507E3680E5F27010E6023000E612336
:1019F0006223D8906251000A08E65A0E5F5D000E1D
:101A00006059000E6159000E625924E36235000EE0
:101A1000621909E6D880B40E5F55000E6055000EBD
:101A20006155000E625516E35FC106F060C107F014
:101A300061C108F062C109F089EC5DF007C014F0E3
:101A400008C015F009C016F00AC017F0330E0C6E6E
:101A50000D6E4ED0D8906251000A08E62D0E5F5DE3
:101A6000000E6059000E6159000E625910E3623594
:101A7000000E621909E6D8805A0E5F55000E6055B7
:101A8000000E6155000E625502E3370E65D0D89006
:101A90006251000A08E6190E5F5D000E6059000EE3
:101AA0006159000E62593CE36235000E621909E685
:101AB000D8802D0E5F55000E6055000E6155000E4A
:101AC00062552EE35FC106F060C107F061C108F006
:101AD00062C109F089EC5DF007C014F008C015F090
:101AE00009C016F00AC017F0330E0C6E0D6E930E7F
:101AF0000E6E3F0E0F6E14C007F015C008F016C032
:101B000009F017C00AF0A2EC5DF0BDEC5EF006C073
:101B100063F107C064F108C065F109C066F120D027
:101B2000D8906251000A08E60A0E5F5D000E605907
:101B3000000E6159000E625913E36235000E6219FE
:101B400009E6D880190E5F55000E6055000E6155EC
:101B5000000E625505E3170E636F646B656B666B71
:101B6000D88001016251FF0A08E64C0E5F5DFF0E4E
:101B70006059FF0E6159FF0E625924E36235FF0E72
:101B8000621909E6D880A60E5F55FF0E6055FF0E5C
:101B90006155FF0E625516E35FC106F060C107F0A4
:101BA00061C108F062C109F089EC5DF007C014F072
:101BB00008C015F009C016F00AC017F0330E0C6EFD
:101BC0000D6E4ED0D8806251FF0A08E6A60E5F5D0A
:101BD000FF0E6059FF0E6159FF0E625910E3623526
:101BE000FF0E621909E6D880D30E5F55FF0E6055CF
:101BF000FF0E6155FF0E625502E3C90E65D0D88015
:101C00006251FF0A08E6D30E5F5DFF0E6059FF0EBA
:101C10006159FF0E62593CE36235FF0E621909E615
:101C2000D880E70E5F55FF0E6055FF0E6155FF0E21
:101C300062552EE35FC106F060C107F061C108F094
:101C400062C109F089EC5DF007C014F008C015F01E
:101C500009C016F00AC017F0330E0C6E0D6E930E0D
:101C60000E6E3F0E0F6E14C007F015C008F016C0C0
:101C700009F017C00AF0A2EC5DF0BDEC5EF006C002
:101C800063F107C064F108C065F109C066F120D0B6
:101C9000D8806251FF0A08E6E70E5F5DFF0E6059CB
:101CA000FF0E6159FF0E625913E36235FF0E621990
:101CB00009E6D880F60E5F55FF0E6055FF0E6155A0
:101CC000FF0E625505E3E90E636F64696569666935
:101CD000100EDBCF1CF0110EDBCF1DF01E6A1F6A49
:101CE0001DAE02D01E681F68010163511C5C186E96
:101CF00064511D58196E65511E581A6E66511F5851
:101D00001B6E18C006F019C007F01AC008F0096E63
:101D100089EC5DF007C014F008C015F009C016F09A
:101D20000AC017F0CD0E0C6ECC0E0D6E0E6E3D0E71
:101D30000F6EA2EC5DF08EEC5EF0120E08C0DBFFC1
:101D4000130E09C0DBFF120EDBCF14F0130EDBCF36
:101D500015F0166A176A15AE02D016681768630E7A
:101D6000E96E010EEA6E1450EE5C0101636F1550CE
:101D7000EE58646F1650EE58656F1750EE58666F48
:101D8000D8906251000A08E6110E5F5D000E60599E
:101D9000000E6159000E62590FE26235FF0E6219A2
:101DA00009E6D880EF0E5F55FF0E6055FF0E6155B6
:101DB000FF0E625501E27ED0800E661512E063C10F
:101DC00014F064C115F065C116F066C117F0000E7D
:101DD000146C151E1522161E1622171E1722148E9D
:101DE00008D063C114F064C115F065C116F066C176
:101DF00017F014C0B8F0800E661511E063C114F03E
:101E000064C115F065C116F066C117F0000E146CC0
:101E1000151E1522161E1622171E172209D063C181
:101E200014F064C115F065C116F066C117F0148E88
:101E300014C0B9F0800E661512E063C114F064C1DD
:101E400015F065C116F066C117F0000E146C151E72
:101E50001522161E1622171E1722148E08D063C1D3
:101E600014F064C115F065C116F066C117F014C016
:101E7000BAF0800E661511E063C114F064C115F06C
:101E800065C116F066C117F0000E146C151E152200
:101E9000161E1622171E172209D063C114F064C142
:101EA00015F065C116F066C117F0148E14C0BBF0B2
:101EB00067EC45F0100E63C1DBFF110E64C1DBFF60
:101EC000050EE66E010EE66ED3EC4AF0E552E552E1
:101ED000D8900950000A08E6320E065C000E07583A
:101EE000000E0858000E095806E3010EF36E040EAA
:101EF000F3CFDBFF02D0040EDB6A050EDB6A110EA6
:101F0000E66E010EE66ED3EC4AF0E552E552D8904B
:101F10000950000A08E6320E065C000E0758000E53
:101F20000858000E095806E3010EF36E060EF3CFB3
:101F3000DBFF02D0060EDB6A070EDB6A010EE66EDF
:101F4000E66ED3EC4AF0E552E552D8900950000A0B
:101F500008E6320E065C000E0758000E0858000E08
:101F6000095806E3010EF36E080EF3CFDBFF02D033
:101F7000080EDB6A090EDB6A0B0EE66E010EE66EDA
:101F8000D3EC4AF0E552E552D8900950000A08E631
:101F9000320E065C000E0758000E0858000E095855
:101FA00006E3010EF36E0A0EF3CFDBFF02D00A0E3A
:101FB000DB6A0B0EDB6AD950040FE96EDACFEAFF59
:101FC000010EEE1827E1ED5025E1D950060FE96E1C
:101FD000DACFEAFFEE50ED101DE1D950080FE96E9F
:101FE000DACFEAFFEE50ED1015E1D9500A0FE96E95
:101FF000DACFEAFFEE50ED100DE1160EDB6A170E98
:10200000DB6A010EF36E0C0EF3CFDBFF0D0EDB6A05
:10201000010E84D2D950040FE96EDACFEAFFEE50F8
:10202000ED1027E1D950060FE96EDACFEAFF010E75
:10203000EE181FE1ED501DE1D950080FE96EDACF1F
:10204000EAFFEE50ED1015E1D9500A0FE96EDACF34
:10205000EAFFEE50ED100DE1160EDB6A170EDB6A9B
:10206000020EF36E0C0EF3CFDBFF0D0EDB6A020ED9
:1020700055D2D950040FE96EDACFEAFF010EEE18FF
:1020800027E1ED5025E1D950060FE96EDACFEAFFDE
:10209000010EEE181DE1ED501BE1D950080FE96E5D
:1020A000DACFEAFFEE50ED1013E1D9500A0FE96ED6
:1020B000DACFEAFFEE50ED100BE1160EDB6A170ED9
:1020C000DB6A0C0EF36EDB6E0D0EDB6A0C0E26D295
:1020D000D950040FE96EDACFEAFFEE50ED1027E198
:1020E000D950060FE96EDACFEAFFEE50ED101FE18E
:1020F000D950080FE96EDACFEAFF010EEE1817E1AA
:10210000ED5015E1D9500A0FE96EDACFEAFFEE5033
:10211000ED100DE1160EDB6A170EDB6A030EF36E8F
:102120000C0EF3CFDBFF0D0EDB6A030EF7D1D95097
:10213000040FE96EDACFEAFF010EEE1828E1ED5048
:1021400026E1D950060FE96EDACFEAFFEE50ED1026
:102150001EE1D950080FE96EDACFEAFF010EEE1842
:1021600016E1ED5014E1D9500A0FE96EDACFEAFF1B
:10217000EE50ED100CE1160EDB6A170EDB6A0D0E49
:10218000F36E0C0EF3CFDBFF0D0EDB6AC7D1D95017
:10219000040FE96EDACFEAFFEE50ED1028E1D950D6
:1021A000060FE96EDACFEAFF010EEE1820E1ED50DE
:1021B0001EE1D950080FE96EDACFEAFF010EEE18E2
:1021C00016E1ED5014E1D9500A0FE96EDACFEAFFBB
:1021D000EE50ED100CE1160EDB6A170EDB6AF36EA3
:1021E0000C0EF3CFDBFF0D0EDB6A170E97D1D95023
:1021F000040FE96EDACFEAFF010EEE182BE1ED5085
:1022000029E1D950060FE96EDACFEAFF010EEE1888
:1022100021E1ED501FE1D950080FE96EDACFEAFF56
:10222000010EEE1817E1ED5015E1D9500A0FE96ED5
:10223000DACFEAFFEE50ED100DE1160EDB6A170E55
:10224000DB6A7B0EF36E0C0EF3CFDBFF0D0EDB6A49
:102250007B0E64D1D950040FE96EDACFEAFFEE505D
:10226000ED1027E1D950060FE96EDACFEAFFEE5004
:10227000ED101FE1D950080FE96EDACFEAFFEE50FA
:10228000ED1017E1D9500A0FE96EDACFEAFF010E1F
:10229000EE180FE1ED500DE1160EDB6A170EDB6A4A
:1022A000040EF36E0C0EF3CFDBFF0D0EDB6A040E93
:1022B00035D1D950040FE96EDACFEAFF010EEE18DE
:1022C0002AE1ED5028E1D950060FE96EDACFEAFF96
:1022D000EE50ED1020E1D950080FE96EDACFEAFF99
:1022E000EE50ED1018E1D9500A0FE96EDACFEAFF8F
:1022F000010EEE1810E1ED500EE1160EDB6A170E1E
:10230000DB6A0E0EF36E0C0EF3CFDBFF0D0EDB6AF5
:102310000E0EF36E05D1D950040FE96EDACFEAFF45
:10232000EE50ED102CE1D950060FE96EDACFEAFF3E
:10233000010EEE1824E1ED5022E1D950080FE96EAC
:10234000DACFEAFFEE50ED101AE1D9500A0FE96E2C
:10235000DACFEAFF010EEE1812E1ED5010E1010EA6
:10236000F36E160EF3CFDBFF170EDB6A180EF36E5B
:102370000C0EF3CFDBFF0D0EDB6A180ECFD0D95059
:10238000040FE96EDACFEAFF010EEE182EE1ED50F0
:102390002CE1D950060FE96EDACFEAFF010EEE18F4
:1023A00024E1ED5022E1D950080FE96EDACFEAFFBF
:1023B000EE50ED101AE1D9500A0FE96EDACFEAFFBC
:1023C000010EEE1812E1ED5010E1010EF36E160E43
:1023D000F3CFDBFF170EDB6A7C0EF36E0C0EF3CF30
:1023E000DBFF0D0EDB6A7C0E99D0D950040FE96E2D
:1023F000DACFEAFFEE50ED1029E1D950060FE96E71
:10240000DACFEAFFEE50ED1021E1D950080FE96E66
:10241000DACFEAFF010EEE1819E1ED5017E1D950BD
:102420000A0FE96EDACFEAFF010EEE180FE1ED5068
:102430000DE1160EDB6A170EDB6A220EF36E0C0E30
:10244000F3CFDBFF0D0EDB6A220E68D0D950040FEC
:10245000E96EDACFEAFF010EEE182BE1ED5029E12B
:10246000D950060FE96EDACFEAFFEE50ED1021E108
:10247000D950080FE96EDACFEAFF010EEE1819E124
:10248000ED5017E1D9500A0FE96EDACFEAFF010EDD
:10249000EE180FE1ED500DE1160EDB6A170EDB6A48
:1024A000860EF36E0C0EF3CFDBFF0D0EDB6A860E8D
:1024B00035D0D950040FE96EDACFEAFFEE50ED10B7
:1024C00033E1D950060FE96EDACFEAFF010EEE18BC
:1024D0002BE1ED5029E1D950080FE96EDACFEAFF80
:1024E000010EEE1821E1ED501FE1D9500A0FE96EFF
:1024F000DACFEAFF010EEE1817E1ED5015E1010EFB
:10250000F36E160EF3CFDBFF170EDB6AEA0EF36EE7
:102510000C0EF3CFDBFF0D0EDB6AEA0EF36E0E0E30
:10252000F3CFDBFF0F0E48D0D950040FE96EDACF9E
:10253000EAFF010EEE1839E1ED5037E1D950060FF0
:10254000E96EDACFEAFF010EEE182FE1ED502DE132
:10255000D950080FE96EDACFEAFF010EEE1825E137
:10256000ED5023E1D9500A0FE96EDACFEAFF010EF0
:10257000EE181BE1ED5019E1160EDB6A170EDB6A4F
:10258000D20EF36E0C0EF3CFDBFF040EF36E0D0EC6
:10259000F3CFDBFFD20EF36E0E0EF3CFDBFF040E94
:1025A000F36E0F0EF3CFDBFF08D0160EDB6A170EAB
:1025B000DB6A0C0EDB6A0D0EDB6A16EC04F048ECED
:1025C00004F062EC05F001016751681169116A11AC
:1025D00002E028EF1CF0E66A010EE66E7BEC40F0AC
:1025E000E552E552E66AE66A7BEC40F0E552E552D8
:1025F000D9500C0FE96EDACFEAFF180EEE1812E18F
:10260000ED5010E1140EDB6A150EDB6A010EE66E6A
:10261000D3EC40F0E5520001B86BB96BBA6BBB6B01
:10262000BBEF36F0D9500C0FE96EDACFEAFF7C0E23
:10263000EE186CE1ED506AE1010EE66ED3EC40F06D
:10264000E5520101800E8A1512E087C114F088C19D
:1026500015F089C116F08AC117F0000E146C151E12
:102660001522161E1622171E1722148E08D087C197
:1026700014F088C115F089C116F08AC117F014C092
:10268000B8F0800E8A1512E087C114F088C115F0E9
:1026900089C116F08AC117F0000E146C151E1522A0
:1026A000161E1622171E1722148E08D087C114F08A
:1026B00088C115F089C116F08AC117F014C0B9F0AD
:1026C000800E8A1512E087C114F088C115F089C107
:1026D00016F08AC117F0000E146C151E1522161E76
:1026E0001622171E1722148E08D087C114F088C135
:1026F00015F089C116F08AC117F014C0BAF0800E27
:102700008A1502E1E0EF32F0D7EF32F0D9500C0F2A
:10271000E96EDACFEAFFEA0EEE186CE1ED506AE1FD
:10272000010EE66ED3EC40F0E5520101800E8A15F1
:1027300011E087C114F088C115F089C116F08AC173
:1027400017F0000E146C151E1522161E1622171EE9
:10275000172209D087C114F088C115F089C116F07D
:102760008AC117F0148E14C0B8F0800E8A1511E0DB
:1027700087C114F088C115F089C116F08AC117F01D
:10278000000E146C151E1522161E1622171E172277
:1027900009D087C114F088C115F089C116F08AC12B
:1027A00017F0148E14C0B9F0800E8A1511E087C19D
:1027B00014F088C115F089C116F08AC117F0000E17
:1027C000146C151E1522161E1622171E172209D06C
:1027D00087C114F088C115F089C116F08AC117F0BD
:1027E000148E14C0BAF0800E8A1502E09FEF36F006
:1027F000B0EF36F0D9500C0FE96EDACFEAFF170EC2
:10280000EE186CE1ED506AE1010EE66ED3EC40F09B
:10281000E5520101800E861511E083C114F084C1D8
:1028200015F085C116F086C117F0000E146C151E48
:102830001522161E1622171E172209D083C114F066
:1028400084C115F085C116F086C117F0148E14C02E
:10285000B8F0800E861512E083C114F084C115F023
:1028600085C116F086C117F0000E146C151E1522D6
:10287000161E1622171E1722148E08D083C114F0BC
:1028800084C115F085C116F086C117F014C0B9F0E7
:10289000800E861512E083C114F084C115F085C145
:1028A00016F086C117F0000E146C151E1522161EA8
:1028B0001622171E1722148E08D083C114F084C16B
:1028C00015F085C116F086C117F014C0BAF0800E5D
:1028D000861502E097EF35F0A0EF35F0D9500C0FD8
:1028E000E96EDACFEAFF220EEE186CE1ED506AE1F4
:1028F000010EE66ED3EC40F0E5520101800E861524
:1029000012E083C114F084C115F085C116F086C1B0
:1029100017F0000E146C151E1522161E1622171E17
:102920001722148E08D083C114F084C115F085C11C
:1029300016F086C117F014C0B8F0800E861511E0AD
:1029400083C114F084C115F085C116F086C117F05B
:10295000000E146C151E1522161E1622171E1722A5
:1029600009D083C114F084C115F085C116F086C169
:1029700017F0148E14C0B9F0800E861511E083C1D3
:1029800014F084C115F085C116F086C117F0000E51
:10299000146C151E1522161E1622171E172209D09A
:1029A00083C114F084C115F085C116F086C117F0FB
:1029B000148E14C0BAF0800E861502E127EF36F0AF
:1029C00016EF36F0D9500C0FE96EDACFEAFF0D0E94
:1029D000EE186CE1ED506AE1010EE66ED3EC40F0CA
:1029E000E5520101800E8A1512E087C114F088C1FA
:1029F00015F089C116F08AC117F0000E146C151E6F
:102A00001522161E1622171E1722148E08D087C1F3
:102A100014F088C115F089C116F08AC117F014C0EE
:102A2000B8F0800E8A1512E087C114F088C115F045
:102A300089C116F08AC117F0000E146C151E1522FC
:102A4000161E1622171E1722148E08D087C114F0E6
:102A500088C115F089C116F08AC117F014C0B9F009
:102A6000800E8A1512E087C114F088C115F089C163
:102A700016F08AC117F0000E146C151E1522161ED2
:102A80001622171E1722148E08D087C114F088C191
:102A900015F089C116F08AC117F014C0BAF0800E83
:102AA0008A1502E046EF32F058EF32F0D9500C0FA1
:102AB000E96EDACFEAFF010EEE1801E002D1ED5027
:102AC00001E0FFD0010EE66EECEC40F0E552DC0ECA
:102AD000065C050E0758000E0858000E09580AE358
:102AE000010E010177196BE1785169E1795167E1D4
:102AF0007A5165E10101800E8A1512E087C114F058
:102B000088C115F089C116F08AC117F0000E146C47
:102B1000151E1522161E1622171E1722148E08D0F7
:102B200087C114F088C115F089C116F08AC117F069
:102B300014C0B8F0800E8A1512E087C114F088C165
:102B400015F089C116F08AC117F0000E146C151E1D
:102B50001522161E1622171E1722148E08D087C1A2
:102B600014F088C115F089C116F08AC117F014C09D
:102B7000B9F0800E8A1512E087C114F088C115F0F3
:102B800089C116F08AC117F0000E146C151E1522AB
:102B9000161E1622171E1722148E08D087C114F095
:102BA00088C115F089C116F08AC117F014C0BAF0B7
:102BB000800E8A1502E1E0EF32F0D7EF32F000012B
:102BC000B86BB96BBA6BBB6B67EC45F00A0EE66E7F
:102BD000E66A8DEC3CF0E552E5520001800EB86FDC
:102BE000B96FBA6FBB6F67EC45F0140EE66EE66A1C
:102BF0008DEC3CF0E552E5520101800E861511E0A6
:102C000083C114F084C115F085C116F086C117F098
:102C1000000E146C151E1522161E1622171E1722E2
:102C200009D083C114F084C115F085C116F086C1A6
:102C300017F0148E14C0B8F0800E861511E083C111
:102C400014F084C115F085C116F086C117F0000E8E
:102C5000146C151E1522161E1622171E172209D0D7
:102C600083C114F084C115F085C116F086C117F038
:102C7000148E14C0B9F0800E861511E083C114F0D3
:102C800084C115F085C116F086C117F0000E146CD2
:102C9000151E1522161E1622171E172209D083C1D3
:102CA00014F084C115F085C116F086C117F0148E9A
:102CB00014C0BAF0800E861502E09FEF2CF0B0EF42
:102CC0002CF0D9500C0FE96EDACFEAFF020EEE18A5
:102CD00001E0F8D0ED5001E0F5D0010EE66EECEC2D
:102CE00040F0E552DC0E065C050E0758000E085851
:102CF000000E095865E20101800E861511E083C1BE
:102D000014F084C115F085C116F086C117F0000ECD
:102D1000146C151E1522161E1622171E172209D016
:102D200083C114F084C115F085C116F086C117F077
:102D3000148E14C0B8F0800E861512E083C114F012
:102D400084C115F085C116F086C117F0000E146C11
:102D5000151E1522161E1622171E1722148E08D0B5
:102D600083C114F084C115F085C116F086C117F037
:102D700014C0B9F0800E861512E083C114F084C12E
:102D800015F085C116F086C117F0000E146C151EE3
:102D90001522161E1622171E1722148E08D083C164
:102DA00014F084C115F085C116F086C117F014C067
:102DB000BAF0800E861502E1A0EF35F097EF35F0FE
:102DC0000001B86BB96BBA6BBB6B67EC45F00A0ED0
:102DD000E66EE66A8DEC3CF0E552E5520001800EAD
:102DE000B86FB96FBA6FBB6F67EC45F0140EE66E43
:102DF000E66A8DEC3CF0E552E5520101800E861545
:102E000012E083C114F084C115F085C116F086C1AB
:102E100017F0000E146C151E1522161E1622171E12
:102E20001722148E08D083C114F084C115F085C117
:102E300016F086C117F014C0B8F0800E861511E0A8
:102E400083C114F084C115F085C116F086C117F056
:102E5000000E146C151E1522161E1622171E1722A0
:102E600009D083C114F084C115F085C116F086C164
:102E700017F0148E14C0B9F0800E861511E083C1CE
:102E800014F084C115F085C116F086C117F0000E4C
:102E9000146C151E1522161E1622171E172209D095
:102EA00083C114F084C115F085C116F086C117F0F6
:102EB000148E14C0BAF0800E861502E101EF2CF0DA
:102EC000F0EF2BF0D9500C0FE96EDACFEAFF030ECA
:102ED000EE1801E067D1ED5001E064D1010EE66E1D
:102EE000ECEC40F0E552DC0E065C050E0758000ED7
:102EF0000858000E095865E20101800E8A1511E09C
:102F000087C114F088C115F089C116F08AC117F085
:102F1000000E146C151E1522161E1622171E1722DF
:102F200009D087C114F088C115F089C116F08AC193
:102F300017F0148E14C0B8F0800E8A1511E087C106
:102F400014F088C115F089C116F08AC117F0000E7F
:102F5000146C151E1522161E1622171E172209D0D4
:102F600087C114F088C115F089C116F08AC117F025
:102F7000148E14C0B9F0800E8A1511E087C114F0C8
:102F800088C115F089C116F08AC117F0000E146CC3
:102F9000151E1522161E1622171E172209D087C1CC
:102FA00014F088C115F089C116F08AC117F0148E8B
:102FB00014C0BAF0800E8A1502E09FEF36F0B0EF31
:102FC00036F0D950140FE96EDACFEAFF010EEE1891
:102FD00067E1ED5065E10101800E8A1511E087C1BE
:102FE00014F088C115F089C116F08AC117F0000EDF
:102FF000146C151E1522161E1622171E172209D034
:1030000087C114F088C115F089C116F08AC117F084
:10301000148E14C0B8F0800E8A1511E087C114F028
:1030200088C115F089C116F08AC117F0000E146C22
:10303000151E1522161E1622171E172209D087C12B
:1030400014F088C115F089C116F08AC117F0148EEA
:1030500014C0B9F0800E8A1511E087C114F088C140
:1030600015F089C116F08AC117F0000E146C151EF8
:103070001522161E1622171E172209D087C114F01A
:1030800088C115F089C116F08AC117F0148E14C0DA
:10309000BAF0800E8A1502E1B0EF36F09FEF36F0FD
:1030A0000001B86BB96BBA6BBB6B67EC45F00A0EED
:1030B000E66EE66A8DEC3CF0E552E5520001800ECA
:1030C000B86FB96FBA6FBB6F67EC45F0140EE66E60
:1030D000E66A8DEC3CF0E552E5520101800E861562
:1030E00012E083C114F084C115F085C116F086C1C9
:1030F00017F0000E146C151E1522161E1622171E30
:103100001722148E08D083C114F084C115F085C134
:1031100016F086C117F014C0B8F0800E861512E0C4
:1031200083C114F084C115F085C116F086C117F073
:10313000000E146C151E1522161E1622171E1722BD
:10314000148E08D083C114F084C115F085C116F027
:1031500086C117F014C0B9F0800E861512E083C145
:1031600014F084C115F085C116F086C117F0000E69
:10317000146C151E1522161E1622171E1722148EE9
:1031800008D083C114F084C115F085C116F086C142
:1031900017F014C0BAF0800E861502E101EF2CF092
:1031A000F0EF2BF0D9500C0FE96EDACFEAFF040EE6
:1031B000EE1801E0F8D0ED5001E0F5D0010EE66E1A
:1031C000ECEC40F0E552DC0E065C050E0758000EF4
:1031D0000858000E095865E20101800E861512E0BC
:1031E00083C114F084C115F085C116F086C117F0B3
:1031F000000E146C151E1522161E1622171E1722FD
:10320000148E08D083C114F084C115F085C116F066
:1032100086C117F014C0B8F0800E861511E083C186
:1032200014F084C115F085C116F086C117F0000EA8
:10323000146C151E1522161E1622171E172209D0F1
:1032400083C114F084C115F085C116F086C117F052
:10325000148E14C0B9F0800E861511E083C114F0ED
:1032600084C115F085C116F086C117F0000E146CEC
:10327000151E1522161E1622171E172209D083C1ED
:1032800014F084C115F085C116F086C117F0148EB4
:1032900014C0BAF0800E861502E016EF36F027EF64
:1032A00036F00001B86BB96BBA6BBB6B67EC45F0DD
:1032B0000A0EE66EE66A8DEC3CF0E552E55200013E
:1032C000800EB86FB96FBA6FBB6F67EC45F0140E24
:1032D000E66EE66A8DEC3CF0E552E5520101800EA7
:1032E000861511E083C114F084C115F085C116F074
:1032F00086C117F0000E146C151E1522161E16221C
:10330000171E172209D083C114F084C115F085C19E
:1033100016F086C117F0148E14C0B8F0800E861512
:1033200012E083C114F084C115F085C116F086C186
:1033300017F0000E146C151E1522161E1622171EED
:103340001722148E08D083C114F084C115F085C1F2
:1033500016F086C117F014C0B9F0800E861512E081
:1033600083C114F084C115F085C116F086C117F031
:10337000000E146C151E1522161E1622171E17227B
:10338000148E08D083C114F084C115F085C116F0E5
:1033900086C117F014C0BAF0800E861502E09FEFC8
:1033A0002CF0B0EF2CF0D9500C0FE96EDACFEAFF19
:1033B000EE50ED1002E0B4EF0CF0010EDE6EDD6AAF
:1033C000F36E140EF3CFDBFF150EDB6A010EE66E13
:1033D000ECEC40F0E552DC0E065C050E0758000EE2
:1033E0000858000E095801E3C0D1D9500E0FE96EFC
:1033F000DACFEAFF010EEE1867E1ED5065E1010159
:10340000800E861512E083C114F084C115F085C1C9
:1034100016F086C117F0000E146C151E1522161E2C
:103420001622171E1722148E08D083C114F084C1EF
:1034300015F085C116F086C117F014C0B8F0800EE3
:10344000861512E083C114F084C115F085C116F011
:1034500086C117F0000E146C151E1522161E1622BA
:10346000171E1722148E08D083C114F084C115F0E2
:1034700085C116F086C117F014C0B9F0800E86150C
:1034800012E083C114F084C115F085C116F086C125
:1034900017F0000E146C151E1522161E1622171E8C
:1034A0001722148E08D083C114F084C115F085C191
:1034B00016F086C117F014C0BAF0800E861502E12E
:1034C00027EF36F016EF36F0D9500E0FE96EDACF4F
:1034D000EAFF020EEE1867E1ED5065E10101800E92
:1034E000861511E083C114F084C115F085C116F072
:1034F00086C117F0000E146C151E1522161E16221A
:10350000171E172209D083C114F084C115F085C19C
:1035100016F086C117F0148E14C0B8F0800E861510
:1035200012E083C114F084C115F085C116F086C184
:1035300017F0000E146C151E1522161E1622171EEB
:103540001722148E08D083C114F084C115F085C1F0
:1035500016F086C117F014C0B9F0800E861512E07F
:1035600083C114F084C115F085C116F086C117F02F
:10357000000E146C151E1522161E1622171E172279
:10358000148E08D083C114F084C115F085C116F0E3
:1035900086C117F014C0BAF0800E861502E097EFCE
:1035A00035F0A0EF35F0D9500E0FE96EDACFEAFF13
:1035B000030EEE1867E1ED5065E10101800E8615FE
:1035C00011E083C114F084C115F085C116F086C1E5
:1035D00017F0000E146C151E1522161E1622171E4B
:1035E000172209D083C114F084C115F085C116F0EB
:1035F00086C117F0148E14C0B8F0800E861511E045
:1036000083C114F084C115F085C116F086C117F08E
:10361000000E146C151E1522161E1622171E1722D8
:1036200009D083C114F084C115F085C116F086C19C
:1036300017F0148E14C0B9F0800E861511E083C106
:1036400014F084C115F085C116F086C117F0000E84
:10365000146C151E1522161E1622171E172209D0CD
:1036600083C114F084C115F085C116F086C117F02E
:10367000148E14C0BAF0800E861502E1A0EF35F06A
:1036800097EF35F0D9500E0FE96EDACFEAFF040E4E
:10369000EE1802E0B4EF0CF0ED5002E0B4EF0CF0E5
:1036A0000101800E861512E083C114F084C115F06B
:1036B00085C116F086C117F0000E146C151E152278
:1036C000161E1622171E1722148E08D083C114F05E
:1036D00084C115F085C116F086C117F014C0B8F08A
:1036E000800E861511E083C114F084C115F085C1E8
:1036F00016F086C117F0000E146C151E1522161E4A
:103700001622171E172209D083C114F084C115F0A8
:1037100085C116F086C117F0148E14C0B9F0800E62
:10372000861511E083C114F084C115F085C116F02F
:1037300086C117F0000E146C151E1522161E1622D7
:10374000171E172209D083C114F084C115F085C15A
:1037500016F086C117F0148E14C0BAF0800E8615CC
:1037600002E127EF36F016EF36F0D950140FE96E6C
:10377000DACFEAFF010EEE1802E0B4EF0CF0ED50E4
:1037800002E0B4EF0CF00101800E8A1511E087C150
:1037900014F088C115F089C116F08AC117F0000E27
:1037A000146C151E1522161E1622171E172209D07C
:1037B00087C114F088C115F089C116F08AC117F0CD
:1037C000148E14C0B8F0800E8A1511E087C114F071
:1037D00088C115F089C116F08AC117F0000E146C6B
:1037E000151E1522161E1622171E172209D087C174
:1037F00014F088C115F089C116F08AC117F0148E33
:1038000014C0B9F0800E8A1511E087C114F088C188
:1038100015F089C116F08AC117F0000E146C151E40
:103820001522161E1622171E172209D087C114F062
:1038300088C115F089C116F08AC117F0148E14C022
:10384000BAF0800E8A1502E1B0EF36F09FEF36F045
:10385000010E671902E090EF2EF0685102E090EF40
:103860002EF0695102E090EF2EF06A5102E090EFE5
:103870002EF0D9500C0FE96EDACFEAFF180EEE18D1
:1038800005E1ED5003E1140EDB6A05D0010EF36E85
:10389000140EF3CFDBFF150EDB6AE66A010EE66E4F
:1038A0007BEC40F0E552E552010EE66EE66A7BECF9
:1038B00040F0E552E55277EC06F0D9500C0FE96E76
:1038C000DACFEAFF180EEE1801E1ED5018E0D950FA
:1038D0000C0FE96EDACFEAFF7C0EEE1801E1ED5035
:1038E0000EE0D9500C0FE96EDACFEAFFEA0EEE18BF
:1038F00002E070EF25F0ED5002E070EF25F0030ECE
:10390000E66ED3EC40F0E552010E0101771905E1B6
:10391000785103E1795101E17A5111E0050E7719EF
:1039200002E0B4EF0CF0785102E0B4EF0CF0795102
:1039300002E0B4EF0CF07A5102E0B4EF0CF0D95091
:103940000C0FE96EDACFEAFF170EEE186CE1ED50BE
:103950006AE1010EE66ED3EC40F0E5520101800E03
:10396000861511E083C114F084C115F085C116F0ED
:1039700086C117F0000E146C151E1522161E162295
:10398000171E172209D083C114F084C115F085C118
:1039900016F086C117F0148E14C0B8F0800E86158C
:1039A00012E083C114F084C115F085C116F086C100
:1039B00017F0000E146C151E1522161E1622171E67
:1039C0001722148E08D083C114F084C115F085C16C
:1039D00016F086C117F014C0B9F0800E861512E0FB
:1039E00083C114F084C115F085C116F086C117F0AB
:1039F000000E146C151E1522161E1622171E1722F5
:103A0000148E08D083C114F084C115F085C116F05E
:103A100086C117F014C0BAF0800E861502E1A0EF3F
:103A200035F097EF35F0D9500C0FE96EDACFEAFF99
:103A3000220EEE186CE1ED506AE1010EE66ED3EC59
:103A400040F0E5520101800E861512E083C114F0AA
:103A500084C115F085C116F086C117F0000E146CF4
:103A6000151E1522161E1622171E1722148E08D098
:103A700083C114F084C115F085C116F086C117F01A
:103A800014C0B8F0800E861511E083C114F084C113
:103A900015F085C116F086C117F0000E146C151EC6
:103AA0001522161E1622171E172209D083C114F0E4
:103AB00084C115F085C116F086C117F0148E14C0AC
:103AC000B9F0800E861511E083C114F084C115F0A1
:103AD00085C116F086C117F0000E146C151E152254
:103AE000161E1622171E172209D083C114F084C196
:103AF00015F085C116F086C117F0148E14C0BAF007
:103B0000800E861502E127EF36F016EF36F0D95019
:103B10000C0FE96EDACFEAFF0D0EEE186CE1ED50F6
:103B20006AE1010EE66ED3EC40F0E5520101800E31
:103B30008A1512E087C114F088C115F089C116F00A
:103B40008AC117F0000E146C151E1522161E1622BF
:103B5000171E1722148E08D087C114F088C115F0E3
:103B600089C116F08AC117F014C0B8F0800E8A150A
:103B700012E087C114F088C115F089C116F08AC11E
:103B800017F0000E146C151E1522161E1622171E95
:103B90001722148E08D087C114F088C115F089C18E
:103BA00016F08AC117F014C0B9F0800E8A1512E021
:103BB00087C114F088C115F089C116F08AC117F0C9
:103BC000000E146C151E1522161E1622171E172223
:103BD000148E08D087C114F088C115F089C116F081
:103BE0008AC117F014C0BAF0800E8A1502E158EFAE
:103BF00032F046EF32F0D9500C0FE96EDACFEAFF1F
:103C0000010EEE1866E1ED5064E1800E8A1512E0B7
:103C100087C114F088C115F089C116F08AC117F068
:103C2000000E146C151E1522161E1622171E1722C2
:103C3000148E08D087C114F088C115F089C116F020
:103C40008AC117F014C0B8F0800E8A1512E087C13F
:103C500014F088C115F089C116F08AC117F0000E62
:103C6000146C151E1522161E1622171E1722148EEE
:103C700008D087C114F088C115F089C116F08AC137
:103C800017F014C0B9F0800E8A1512E087C114F045
:103C900088C115F089C116F08AC117F0000E146CA6
:103CA000151E1522161E1622171E1722148E08D056
:103CB00087C114F088C115F089C116F08AC117F0C8
:103CC00014C0BAF0800E8A1502E1E0EF32F0D7EFAF
:103CD00032F0D9500C0FE96EDACFEAFF020EEE187F
:103CE00004E1ED5002E145EF27F0D9500C0FE96EE9
:103CF000DACFEAFF030EEE1866E1ED5064E1800EC4
:103D00008A1511E087C114F088C115F089C116F039
:103D10008AC117F0000E146C151E1522161E1622ED
:103D2000171E172209D087C114F088C115F089C168
:103D300016F08AC117F0148E14C0B8F0800E8A15E0
:103D400011E087C114F088C115F089C116F08AC14D
:103D500017F0000E146C151E1522161E1622171EC3
:103D6000172209D087C114F088C115F089C116F057
:103D70008AC117F0148E14C0B9F0800E8A1511E0B4
:103D800087C114F088C115F089C116F08AC117F0F7
:103D9000000E146C151E1522161E1622171E172251
:103DA00009D087C114F088C115F089C116F08AC105
:103DB00017F0148E14C0BAF0800E8A1502E1B0EF2D
:103DC00036F09FEF36F0D9500C0FE96EDACFEAFFEC
:103DD000040EEE1804E1ED5002E1C7EF27F0D950D0
:103DE0000C0FE96EDACFEAFFEE50ED1002E0B4EF0F
:103DF0000CF0010EDE6EDD6AF36E140EF3CFDBFF06
:103E0000150EDB6A010EE66EECEC40F0E552DC0EBE
:103E1000065C050E0758000E0858000E095801E30D
:103E20002BD2D9500E0FE96EDACFEAFF010EEE1851
:103E300067E1ED5065E10101800E861512E083C156
:103E400014F084C115F085C116F086C117F0000E7C
:103E5000146C151E1522161E1622171E1722148EFC
:103E600008D083C114F084C115F085C116F086C155
:103E700017F014C0B8F0800E861512E083C114F05C
:103E800084C115F085C116F086C117F0000E146CC0
:103E9000151E1522161E1622171E1722148E08D064
:103EA00083C114F084C115F085C116F086C117F0E6
:103EB00014C0B9F0800E861512E083C114F084C1DD
:103EC00015F085C116F086C117F0000E146C151E92
:103ED0001522161E1622171E1722148E08D083C113
:103EE00014F084C115F085C116F086C117F014C016
:103EF000BAF0800E861502E127EF36F016EF36F0A5
:103F0000D9500E0FE96EDACFEAFF020EEE1867E124
:103F1000ED5065E10101800E861511E083C114F0BA
:103F200084C115F085C116F086C117F0000E146C1F
:103F3000151E1522161E1622171E172209D083C120
:103F400014F084C115F085C116F086C117F0148EE7
:103F500014C0B8F0800E861512E083C114F084C13D
:103F600015F085C116F086C117F0000E146C151EF1
:103F70001522161E1622171E1722148E08D083C172
:103F800014F084C115F085C116F086C117F014C075
:103F9000B9F0800E861512E083C114F084C115F0CB
:103FA00085C116F086C117F0000E146C151E15227F
:103FB000161E1622171E1722148E08D083C114F065
:103FC00084C115F085C116F086C117F014C0BAF08F
:103FD000800E861502E097EF35F0A0EF35F0D9504E
:103FE0000E0FE96EDACFEAFF030EEE1867E1ED502F
:103FF00065E10101800E861511E083C114F084C1D2
:1040000015F085C116F086C117F0000E146C151E50
:104010001522161E1622171E172209D083C114F06E
:1040200084C115F085C116F086C117F0148E14C036
:10403000B8F0800E861511E083C114F084C115F02C
:1040400085C116F086C117F0000E146C151E1522DE
:10405000161E1622171E172209D083C114F084C120
:1040600015F085C116F086C117F0148E14C0B9F092
:10407000800E861511E083C114F084C115F085C14E
:1040800016F086C117F0000E146C151E1522161EB0
:104090001622171E172209D083C114F084C115F00F
:1040A00085C116F086C117F0148E14C0BAF0800EC8
:1040B000861502E1A0EF35F097EF35F0D9500E0FDD
:1040C000E96EDACFEAFF040EEE1867E1ED5065E124
:1040D0000101800E861512E083C114F084C115F031
:1040E00085C116F086C117F0000E146C151E15223E
:1040F000161E1622171E1722148E08D083C114F024
:1041000084C115F085C116F086C117F014C0B8F04F
:10411000800E861511E083C114F084C115F085C1AD
:1041200016F086C117F0000E146C151E1522161E0F
:104130001622171E172209D083C114F084C115F06E
:1041400085C116F086C117F0148E14C0B9F0800E28
:10415000861511E083C114F084C115F085C116F0F5
:1041600086C117F0000E146C151E1522161E16229D
:10417000171E172209D083C114F084C115F085C120
:1041800016F086C117F0148E14C0BAF0800E861592
:1041900002E127EF36F016EF36F0D950140FE96E32
:1041A000DACFEAFF010EEE1867E1ED5065E101019B
:1041B000800E8A1511E087C114F088C115F089C1FD
:1041C00016F08AC117F0000E146C151E1522161E6B
:1041D0001622171E172209D087C114F088C115F0C6
:1041E00089C116F08AC117F0148E14C0B8F0800E81
:1041F0008A1511E087C114F088C115F089C116F045
:104200008AC117F0000E146C151E1522161E1622F8
:10421000171E172209D087C114F088C115F089C173
:1042200016F08AC117F0148E14C0B9F0800E8A15EA
:1042300011E087C114F088C115F089C116F08AC158
:1042400017F0000E146C151E1522161E1622171ECE
:10425000172209D087C114F088C115F089C116F062
:104260008AC117F0148E14C0BAF0800E8A1502E1CC
:10427000B0EF36F09FEF36F0030EE66EECEC40F058
:10428000E552D880E80E0654030E0754000E085479
:10429000000E095401E362D299EC09F0050EE66EB6
:1042A000010EE66ED3EC4AF0E552E552D890095083
:1042B000000A08E6320E065C000E0758000E085889
:1042C000000E095801E282D00001B86BB96BBA6BDD
:1042D000BB6B67EC45F00A0EE66EE66A8DEC3CF0CF
:1042E000E552E5520001800EB86FB96FBA6FBB6F2F
:1042F00067EC45F0140EE66EE66A8DEC3CF0E55294
:10430000E5520101800E861511E083C114F084C1CD
:1043100015F085C116F086C117F0000E146C151E3D
:104320001522161E1622171E172209D083C114F05B
:1043300084C115F085C116F086C117F0148E14C023
:10434000B8F0800E861511E083C114F084C115F019
:1043500085C116F086C117F0000E146C151E1522CB
:10436000161E1622171E172209D083C114F084C10D
:1043700015F085C116F086C117F0148E14C0B9F07F
:10438000800E861511E083C114F084C115F085C13B
:1043900016F086C117F0000E146C151E1522161E9D
:1043A0001622171E172209D083C114F084C115F0FC
:1043B00085C116F086C117F0148E14C0BAF0800EB5
:1043C000861502E09FEF2CF0B0EF2CF0110EE66E98
:1043D000010EE66ED3EC4AF0E552E552D890095052
:1043E000000A08E6320E065C000E0758000E085858
:1043F000000E095801E282D00001B86BB96BBA6BAC
:10440000BB6B67EC45F00A0EE66EE66A8DEC3CF09D
:10441000E552E5520001800EB86FB96FBA6FBB6FFD
:1044200067EC45F0140EE66EE66A8DEC3CF0E55262
:10443000E5520101800E861512E083C114F084C19B
:1044400015F085C116F086C117F0000E146C151E0C
:104450001522161E1622171E1722148E08D083C18D
:1044600014F084C115F085C116F086C117F014C090
:10447000B8F0800E861511E083C114F084C115F0E8
:1044800085C116F086C117F0000E146C151E15229A
:10449000161E1622171E172209D083C114F084C1DC
:1044A00015F085C116F086C117F0148E14C0B9F04E
:1044B000800E861511E083C114F084C115F085C10A
:1044C00016F086C117F0000E146C151E1522161E6C
:1044D0001622171E172209D083C114F084C115F0CB
:1044E00085C116F086C117F0148E14C0BAF0800E84
:1044F000861502E101EF2CF0F0EF2BF0010EE66ED5
:10450000E66ED3EC4AF0E552E552D8900950000A25
:1045100008E6320E065C000E0758000E0858000E22
:10452000095801E282D00001B86BB96BBA6BBB6B62
:1045300067EC45F00A0EE66EE66A8DEC3CF0E5525B
:10454000E5520001800EB86FB96FBA6FBB6F67ECB0
:1045500045F0140EE66EE66A8DEC3CF0E552E5524D
:104560000101800E861512E083C114F084C115F09C
:1045700085C116F086C117F0000E146C151E1522A9
:10458000161E1622171E1722148E08D083C114F08F
:1045900084C115F085C116F086C117F014C0B8F0BB
:1045A000800E861512E083C114F084C115F085C118
:1045B00016F086C117F0000E146C151E1522161E7B
:1045C0001622171E1722148E08D083C114F084C13E
:1045D00015F085C116F086C117F014C0B9F0800E31
:1045E000861512E083C114F084C115F085C116F060
:1045F00086C117F0000E146C151E1522161E162209
:10460000171E1722148E08D083C114F084C115F030
:1046100085C116F086C117F014C0BAF0800E861559
:1046200002E101EF2CF0F0EF2BF00B0EE66E010E25
:10463000E66ED3EC4AF0E552E552D8900950000AF4
:1046400008E6320E065C000E0758000E0858000EF1
:10465000095802E2B4EF0CF00001B86BB96BBA6B09
:10466000BB6B67EC45F00A0EE66EE66A8DEC3CF03B
:10467000E552E5520001800EB86FB96FBA6FBB6F9B
:1046800067EC45F0140EE66EE66A8DEC3CF0E55200
:10469000E5520101800E861511E083C114F084C13A
:1046A00015F085C116F086C117F0000E146C151EAA
:1046B0001522161E1622171E172209D083C114F0C8
:1046C00084C115F085C116F086C117F0148E14C090
:1046D000B8F0800E861512E083C114F084C115F085
:1046E00085C116F086C117F0000E146C151E152238
:1046F000161E1622171E1722148E08D083C114F01E
:1047000084C115F085C116F086C117F014C0B9F048
:10471000800E861512E083C114F084C115F085C1A6
:1047200016F086C117F0000E146C151E1522161E09
:104730001622171E1722148E08D083C114F084C1CC
:1047400015F085C116F086C117F014C0BAF0800EBE
:10475000861502E09FEF2CF0B0EF2CF099EC09F0F9
:10476000D9500E0FE96EDACFEAFF010EEE1867E1BD
:10477000ED5065E10101800E861512E083C114F051
:1047800084C115F085C116F086C117F0000E146CB7
:10479000151E1522161E1622171E1722148E08D05B
:1047A00083C114F084C115F085C116F086C117F0DD
:1047B00014C0B8F0800E861512E083C114F084C1D5
:1047C00015F085C116F086C117F0000E146C151E89
:1047D0001522161E1622171E1722148E08D083C10A
:1047E00014F084C115F085C116F086C117F014C00D
:1047F000B9F0800E861512E083C114F084C115F063
:1048000085C116F086C117F0000E146C151E152216
:10481000161E1622171E1722148E08D083C114F0FC
:1048200084C115F085C116F086C117F014C0BAF026
:10483000800E861502E127EF36F016EF36F0D950DC
:104840000E0FE96EDACFEAFF020EEE1867E1ED50C7
:1048500065E10101800E861511E083C114F084C169
:1048600015F085C116F086C117F0000E146C151EE8
:104870001522161E1622171E172209D083C114F006
:1048800084C115F085C116F086C117F0148E14C0CE
:10489000B8F0800E861512E083C114F084C115F0C3
:1048A00085C116F086C117F0000E146C151E152276
:1048B000161E1622171E1722148E08D083C114F05C
:1048C00084C115F085C116F086C117F014C0B9F087
:1048D000800E861512E083C114F084C115F085C1E5
:1048E00016F086C117F0000E146C151E1522161E48
:1048F0001622171E1722148E08D083C114F084C10B
:1049000015F085C116F086C117F014C0BAF0800EFC
:10491000861502E1A0EF35F097EF35F0D9500E0F74
:10492000E96EDACFEAFF030EEE1867E1ED5065E1BC
:104930000101800E861512E083C114F084C115F0C8
:1049400085C116F086C117F0000E146C151E1522D5
:10495000161E1622171E1722148E08D083C114F0BB
:1049600084C115F085C116F086C117F014C0B8F0E7
:10497000800E861511E083C114F084C115F085C145
:1049800016F086C117F0000E146C151E1522161EA7
:104990001622171E172209D083C114F084C115F006
:1049A00085C116F086C117F0148E14C0B9F0800EC0
:1049B000861511E083C114F084C115F085C116F08D
:1049C00086C117F0000E146C151E1522161E162235
:1049D000171E172209D083C114F084C115F085C1B8
:1049E00016F086C117F0148E14C0BAF0800E86152A
:1049F00002E127EF36F016EF36F0D9500E0FE96ED0
:104A0000DACFEAFF040EEE1802E0B4EF0CF0ED503E
:104A100002E0B4EF0CF00101800E861511E083C1B5
:104A200014F084C115F085C116F086C117F0000E90
:104A3000146C151E1522161E1622171E172209D0D9
:104A400083C114F084C115F085C116F086C117F03A
:104A5000148E14C0B8F0800E861511E083C114F0D6
:104A600084C115F085C116F086C117F0000E146CD4
:104A7000151E1522161E1622171E172209D083C1D5
:104A800014F084C115F085C116F086C117F0148E9C
:104A900014C0B9F0800E861511E083C114F084C1F2
:104AA00015F085C116F086C117F0000E146C151EA6
:104AB0001522161E1622171E172209D083C114F0C4
:104AC00084C115F085C116F086C117F0148E14C08C
:104AD000BAF0800E861502E1A0EF35F097EF35F0C1
:104AE000D9500C0FE96EDACFEAFF170EEE186CE121
:104AF000ED506AE1010EE66ED3EC40F0E5520101A3
:104B0000800E861511E083C114F084C115F085C1B3
:104B100016F086C117F0000E146C151E1522161E15
:104B20001622171E172209D083C114F084C115F074
:104B300085C116F086C117F0148E14C0B8F0800E2F
:104B4000861512E083C114F084C115F085C116F0FA
:104B500086C117F0000E146C151E1522161E1622A3
:104B6000171E1722148E08D083C114F084C115F0CB
:104B700085C116F086C117F014C0B9F0800E8615F5
:104B800012E083C114F084C115F085C116F086C10E
:104B900017F0000E146C151E1522161E1622171E75
:104BA0001722148E08D083C114F084C115F085C17A
:104BB00016F086C117F014C0BAF0800E861502E117
:104BC000A0EF35F097EF35F0D9500C0FE96EDACF42
:104BD000EAFF220EEE186CE1ED506AE1010EE66E7E
:104BE000D3EC40F0E5520101800E861512E083C13E
:104BF00014F084C115F085C116F086C117F0000EBF
:104C0000146C151E1522161E1622171E1722148E3E
:104C100008D083C114F084C115F085C116F086C197
:104C200017F014C0B8F0800E861511E083C114F09F
:104C300084C115F085C116F086C117F0000E146C02
:104C4000151E1522161E1622171E172209D083C103
:104C500014F084C115F085C116F086C117F0148ECA
:104C600014C0B9F0800E861511E083C114F084C120
:104C700015F085C116F086C117F0000E146C151ED4
:104C80001522161E1622171E172209D083C114F0F2
:104C900084C115F085C116F086C117F0148E14C0BA
:104CA000BAF0800E861502E127EF36F016EF36F0E7
:104CB000D9500C0FE96EDACFEAFF0D0EEE186CE159
:104CC000ED506AE1010EE66ED3EC40F0E5520101D1
:104CD000800E8A1512E087C114F088C115F089C1D1
:104CE00016F08AC117F0000E146C151E1522161E40
:104CF0001622171E1722148E08D087C114F088C1FF
:104D000015F089C116F08AC117F014C0B8F0800EF2
:104D10008A1512E087C114F088C115F089C116F018
:104D20008AC117F0000E146C151E1522161E1622CD
:104D3000171E1722148E08D087C114F088C115F0F1
:104D400089C116F08AC117F014C0B9F0800E8A1517
:104D500012E087C114F088C115F089C116F08AC12C
:104D600017F0000E146C151E1522161E1622171EA3
:104D70001722148E08D087C114F088C115F089C19C
:104D800016F08AC117F014C0BAF0800E8A1502E13D
:104D900058EF32F046EF32F0D9500C0FE96EDACF0F
:104DA000EAFF010EEE1867E1ED5065E10101800EAA
:104DB0008A1512E087C114F088C115F089C116F078
:104DC0008AC117F0000E146C151E1522161E16222D
:104DD000171E1722148E08D087C114F088C115F051
:104DE00089C116F08AC117F014C0B8F0800E8A1578
:104DF00012E087C114F088C115F089C116F08AC18C
:104E000017F0000E146C151E1522161E1622171E02
:104E10001722148E08D087C114F088C115F089C1FB
:104E200016F08AC117F014C0B9F0800E8A1512E08E
:104E300087C114F088C115F089C116F08AC117F036
:104E4000000E146C151E1522161E1622171E172290
:104E5000148E08D087C114F088C115F089C116F0EE
:104E60008AC117F014C0BAF0800E8A1502E1E0EF93
:104E700032F0D7EF32F0D9500C0FE96EDACFEAFFFB
:104E8000020EEE180BE1ED5009E10001B20EB86F11
:104E9000320EB96FB20EBA6F320E81D0D9500C0FEC
:104EA000E96EDACFEAFF030EEE1867E1ED5065E137
:104EB0000101800E8A1511E087C114F088C115F038
:104EC00089C116F08AC117F0000E146C151E152248
:104ED000161E1622171E172209D087C114F088C18A
:104EE00015F089C116F08AC117F0148E14C0B8F0FD
:104EF000800E8A1511E087C114F088C115F089C1B0
:104F000016F08AC117F0000E146C151E1522161E1D
:104F10001622171E172209D087C114F088C115F078
:104F200089C116F08AC117F0148E14C0B9F0800E32
:104F30008A1511E087C114F088C115F089C116F0F7
:104F40008AC117F0000E146C151E1522161E1622AB
:104F5000171E172209D087C114F088C115F089C126
:104F600016F08AC117F0148E14C0BAF0800E8A159C
:104F700002E1B0EF36F09FEF36F0D9500C0FE96E3A
:104F8000DACFEAFF040EEE180DE1ED500BE100015F
:104F9000320EB86FB20EB96F320EBA6FB20EBB6F6F
:104FA000BBEF36F0D9500C0FE96EDACFEAFFEE50C6
:104FB000ED1002E0B4EF0CF0010EDE6EDD6AF36E70
:104FC000140EF3CFDBFF150EDB6A010EE66EECEC80
:104FD00040F0E552DC0E065C050E0758000E08583E
:104FE000000E095801E32BD2D9500E0FE96EDACF2B
:104FF000EAFF010EEE1867E1ED5065E10101800E58
:10500000861512E083C114F084C115F085C116F035
:1050100086C117F0000E146C151E1522161E1622DE
:10502000171E1722148E08D083C114F084C115F006
:1050300085C116F086C117F014C0B8F0800E861531
:1050400012E083C114F084C115F085C116F086C149
:1050500017F0000E146C151E1522161E1622171EB0
:105060001722148E08D083C114F084C115F085C1B5
:1050700016F086C117F014C0B9F0800E861512E044
:1050800083C114F084C115F085C116F086C117F0F4
:10509000000E146C151E1522161E1622171E17223E
:1050A000148E08D083C114F084C115F085C116F0A8
:1050B00086C117F014C0BAF0800E861502E127EF02
:1050C00036F016EF36F0D9500E0FE96EDACFEAFF60
:1050D000020EEE1867E1ED5065E10101800E8615C4
:1050E00011E083C114F084C115F085C116F086C1AA
:1050F00017F0000E146C151E1522161E1622171E10
:10510000172209D083C114F084C115F085C116F0AF
:1051100086C117F0148E14C0B8F0800E861512E008
:1051200083C114F084C115F085C116F086C117F053
:10513000000E146C151E1522161E1622171E17229D
:10514000148E08D083C114F084C115F085C116F007
:1051500086C117F014C0B9F0800E861512E083C125
:1051600014F084C115F085C116F086C117F0000E49
:10517000146C151E1522161E1622171E1722148EC9
:1051800008D083C114F084C115F085C116F086C122
:1051900017F014C0BAF0800E861502E097EF35F0D4
:1051A000A0EF35F0D9500E0FE96EDACFEAFF030E0B
:1051B000EE1867E1ED5065E10101800E861511E002
:1051C00083C114F084C115F085C116F086C117F0B3
:1051D000000E146C151E1522161E1622171E1722FD
:1051E00009D083C114F084C115F085C116F086C1C1
:1051F00017F0148E14C0B8F0800E861511E083C12C
:1052000014F084C115F085C116F086C117F0000EA8
:10521000146C151E1522161E1622171E172209D0F1
:1052200083C114F084C115F085C116F086C117F052
:10523000148E14C0B9F0800E861511E083C114F0ED
:1052400084C115F085C116F086C117F0000E146CEC
:10525000151E1522161E1622171E172209D083C1ED
:1052600014F084C115F085C116F086C117F0148EB4
:1052700014C0BAF0800E861502E1A0EF35F097EF6A
:1052800035F0D9500E0FE96EDACFEAFF040EEE18B2
:1052900067E1ED5065E10101800E861512E083C1E2
:1052A00014F084C115F085C116F086C117F0000E08
:1052B000146C151E1522161E1622171E1722148E88
:1052C00008D083C114F084C115F085C116F086C1E1
:1052D00017F014C0B8F0800E861511E083C114F0E9
:1052E00084C115F085C116F086C117F0000E146C4C
:1052F000151E1522161E1622171E172209D083C14D
:1053000014F084C115F085C116F086C117F0148E13
:1053100014C0B9F0800E861511E083C114F084C169
:1053200015F085C116F086C117F0000E146C151E1D
:105330001522161E1622171E172209D083C114F03B
:1053400084C115F085C116F086C117F0148E14C003
:10535000BAF0800E861502E127EF36F016EF36F030
:10536000D950140FE96EDACFEAFF010EEE1867E1AB
:10537000ED5065E10101800E8A1511E087C114F03E
:1053800088C115F089C116F08AC117F0000E146C9F
:10539000151E1522161E1622171E172209D087C1A8
:1053A00014F088C115F089C116F08AC117F0148E67
:1053B00014C0B8F0800E8A1511E087C114F088C1BE
:1053C00015F089C116F08AC117F0000E146C151E75
:1053D0001522161E1622171E172209D087C114F097
:1053E00088C115F089C116F08AC117F0148E14C057
:1053F000B9F0800E8A1511E087C114F088C115F04C
:1054000089C116F08AC117F0000E146C151E152202
:10541000161E1622171E172209D087C114F088C144
:1054200015F089C116F08AC117F0148E14C0BAF0B5
:10543000800E8A1502E1B0EF36F09FEF36F0030ED2
:10544000E66EECEC40F0E552D880E80E0654030E10
:105450000754000E0854000E095401E39FD299EC42
:1054600009F0050EE66E010EE66ED3EC4AF0E55249
:10547000E552D8900950000A08E6320E065C000E8C
:105480000758000E0858000E095801E280D00001AC
:10549000B86BB96BBA6BBB6B67EC45F00A0EE66E86
:1054A000E66A8DEC3CF0E552E5520001800EB86FE3
:1054B000B96FBA6FBB6F67EC45F0140EE66EE66A23
:1054C0008DEC3CF0E552E5520101800E861511E0AD
:1054D00083C114F084C115F085C116F086C117F0A0
:1054E000000E146C151E1522161E1622171E1722EA
:1054F00009D083C114F084C115F085C116F086C1AE
:1055000017F0148E14C0B8F0800E861511E083C118
:1055100014F084C115F085C116F086C117F0000E95
:10552000146C151E1522161E1622171E172209D0DE
:1055300083C114F084C115F085C116F086C117F03F
:10554000148E14C0B9F0800E861511E083C114F0DA
:1055500084C115F085C116F086C117F0000E146CD9
:10556000151E1522161E1622171E172209D083C1DA
:1055700014F084C115F085C116F086C117F0148EA1
:1055800014C0BAF0800E861501E0D9D1E9D1110E10
:10559000E66E010EE66ED3EC4AF0E552E552D89085
:1055A0000950000A08E6320E065C000E0758000E8D
:1055B0000858000E095801E280D00001B86BB96BA1
:1055C000BA6BBB6B67EC45F00A0EE66EE66A8DECD3
:1055D0003CF0E552E5520001800EB86FB96FBA6F2A
:1055E000BB6F67EC45F0140EE66EE66A8DEC3CF09E
:1055F000E552E5520101800E861512E083C114F0D8
:1056000084C115F085C116F086C117F0000E146C28
:10561000151E1522161E1622171E1722148E08D0CC
:1056200083C114F084C115F085C116F086C117F04E
:1056300014C0B8F0800E861511E083C114F084C147
:1056400015F085C116F086C117F0000E146C151EFA
:105650001522161E1622171E172209D083C114F018
:1056600084C115F085C116F086C117F0148E14C0E0
:10567000B9F0800E861511E083C114F084C115F0D5
:1056800085C116F086C117F0000E146C151E152288
:10569000161E1622171E172209D083C114F084C1CA
:1056A00015F085C116F086C117F0148E14C0BAF03B
:1056B000800E861501E1A5D093D0010EE66EE66E50
:1056C000D3EC4AF0E552E552D8900950000A08E6BA
:1056D000320E065C000E0758000E0858000E0958DE
:1056E00001E298D00001B86BB96BBA6BBB6B67EC89
:1056F00045F00A0EE66EE66A8DEC3CF0E552E552A6
:105700000001800EB86FB96FBA6FBB6F67EC45F0E0
:10571000140EE66EE66A8DEC3CF0E552E5520101AE
:10572000800E861512E083C114F084C115F085C186
:1057300016F086C117F0000E146C151E1522161EE9
:105740001622171E1722148E08D083C114F084C1AC
:1057500015F085C116F086C117F014C0B8F0800EA0
:10576000861512E083C114F084C115F085C116F0CE
:1057700086C117F0000E146C151E1522161E162277
:10578000171E1722148E08D083C114F084C115F09F
:1057900085C116F086C117F014C0B9F0800E8615C9
:1057A00012E083C114F084C115F085C116F086C1E2
:1057B00017F0000E146C151E1522161E1622171E49
:1057C0001722148E08D083C114F084C115F085C14E
:1057D00016F086C117F014C0BAF0800E861511E0DD
:1057E00083C114F084C115F085C116F086C117F08D
:1057F000000E146C151E1522161E1622171E1722D7
:10580000B7D083C114F084C115F085C116F086C1EC
:1058100017F0AFD00B0EE66E010EE66ED3EC4AF039
:10582000E552E552D8900950000A08E6320E065CAF
:10583000000E0758000E0858000E095802E2B4EF97
:105840000CF00001B86BB96BBA6BBB6B67EC45F041
:105850000A0EE66EE66A8DEC3CF0E552E552000178
:10586000800EB86FB96FBA6FBB6F67EC45F0140E5E
:10587000E66EE66A8DEC3CF0E552E5520101800EE1
:10588000861511E083C114F084C115F085C116F0AE
:1058900086C117F0000E146C151E1522161E162256
:1058A000171E172209D083C114F084C115F085C1D9
:1058B00016F086C117F0148E14C0B8F0800E86154D
:1058C00012E083C114F084C115F085C116F086C1C1
:1058D00017F0000E146C151E1522161E1622171E28
:1058E0001722148E08D083C114F084C115F085C12D
:1058F00016F086C117F014C0B9F0800E861512E0BC
:1059000083C114F084C115F085C116F086C117F06B
:10591000000E146C151E1522161E1622171E1722B5
:10592000148E08D083C114F084C115F085C116F01F
:1059300086C117F014C0BAF0800E861511E083C13D
:1059400014F084C115F085C116F086C117F0000E61
:10595000146C151E1522161E1622171E172209D0AA
:1059600083C114F084C115F085C116F086C117F00B
:10597000148E14C0BBF067EC45F0960EE66EE66A36
:105980008DEC3CF0E552E5520001B86BB96BBA6B97
:10599000BB6B67EC45F00A0E65EF32F099EC09F04D
:1059A000D9500E0FE96EDACFEAFF010EEE1867E16B
:1059B000ED5065E10101800E861512E083C114F0FF
:1059C00084C115F085C116F086C117F0000E146C65
:1059D000151E1522161E1622171E1722148E08D009
:1059E00083C114F084C115F085C116F086C117F08B
:1059F00014C0B8F0800E861512E083C114F084C183
:105A000015F085C116F086C117F0000E146C151E36
:105A10001522161E1622171E1722148E08D083C1B7
:105A200014F084C115F085C116F086C117F014C0BA
:105A3000B9F0800E861512E083C114F084C115F010
:105A400085C116F086C117F0000E146C151E1522C4
:105A5000161E1622171E1722148E08D083C114F0AA
:105A600084C115F085C116F086C117F014C0BAF0D4
:105A7000800E861502E127EF36F016EF36F0D9508A
:105A80000E0FE96EDACFEAFF020EEE1867E1ED5075
:105A900065E10101800E861511E083C114F084C117
:105AA00015F085C116F086C117F0000E146C151E96
:105AB0001522161E1622171E172209D083C114F0B4
:105AC00084C115F085C116F086C117F0148E14C07C
:105AD000B8F0800E861512E083C114F084C115F071
:105AE00085C116F086C117F0000E146C151E152224
:105AF000161E1622171E1722148E08D083C114F00A
:105B000084C115F085C116F086C117F014C0B9F034
:105B1000800E861512E083C114F084C115F085C192
:105B200016F086C117F0000E146C151E1522161EF5
:105B30001622171E1722148E08D083C114F084C1B8
:105B400015F085C116F086C117F014C0BAF0800EAA
:105B5000861502E1A0EF35F097EF35F0D9500E0F22
:105B6000E96EDACFEAFF030EEE1867E1ED5065E16A
:105B70000101800E861512E083C114F084C115F076
:105B800085C116F086C117F0000E146C151E152283
:105B9000161E1622171E1722148E08D083C114F069
:105BA00084C115F085C116F086C117F014C0B8F095
:105BB000800E861511E083C114F084C115F085C1F3
:105BC00016F086C117F0000E146C151E1522161E55
:105BD0001622171E172209D083C114F084C115F0B4
:105BE00085C116F086C117F0148E14C0B9F0800E6E
:105BF000861511E083C114F084C115F085C116F03B
:105C000086C117F0000E146C151E1522161E1622E2
:105C1000171E172209D083C114F084C115F085C165
:105C200016F086C117F0148E14C0BAF0800E8615D7
:105C300002E127EF36F016EF36F0D9500E0FE96E7D
:105C4000DACFEAFF040EEE1802E0B4EF0CF0ED50EC
:105C500002E0B4EF0CF00101800E861511E083C163
:105C600014F084C115F085C116F086C117F0000E3E
:105C7000146C151E1522161E1622171E172209D087
:105C800083C114F084C115F085C116F086C117F0E8
:105C9000148E14C0B8F0800E861511E083C114F084
:105CA00084C115F085C116F086C117F0000E146C82
:105CB000151E1522161E1622171E172209D083C183
:105CC00014F084C115F085C116F086C117F0148E4A
:105CD00014C0B9F0800E861511E083C114F084C1A0
:105CE00015F085C116F086C117F0000E146C151E54
:105CF0001522161E1622171E172209D083C114F072
:105D000084C115F085C116F086C117F0148E14C039
:105D1000BAF0800E861502E1A0EF35F097EF35F06E
:105D2000020E671902E0B4EF0CF0685102E0B4EF24
:105D30000CF0695102E0B4EF0CF06A5102E0B4EFEC
:105D40000CF0D9500C0FE96EDACFEAFF180EEE18FE
:105D500005E1ED5003E1140EDB6A05D0010EF36E90
:105D6000140EF3CFDBFF150EDB6A010EE66EE66E56
:105D70007BEC40F0E552E552E66AE66A7BEC40F0E7
:105D8000E552E552D9500C0FE96EDACFEAFF180E52
:105D9000EE1801E1ED5016E0D9500C0FE96EDACFA4
:105DA000EAFF7C0EEE1801E1ED500CE0D9500C0F2B
:105DB000E96EDACFEAFFEA0EEE1801E00DD2ED50FF
:105DC00001E00AD2030EE66ED3EC40F0E55299EC06
:105DD00009F0050EE66E010EE66ED3EC4AF0E552D0
:105DE000E552D8900950000A08E6320E065C000E13
:105DF0000758000E0858000E09586CE3010EF36EA8
:105E00000E0EF3CFDBFF0F0EDB6A0101800E8A1549
:105E100011E087C114F088C115F089C116F08AC15C
:105E200017F0000E146C151E1522161E1622171ED2
:105E3000172209D087C114F088C115F089C116F066
:105E40008AC117F0148E14C0B8F0800E8A1511E0C4
:105E500087C114F088C115F089C116F08AC117F006
:105E6000000E146C151E1522161E1622171E172260
:105E700009D087C114F088C115F089C116F08AC114
:105E800017F0148E14C0B9F0800E8A1511E087C186
:105E900014F088C115F089C116F08AC117F0000E00
:105EA000146C151E1522161E1622171E172209D055
:105EB00087C114F088C115F089C116F08AC117F0A6
:105EC000148E14C0BAF0800E8A1502E09FEF36F0EF
:105ED000B0EF36F0010EE66EE66ED3EC4AF0E55216
:105EE000E552D8900950000A08E6320E065C000E12
:105EF0000758000E0858000E09586AE3030EF36EA7
:105F00000E0EF3CFDBFF0F0EDB6A0101800E8A1548
:105F100012E087C114F088C115F089C116F08AC15A
:105F200017F0000E146C151E1522161E1622171ED1
:105F30001722148E08D087C114F088C115F089C1CA
:105F400016F08AC117F014C0B8F0800E8A1512E05E
:105F500087C114F088C115F089C116F08AC117F005
:105F6000000E146C151E1522161E1622171E17225F
:105F7000148E08D087C114F088C115F089C116F0BD
:105F80008AC117F014C0B9F0800E8A1512E087C1DB
:105F900014F088C115F089C116F08AC117F0000EFF
:105FA000146C151E1522161E1622171E1722148E8B
:105FB00008D087C114F088C115F089C116F08AC1D4
:105FC00017F014C0BAF0800E8A1501E1F9D2EFD2B1
:105FD000110EE66E010EE66ED3EC4AF0E552E55284
:105FE0000934000E091809E6D880320E0654000E56
:105FF0000754000E0854000E09546AE3020EF36EB3
:106000000E0EF3CFDBFF0F0EDB6A0101800E8A1547
:1060100012E087C114F088C115F089C116F08AC159
:1060200017F0000E146C151E1522161E1622171ED0
:106030001722148E08D087C114F088C115F089C1C9
:1060400016F08AC117F014C0B8F0800E8A1511E05E
:1060500087C114F088C115F089C116F08AC117F004
:10606000000E146C151E1522161E1622171E17225E
:1060700009D087C114F088C115F089C116F08AC112
:1060800017F0148E14C0B9F0800E8A1511E087C184
:1060900014F088C115F089C116F08AC117F0000EFE
:1060A000146C151E1522161E1622171E172209D053
:1060B00087C114F088C115F089C116F08AC117F0A4
:1060C000148E14C0BAF0800E8A1501E179D26FD215
:1060D0000B0EE66E010EE66ED3EC4AF0E552E55289
:1060E0000934000E091809E6D880320E0654000E55
:1060F0000754000E0854000E095402E2B4EF0CF0ED
:10610000040EF36E0E0EF3CFDBFF0F0EDB6A010100
:10611000800E8A1511E087C114F088C115F089C17D
:1061200016F08AC117F0000E146C151E1522161EEB
:106130001622171E172209D087C114F088C115F046
:1061400089C116F08AC117F0148E14C0B8F0800E01
:106150008A1512E087C114F088C115F089C116F0C4
:106160008AC117F0000E146C151E1522161E162279
:10617000171E1722148E08D087C114F088C115F09D
:1061800089C116F08AC117F014C0B9F0800E8A15C3
:1061900012E087C114F088C115F089C116F08AC1D8
:1061A00017F0000E146C151E1522161E1622171E4F
:1061B0001722148E08D087C114F088C115F089C148
:1061C00016F08AC117F014C0BAF0800E8A1502E1E9
:1061D000B0EF36F09FEF36F0D9500C0FE96EDACF02
:1061E000EAFF170EEE186CE1ED506AE1010EE66E63
:1061F000D3EC40F0E5520101800E861511E083C119
:1062000014F084C115F085C116F086C117F0000E98
:10621000146C151E1522161E1622171E172209D0E1
:1062200083C114F084C115F085C116F086C117F042
:10623000148E14C0B8F0800E861512E083C114F0DD
:1062400084C115F085C116F086C117F0000E146CDC
:10625000151E1522161E1622171E1722148E08D080
:1062600083C114F084C115F085C116F086C117F002
:1062700014C0B9F0800E861512E083C114F084C1F9
:1062800015F085C116F086C117F0000E146C151EAE
:106290001522161E1622171E1722148E08D083C12F
:1062A00014F084C115F085C116F086C117F014C032
:1062B000BAF0800E861502E1A0EF35F097EF35F0C9
:1062C000D9500C0FE96EDACFEAFF220EEE186CE11E
