:020000040000FA
:06080000B8EF3CF012000D
:020806001200DE
:0608080016EF04F01200DF
:0608180010EF06F01200D3
:02081E000100D7
:0C082000AF790000CE0100002A000000AB
:04082C00DACFE4FF3C
:10083000E2CFDAFFE9CFE4FFEACFE4FFF6CFE4FF4F
:10084000F7CFE4FFF5CFE4FFF3CFE4FFF4CFE4FF0D
:10085000FACFE4FF00EE00F0140EE80403E3EECF5D
:10086000E4FFFBD700EE14F00C0EE80403E3EECF38
:10087000E4FFFBD7E652F2A432D1D59EFC0ED76E30
:100880003F0ED66ED58E0101072B000E0823010105
:100890008F2B000E9023912392230101932B000EA6
:1008A0009423952396230101972B000E98239923D7
:1008B0009A2301019B2B000E9C239D239E23010163
:1008C000092B000E0A230001E62B000EE723320E4F
:1008D0000001815D02E20001812B030E010100197C
:1008E00001E1015101E187D0020E0101001901E18E
:1008F000015144E0010E0101001901E1015107E03D
:100900000101005101E1015101E0E3D0E7D0805045
:10091000100B100A01E0010E010808E10101026B51
:10092000036B0101002B000E012327D00101022BD4
:10093000000E03230101F40ED8800255010E035569
:100940001CE20101026B036B0101010E0D1901E1B3
:100950000E5106E00101070E0D1901E10E510DE1E6
:100960000101AAB1BBD00101AAB3B8D00101AAB557
:10097000B5D00101AAB7B2D0897EB0D080A805D089
:1009800001010007000E015B35D00101022B000EB2
:1009900003230101320ED8800255000E03552AE2CE
:1009A000000EE66EE66A000EE66EE66A0EEC0AF0EF
:1009B000E552E552E552E552899E899C8A908A98D3
:1009C000020E01010D1901E10E510BE001010D5163
:1009D00001E10E5101E00AD0898E0101096B0A6B19
:1009E00005D0040E01010D6F0E6B00D00101002B2C
:1009F000000E012373D080A83FD0040E01010D1911
:100A000001E10E5133E0070E01010D1901E10E5114
:100A100028E0050E01010D1901E10E511DE0030E44
:100A200001010D1901E10E5112E0010E01010D1934
:100A300001E10E5107E001010D5101E10E5101E00C
:100A400016D015D0020E01010D6F0E6B10D0010EE5
:100A500001010D6F0E6B0BD0060E01010D6F0E6BB9
:100A600006D0080E01010D6F0E6B01D0FF000101D1
:100A7000002B000E01232CD0050E01010D1901E100
:100A80000E5116E001010D5101E10E5101E020D09F
:100A90000101D00ED8800955070E0A5508E2899C3D
:100AA000050E01010D6F0E6B0101026B036B10D07F
:100AB0000101022B000E03230101640ED8800255B0
:100AC000000E035504E20101026B036B897E00D026
:100AD00005D0010E0101006F016B00D0F2949EA6BB
:100AE00073D00001816B0001826B000180510F0AFD
:100AF00064E0010A5EE0030A44E0010A39E0070A03
:100B00002EE0080A23E0010A0AE0030A01E058D0B7
:100B100083C0C9FF0001846B0001802B54D0C5AC99
:100B200003D080C082F011D000018451842BEA6A86
:100B3000860FE96E000EEA22EF50C96E0001855162
:100B40000001845D02E10001802B3DD0C5AC03D0E3
:100B500080C082F003D0C5840001806B34D0010EC8
:100B600000018311C96E0001846B0001802B2BD022
:100B7000C5AC03D080C082F003D0C5860001802BB5
:100B800022D000018451842BEA6A860FE96E000EA0
:100B9000EA22C9CFEFFF000185510001845D04E224
:100BA000C59A0001800703D0C58A0001802BC58843
:100BB0000AD0C5840001802B06D00001806B03D0D1
:100BC0000001806B00D09E96A1A606D0A196400E93
:100BD000000180110001826FE55200EE1FF00C0E43
:100BE000E80403E3E5CFEDFFFBD700EE13F0140EAE
:100BF000E80403E3E5CFEDFFFBD7E5CFFAFFE5CF50
:100C0000F4FFE5CFF3FFE5CFF5FFE5CFF7FFE5CF45
:100C1000F6FFE5CFEAFFE5CFE9FFE5CFDAFF110008
:100C2000D8CFE4FFE0CFE4FFE46EDACFE4FFE2CF19
:100C3000DAFFE9CFE4FFEACFE4FFE6529EAC2CD125
:100C40009E9CC4CF06F1C3CF05F101010451EA6AAD
:100C5000A00FE96E010EEA22EF50020801E09BD0DE
:100C600001010C3504E20B510308000E0C5501E3A1
:100C700091D005C105F106C106F10101FF0ED88032
:100C80000557030E0657010E0101D89005370637A8
:100C9000E806FBE10101900E055D010E065905E233
:100CA0000101900E056F010E066F900E0101055FA8
:100CB000010E0101065B0101FF0ED8800555030EF0
:100CC000065504E201010569030E066F0101045196
:100CD000E96EEA6AD890E936EA360F0EE926010E87
:100CE000EA22EE5001010527EE500101062305C15D
:100CF00020F006C121F0010E0F0B05E0D890213243
:100D00002032E806FBE101010451E96EEA6AD8905D
:100D1000E936EA360F0EE926010EEA2220C0EEFF80
:100D200021C0EDFF01010B6B0C6B01010451090A9D
:100D30002EE0010A29E00F0A24E0010A1FE0030A5D
:100D40001AE0010A15E0070A10E0010A0BE0030AA5
:100D500006E0010A01E01ED0929089801BD0929299
:100D6000898218D09294898415D09296898612D05F
:100D7000929A898A0FD093948A840CD093968A860B
:100D800009D093928A8206D093988A8803D0939050
:100D90008A8000D02CD001010451E96EEA6AD89013
:100DA000E936EA360F0EE926010EEA22EE5001017D
:100DB0000527EE500101062305C120F006C121F0F0
:100DC000010E0F0B05E0D89021322032E806FBE13E
:100DD00001010451E96EEA6AD890E936EA360F0E4D
:100DE000E926010EEA2220C0EEFF21C0EDFF0A0E27
:100DF000206E0101042B01010451D880205402E32C
:100E00000101046B01010451EA6AA00FE96E010EB1
:100E1000EA22EF50020837E101010B2B000E0C23F0
:100E200001010C3504E20B510308000E0C552BE2B6
:100E300001010451090A25E0010A21E00F0A1DE021
:100E4000010A19E0030A15E0010A11E0070A0DE0A2
:100E5000010A09E0030A05E0010A01E014D09280CA
:100E600012D0928210D092840ED092860CD0928AA8
:100E70000AD0938408D0938606D0938204D09388B6
:100E800002D0938000D001010451EA6ACE0FE96ECE
:100E9000010EEA22EF50C26E9EAA98D0ABA403D0F6
:100EA000AECFEAF093D0ABA203D0AB98AB888ED094
:100EB000AECFEAF00101010E0D1901E10E5173E010
:100EC0000001EB51080A66E00F0A5AE0010A4EE001
:100ED000030A42E0010A36E0070A2AE0010A1EE09E
:100EE000030A12E0010A01E05ED0520E0001EA5D41
:100EF00003E10001010EEB6F560E0001EA5D03E114
:100F00000001050EEB6F4FD0650E0001EA5D02E1B6
:100F1000020E01D0000E0001EB6F45D0730E0001F0
:100F2000EA5D02E1030E01D0000E0001EB6F3BD041
:100F3000650E0001EA5D02E1040E01D0000E000121
:100F4000EB6F31D0740E0001EA5D02E1070E01D0B3
:100F5000000E0001EB6F27D0650E0001EA5D02E193
:100F6000060E01D0000E0001EB6F1DD0720E0001C5
:100F7000EA5D02E1070E01D0000E0001EB6F13D015
:100F80000D0E0001EA5D02E1080E01D0000E000125
:100F9000EB6F09D00A0E0001EA5D02E1FF0002D00A
:100FA0000001EB6B00D00001E851EA6AC50FE96E61
:100FB000000EEA22EAC0EFFF1F0E206E0001E82BB0
:100FC0000001E851205C02E20001E86BE552E5CF48
:100FD000EAFFE5CFE9FFE5CFDAFFE550E5CFE0FF37
:100FE000E5CFD8FF1000D9CFE6FFE1CFD9FF030E40
:100FF000E126F00ED36EC00E9B6E0001EB6B01017B
:101000000D6B0E6B006B016B026B036B010EDB6AE9
:10101000020EDB6A010EDBCF14F0020EDBCF15F0FF
:10102000D890155004E61A0E145C000E15581AE2FA
:10103000010EDBCFE9FF020EDBCFEAFFD890E936E5
:10104000EA36D890E936EA36270EE926010EEA227A
:10105000EE6AEE6AEE6AEE6A010EDB2A020EDAE34F
:10106000DB2AD8D7010EDB6A020EDB6A010EDBCF6A
:1010700014F0020EDBCF15F0D890155004E6040EE4
:10108000145C000E15581AE2010EDBCFE9FF020EC8
:10109000DBCFEAFFD890E936EA36D890E936EA366F
:1010A0008F0EE926010EEA22EE6AEE6AEE6AEE6A19
:1010B000010EDB2A020EDAE3DB2AD8D7010EDB6A47
:1010C000020EDB6A010EDBCF14F0020EDBCF15F04F
:1010D000D890155004E60A0E145C000E155811E263
:1010E000010EDBCFE9FF020EDBCFEAFFA00EE926FF
:1010F000010EEA22010EEF6EDB2A020EE3E3DB2A89
:10110000E1D70101236B246B256B266B046B0B6B02
:101110000C6BAA6BAB6B096B0A6B076B086B896A6C
:101120003F0EDF6EDF50926E8A6A1F0EDF6E010186
:10113000E01DDF16E66A080EE66E1EEC0DF0E552C5
:10114000E5520101A86B0101D81DDF16E66A090E00
:10115000E66E1EEC0DF0E552E5520101A96BDF5081
:10116000936E180E8B6E980E946E020ED56EFC0E5A
:10117000D76E3F0ED66ED58EF294F28AF184B00E01
:10118000B16EA292A192A092B1809D92010ECA6E00
:10119000CC68CB68CA849F6F000E256F266B236FC7
:1011A000246BE66EE66AE66EE66AA2D8E552E55280
:1011B000E552E5529F9C9D8CBE0EC06E020EC16E24
:1011C00001010451EA6ACE0FE96E010EEA22EF50E6
:1011D000C26EC5EC29F0E8EC1FF0D09CD08EF28EE8
:1011E000F28CB00E146E770E156E166A14C0E6FF00
:1011F000E66E16C0E6FF14EC2AF0E552E552E55221
:101200009BEC2CF0CEEC20F0E66AE6EC20F0E55208
:10121000010E0101006F016B8050100B100A01E0FC
:10122000010E0108F9E001010D510E1103E1010E5B
:101230000D6F0E6B898E030EE15C02E2E16AE552EE
:10124000E16EE552E7CFD9FF1200CDDEF40EE66E77
:10125000010EE66EB9D8E552E55286EC27F00101A1
:10126000096B0A6B5AEC2AF0000902E060EC2AF0E4
:10127000070E01010D1901E10E5137E0050E0D19A0
:1012800001E10E512DE0060E0D1901E10E5128E08D
:10129000020E0D1901E10E511BE0030E0D1901E1C3
:1012A0000E5116E0010E0D19DDE10E51DBE1CC51BE
:1012B000095DCD510A59D6E3096B0A6BAAA102D088
:1012C000F4EC2CF00101AAA3CDD73BEC2EF0CAD749
:1012D00061EC14F0898E010E01010D6F0E6BC2D707
:1012E00096EC0EF014EC0FF0BDD71FEC10F0BAD74F
:1012F000D9CFE6FFE1CFD9FF040EE126FD0EDBCF0B
:1013000014F0FE0EDBCF15F0FF0ED8801454030E40
:10131000155407E2FD0EDB68030EF36EFE0EF3CFED
:10132000DBFFFB0EDBCF14F0FC0EDBCF15F0FF0E66
:10133000D8801454030E155407E2FB0EDB68030E2D
:10134000F36EFC0EF3CFDBFFFB0EDBCF14F0FC0ED5
:10135000DBCF15F0060ED89014361536E804FBE105
:1013600014C0DEFF15C0DDFFFD0EDBCF14F0FE0E56
:10137000DBCF15F0060ED89014361536E804FBE1E5
:10138000020E14C0DBFF030E15C0DBFF010EDB50A5
:10139000BE6E030EDB50BB6EDF50E840E8403F0BF3
:1013A000300B0C09BD6E020EDB40E8403F0B300BEA
:1013B0000C09BA6E040EE15C02E2E16AE552E16EEC
:1013C000E552E7CFD9FF1200D9CFE6FFE1CFD9FF31
:1013D000020EE126F29A0101096B0A6BF28AF29A77
:1013E00009C1DEFF0AC1DDFFF28ADECF14F0DDCFD6
:1013F00015F0FD0EDBCF16F0FE0EDBCF17F016500A
:10140000145C17501558EBE3020EE15C02E2E16A4E
:10141000E552E16EE552E7CFD9FF1200D9CFE6FFE2
:10142000E1CFD9FF0A0EE12623C114F024C115F043
:10143000FD0EDB50141811E1FE0EDB5015180DE106
:1014400025C116F026C117F0FB0EDB50161805E17A
:10145000FC0EDB50171801E1E7D2000EE66EE66ADB
:10146000E66EE66A45DFE552E552E552E5528B9AB3
:101470008B908A9C8A9AA092A192B190B368050E33
:10148000B26EB180080EF8C1DBFFFD0EDBCF14F0A9
:10149000FE0EDBCF15F0153401E387D014500008A1
:1014A000000E155401E381D0010EF36E040EF3CF4C
:1014B000DBFF060EDB6A080E086E096AFD0EDBCF45
:1014C0000DF0FE0EDBCF0EF082EC39F006C0DEFF31
:1014D00007C0DDFF0101000ED880F855000EF95558
:1014E00001E3F8D0DECF14F0DDCF15F015341EE2A5
:1014F00014509008010E155419E2DECF16F0DDCF1E
:1015000017F0900E165E010E175A16C008F017C09D
:1015100009F0FCC10DF0FDC10EF064EC3CF00101DE
:10152000F8510824146EF951092027D0DECF14F0A9
:10153000DDCF15F0900ED8801456010E1556F851D7
:10154000145CF95115581CE2DECF16F0DDCF17F010
:10155000900ED8801656010E175616C008F017C008
:1015600009F0FCC10DF0FDC10EF064EC3CF001018E
:101570000850F85D146E0950F959080E14C0DBFFCD
:10158000080EDB50146E156ADECF16F0DDCF17F0B3
:1015900015501718E8AE02D0173404D01650145C5A
:1015A0001750155801E396D089D0FD0EDBCF14F00B
:1015B000FE0EDBCF15F00001800E151401E18FD077
:1015C000040EDB6A010EF36E060EF3CFDBFFF80E9E
:1015D000086E0968FD0EDBCF0DF0FE0EDBCF0EF0BE
:1015E00082EC39F006C0DEFF07C0DDFF0101000E0E
:1015F000D880F855000EF9556DE2DECF14F0DDCF3E
:1016000015F015341EE214509008010E155419E21D
:10161000DECF16F0DDCF17F0900E165E010E175AD2
:1016200016C008F017C009F0FCC10DF0FDC10EF0A6
:1016300064EC3CF00101F8510824146EF9510920C2
:1016400027D0DECF14F0DDCF15F0900ED8801456E1
:10165000010E1556F851145CF95115581CE2DECFF5
:1016600016F0DDCF17F0900ED8801656010E1756E3
:1016700016C008F017C009F0FCC10DF0FDC10EF056
:1016800064EC3CF001010850F85D146E0950F95902
:10169000080E14C0DBFF080EDB50146E156ADECF97
:1016A00016F0DDCF17F015501718E8AE02D017343A
:1016B00004D01650145C175015580CE2080EDB507D
:1016C000146E156AD9CFE9FFDACFEAFFE850EE5E73
:1016D0001550ED5A640EDE26000EDD220FD00101FA
:1016E0009F510CE0010EF36E040EF3CFDBFF010EF1
:1016F000F36E060EF3CFDBFFDE6ADD6A090EFAC178
:10170000DBFFFB0EDBCF14F0FC0EDBCF15F0153446
:1017100001E393D014500008000E155401E38DD05E
:10172000010EF36E050EF3CFDBFF070EDB6A080E2A
:10173000086E096AFB0EDBCF0DF0FC0EDBCF0EF05E
:1017400082EC39F0020E06C0DBFF030E07C0DBFFA0
:101750000101000ED880FA55000EFB5501E310D1AF
:10176000020EDBCF14F0030EDBCF15F0153420E2B0
:1017700014509008010E15541BE2020EDBCF16F038
:10178000030EDBCF17F0900E165E010E175A16C02F
:1017900008F017C009F0FCC10DF0FDC10EF064ECBB
:1017A0003CF00101FA510824146EFB5109202BD0A2
:1017B000020EDBCF14F0030EDBCF15F0900ED880B5
:1017C0001456010E1556FA51145CFB5115581EE2C1
:1017D000020EDBCF16F0030EDBCF17F0900ED88091
:1017E0001656010E175616C008F017C009F0FCC1B6
:1017F0000DF0FDC10EF064EC3CF001010850FA5D03
:10180000146E0950FB59090E14C0DBFF090EDB50A2
:10181000146E156A020EDBCF16F0030EDBCF17F045
:1018200015501718E8AE02D0173404D01650145CC7
:101830001750155801E3A4D096D0FB0EDBCF14F05F
:10184000FC0EDBCF15F00001800E151401E1A2D0D3
:10185000050EDB6A010EF36E070EF3CFDBFFF80E09
:10186000086E0968FB0EDBCF0DF0FC0EDBCF0EF02F
:1018700082EC39F0020E06C0DBFF030E07C0DBFF6F
:101880000101000ED880FA55000EFB5501E378D017
:10189000020EDBCF14F0030EDBCF15F0153420E27F
:1018A00014509008010E15541BE2020EDBCF16F007
:1018B000030EDBCF17F0900E165E010E175A16C0FE
:1018C00008F017C009F0FCC10DF0FDC10EF064EC8A
:1018D0003CF00101FA510824146EFB5109202BD071
:1018E000020EDBCF14F0030EDBCF15F0900ED88084
:1018F0001456010E1556FA51145CFB5115581EE290
:10190000020EDBCF16F0030EDBCF17F0900ED8805F
:101910001656010E175616C008F017C009F0FCC184
:101920000DF0FDC10EF064EC3CF001010850FA5DD1
:10193000146E0950FB59090E14C0DBFF090EDB5071
:10194000146E156A020EDBCF16F0030EDBCF17F014
:1019500015501718E8AE02D0173404D01650145C96
:10196000175015580DE2090EDB50146E156AD95048
:10197000020FE96EDACFEAFF1450EE5E1550ED5A11
:10198000D950020FE96EDACFEAFF640EEE26000EA0
:10199000ED2211D001019F510EE0010EF36E050EF4
:1019A000F3CFDBFF010EF36E070EF3CFDBFF020E6A
:1019B000DB6A030EDB6A0101010E9F6FFD0EDBCFB8
:1019C00023F1FE0EDBCF24F1FB0EDBCF25F1FC0E65
:1019D000DBCF26F1A1A2FED7A192020EDBCFE6FF5C
:1019E000030EDBCFE6FFDECFE6FFDDCFE6FF80DCD8
:1019F000E552E552E552E552040EDB50E8B08B8A21
:101A0000E8A08B9A060EDB50E8B08B80E8A08B90A4
:101A1000050EDB50E8B08A8CE8A08A9C070EDB50EC
:101A2000E8B08A8AE8A08A9A0A0EE15C02E2E16ADA
:101A3000E552E16EE552E7CFD9FF1200D9CFE6FFBC
:101A4000E1CFD9FFFE0EDB50090A5AE0010A50E04F
:101A50000F0A46E0010A3CE0030A32E0010A28E0EE
:101A6000070A1EE0010A14E0030A0AE0010A4EE137
:101A7000FD0EDB50E8B08980E8B048D0899046D0B0
:101A8000FD0EDB50E8B08982E8B040D089923ED0AC
:101A9000FD0EDB50E8B08984E8B038D0899436D0A8
:101AA000FD0EDB50E8B08986E8B030D089962ED0A4
:101AB000FD0EDB50E8B0898AE8B028D0899A26D09C
:101AC000FD0EDB50E8B08A84E8B020D08A941ED0A6
:101AD000FD0EDB50E8B08A86E8B018D08A9616D0A2
:101AE000FD0EDB50E8B08A82E8B010D08A920ED0AA
:101AF000FD0EDB50E8B08A88E8B008D08A9806D09E
:101B0000FD0EDB50E8B08A80E8A08A90E552E7CF6E
:101B1000D9FF1200D9CFE6FFE1CFD9FFE652DF6A45
:101B2000FE0EDB50090A35E0010A2EE00F0A28E01C
:101B3000010A22E0030A1CE0010A16E0070A10E08D
:101B4000010A0AE0030A04E0010A26E1895022D0D2
:101B50008950020B20E01BD08950040B1CE017D0E9
:101B60008950080B18E013D08950200B14E00FD0D7
:101B70008A50040B10E00BD08A50080B0CE007D001
:101B80008A50020B08E003D08A50100B04E0010ECB
:101B900002D08A50010BDF6EDF50E552E552E7CFED
:101BA000D9FF1200D9CFE6FFE1CFD9FFFE0EDB50FF
:101BB000030A1EE0010A14E0030A0AE0010A1EE11A
:101BC000FD0EDB50E8B0898EE8B018D0899E16D0A3
:101BD000FD0EDB50E8B0898CE8B010D0899C0ED0A7
:101BE000FD0EDB50E8B08A80E8B008D08A9006D0BD
:101BF000FD0EDB50E8B08A88E8A08A98E552E7CF6E
:101C0000D9FF1200D9CFE6FFE1CFD9FFE652DF6A54
:101C1000FE0EDB50030A13E0010A0DE0030A06E0A2
:101C2000010A12E18950800B08E003D08950400B73
:101C300004E0010E02D08A50010BDF6E05D08A50FD
:101C4000100B01E0010EDF6EDF50E552E552E7CFE9
:101C5000D9FF1200D9CFE6FFE1CFD9FFF29AFE0EED
:101C6000DB50040DF3CFE9FFF4CFEAFF8F0EE92636
:101C7000010EEA22EE6AEE6AEE6AEE6AF28AE55236
:101C8000E7CFD9FF1200D9CFE6FFE1CFD9FF040E8D
:101C9000E126F29AFE0EDB50040DF3CFE9FFF4CFFC
:101CA000EAFF8F0EE926010EEA22EECFDFFF010EDA
:101CB000EECFDBFF020EEECFDBFF030EEECFDBFF3E
:101CC000F28ADECF06F0DECF07F0DECF08F0DDCF00
:101CD00009F0DD52DD52040EE15C02E2E16AE552F8
:101CE000E16EE552E7CFD9FF1200B36AB26AB18064
:101CF0001200D9CFE6FFE1CFD9FF020EE126B250A4
:101D0000DF6E010EB3CFDBFFDECF14F0DDCF15F0B9
:101D100014C0F3FF15C0F4FF020EE15C02E2E16AB9
:101D2000E552E16EE552E7CFD9FF1200E66AE66AB6
:101D300039DFE552E552E66A010EE66E33DFE55221
:101D4000E552E66A020EE66E2DDFE552E552E66ADE
:101D5000030EE66E27DFE552E552050E01010D6F19
:101D60000E6B0101050E0D195EE10E515CE1320EA4
:101D7000D8800F55010E105503E2010EE66E01D01A
:101D8000E66AE66A0FDFE552E5520101320ED880BD
:101D90001155010E125503E2010EE66E02D0E66AFD
:101DA000010EE66EFFDEE552E5520101FF0ED8801E
:101DB0001355010E145503E2010EE66E01D0E66ADA
:101DC000020EE66EEFDEE552E5520101FF0ED8800D
:101DD0001555010E165503E2010EE66E01D0E66AB6
:101DE000030EE66EDFDEE552E5520101FF0ED880FC
:101DF0001755010E18550AE2010EE66E020EE66E48
:101E0000D1DEE552E552010EE66E07D0E66A020E1B
:101E1000E66EC8DEE552E552E66A030EE66EC2DE05
:101E2000E552E5529ED71200E66AE66ABBDEE5524D
:101E3000E552E66A010EE66EB5DEE552E552E66A67
:101E4000020EE66EAFDEE552E552E66A030EE66E7E
:101E5000A9DEE552E552010EE66EE66AA3DEE55222
:101E6000E552320EE66EE66AE66EE66A0EEC0AF0BF
:101E7000E552E552E552E552E80EE66E030EE66ED7
:101E8000E4EC09F0E552E552E66AE66A8BDEE552DB
:101E9000E552000EE66EE66AE66EE66A0EEC0AF0C1
:101EA000E552E552E552E552C80EE66EE66AE4EC0C
:101EB00009F0E552E552010EE66EE66E73DEE5527C
:101EC000E552CE0EE66EE668E66EE6680EEC0AF0C7
:101ED000E552E552E552E552E80EE66E030EE66E77
:101EE000E4EC09F0E552E552E66A010EE66E5ADED0
:101EF000E552E552000EE66EE66AE66EE66A0EEC24
:101F00000AF0E552E552E552E552C80EE66EE66A81
:101F1000E4EC09F0E552E552010EE66E020EE66EC3
:101F200041DEE552E552320EE66EE66ACE0EE66E10
:101F3000E6680EEC0AF0E552E552E552E552E80E8D
:101F4000E66E030EE66EE4EC09F0E552E552E66A51
:101F5000020EE66E27DEE552E552000EE66EE66AF8
:101F6000E66EE66A0EEC0AF0E552E552E552E552FD
:101F7000C80EE66EE66AE4EC09F0E552E552010EA1
:101F8000E66E030EE66E0EDEE552E552CE0EE66E0E
:101F9000E668320EE66EE66A0EEC0AF0E552E552AD
:101FA000E552E552E80EE66E030EE66EE4EC09F04B
:101FB000E552E552E66A030EE66EF4DDE552E552BF
:101FC000000EE66EE66AE66EE66A0EEC0AF0E55290
:101FD000E552E552E552320EE66EE66A000EE66E16
:101FE000E66A0EEC0AF0E552E552E552E552E80EDB
:101FF000E66E030EE66EE4EC09F0E552E552000EE3
:10200000E66EE66A320EE66EE66A0EEC0AF0E5521D
:10201000E552E552E552E80EE66E030EE66EE4EC9C
:1020200009F0E552E552000EE66EE66AE66EE66AF3
:102030000EEC0AF0E552E552E552E55212005AEC78
:102040002AF0000902E060EC2AF00101080E0D19E7
:1020500001E080D00E5101E07DD0010EE66EE66A0F
:10206000A1DDE552E552320EE66EE66AE66EE66AFC
:102070000EEC0AF0E552E552E552E552D00EE66E5E
:10208000070EE66EE4EC09F0E552E552640EE66EEA
:10209000E66AE66EE66A0EEC0AF0E552E552E552B3
:1020A000E552E80EE66E030EE66EE4EC09F0E5524A
:1020B000E552010EE66E030EE66E74DDE552E55262
:1020C000000EE66EE66AE66EE66A0EEC0AF0E5528F
:1020D000E552E552E552F40EE66E010EE66EE4ECD2
:1020E00009F0E552E552CE0EE66EE668E66EE66869
:1020F0000EEC0AF0E552E552E552E552D00EE66EDE
:10210000070EE66EE4EC09F0E552E5529C0EE66E31
:10211000E668E66EE6680EEC0AF0E552E552E55236
:10212000E552E80EE66E030EE66EE4EC09F0E552C9
:10213000E552E66A030EE66E35DDE552E552000E25
:10214000E66EE66AE66EE66A0EEC0AF0E552E552E5
:10215000E552E552070E01010D6F0E6B70D7D9CF16
:10216000E6FFE1CFD9FF040EE126FD0EDBCF14F030
:10217000FE0EDBCF15F0B40E145C000E155869E2AC
:10218000D950FD0FE96EFF0EDA20EA6EEE50ED1029
:1021900007E1010EF36EFD0EF3CFDBFFFE0EDB6AEF
:1021A000FD0EDBCF14F0FE0EDBCF15F0166A176ABA
:1021B000410E145E000E155A165A175A14C0DFFF4E
:1021C000010E15C0DBFF020E16C0DBFF030E17C0A9
:1021D000DBFFD9CFE9FFDACFEAFFC80E0B6E0C6A3E
:1021E0000D6A0E6AEECF06F0EECF07F0EECF08F0E4
:1021F000EFCF09F0A0EC3BF005C0EDFF04C0EDFF10
:1022000003C0EDFF02C0EFFFD9CFE9FFDACFEAFF4D
:10221000730E0B6E0C6A0D6A0E6AEECF06F0EECFEF
:1022200007F0EECF08F0EFCF09F04EEC39F009C01F
:10223000EDFF08C0EDFF07C0EDFF06C0EFFFD9CFEF
:10224000E9FFDACFEAFF2C0EEE5E010EEE5A000E29
:1022500064D0FD0EDBCF14F0FE0EDBCF15F0BE0E0A
:10226000145C020E15585CE2FD0EDBCF14F0FE0E7E
:10227000DBCF15F0166A176AB40E145E000E155AFD
:10228000165A175A14C0DFFF010E15C0DBFF020EED
:1022900016C0DBFF030E17C0DBFFD9CFE9FFDACF93
:1022A000EAFF580E0B6E020E0C6E0D6A0E6AEECF30
:1022B00006F0EECF07F0EECF08F0EFCF09F0A0EC7C
:1022C0003BF005C0EDFF04C0EDFF03C0EDFF02C011
:1022D000EFFFD9CFE9FFDACFEAFF100E0B6E020E47
:1022E0000C6E0D6A0E6AEECF06F0EECF07F0EECF61
:1022F00008F0EFCF09F04EEC39F009C0EDFF08C04F
:10230000EDFF07C0EDFF06C0EFFFD9CFE9FFDACF41
:10231000EAFF640EEE5E000EEE5AEE5AEE5A5DD003
:10232000FD0EDBCF14F0FE0EDBCF15F0166A176A38
:10233000BE0E145E020E155A000E165A175A14C01D
:10234000DFFF010E15C0DBFF020E16C0DBFF030E20
:1023500017C0DBFFD9CFE9FFDACFEAFFF40E0B6E2F
:10236000010E0C6E0D6A0E6AEECF06F0EECF07F08E
:10237000EECF08F0EFCF09F0A0EC3BF005C0EDFF89
:1023800004C0EDFF03C0EDFF02C0EFFFD9CFE9FFAE
:10239000DACFEAFF0F0E0B6E010E0C6E0D6A0E6A9D
:1023A000EECF06F0EECF07F0EECF08F0EFCF09F05A
:1023B0004EEC39F009C0EDFF08C0EDFF07C0EDFF9E
:1023C00006C0EFFFD9CFE9FFDACFEAFFF40EEE2621
:1023D000010EEE22000EEE22EE22DFCF14F0010EEF
:1023E000DBCF15F014C0F3FF15C0F4FF040EE15C61
:1023F00002E2E16AE552E16EE552E7CFD9FF120051
:102400000FC127F110C128F10101296B2A6B11C1FD
:102410002BF112C12CF12D6B2E6B13C12FF114C1B6
:1024200030F1316B326B15C133F116C134F1356BBC
:10243000366B17C137F118C138F1396B3A6B19C1D6
:102440003BF11AC13CF13D6B3E6B1BC13FF11CC11E
:1024500040F1416B426B1DC143F11EC144F1456B1C
:10246000466B12000101010E776F786B796B7A6B06
:1024700027C17BF128C17CF129C17DF12AC17EF100
:102480007B0EE96E010EEA6E030EEBCFF3FF2E51C9
:10249000F318E8AE02D0F33408D0EE502B5DEE50C6
:1024A0002C59EE502D59EE502E590DE3020E776F38
:1024B000786B796B7A6B2BC17BF12CC17CF12DC1D0
:1024C0007DF12EC17EF17B0EE96E010EEA6E030EE8
:1024D000EBCFF3FF3251F318E8AE02D0F33408D05B
:1024E000EE502F5DEE503059EE503159EE503259CA
:1024F0000DE3030E776F786B796B7A6B2FC17BF1ED
:1025000030C17CF131C17DF132C17EF17B0EE96ECB
:10251000010EEA6E030EEBCFF3FF3651F318E8AE6F
:1025200002D0F33408D0EE50335DEE503459EE5003
:102530003559EE5036590DE3040E776F786B796B91
:102540007A6B33C17BF134C17CF135C17DF136C189
:102550007EF17B0EE96E010EEA6E030EEBCFF3FF08
:102560003A51F318E8AE02D0F33408D0EE50375D9C
:10257000EE503859EE503959EE503A590DE3050EE8
:10258000776F786B796B7A6B37C17BF138C17CF1EF
:1025900039C17DF13AC17EF17B0EE96E010EEA6E22
:1025A000030EEBCFF3FF3E51F318E8AE02D0F33445
:1025B00008D0EE503B5DEE503C59EE503D59EE5088
:1025C0003E590DE3060E776F786B796B7A6B3BC1E2
:1025D0007BF13CC17CF13DC17DF13EC17EF17B0EC2
:1025E000E96E010EEA6E030EEBCFF3FF4251F318D2
:1025F000E8AE02D0F33408D0EE503F5DEE504059C3
:10260000EE504159EE5042590DE3070E776F786B4B
:10261000796B7A6B3FC17BF140C17CF141C17DF1A7
:1026200042C17EF17B0EE96E010EEA6E030EEBCF26
:10263000F3FF4651F318E8AE02D0F33408D0EE5061
:10264000435DEE504459EE504559EE5046590DE366
:10265000080E776F786B796B7A6B43C17BF144C15D
:102660007CF145C17DF146C17EF17E35000E7E19BB
:1026700009E6D880640E7B55000E7C55000E7D5512
:10268000000E7E5508E3776B786B796B7A6B7B6B0A
:102690007C6B7D6B7E6B1200010E0101771917E1D7
:1026A000785115E1795113E17A5111E12BC16BF1A8
:1026B0002CC16CF12DC16DF12EC16EF143C153F1EE
:1026C00044C154F145C155F146C156F1BED0020E88
:1026D000771917E1785115E1795113E17A5111E138
:1026E0002FC16BF130C16CF131C16DF132C16EF1AE
:1026F00027C153F128C154F129C155F12AC156F11E
:10270000A4D0030E771917E1785115E1795113E13F
:102710007A5111E133C16BF134C16CF135C16DF106
:1027200036C16EF12BC153F12CC154F12DC155F1BD
:102730002EC156F18AD0040E771917E1785115E1B0
:10274000795113E17A5111E137C16BF138C16CF164
:1027500039C16DF13AC16EF12FC153F130C154F15D
:1027600031C155F132C156F170D0050E771917E11C
:10277000785115E1795113E17A5111E13BC16BF1C7
:102780003CC16CF13DC16DF13EC16EF133C153F1FD
:1027900034C154F135C155F136C156F156D0060E4B
:1027A000771917E1785115E1795113E17A5111E167
:1027B0003FC16BF140C16CF141C16DF142C16EF19D
:1027C00037C153F138C154F139C155F13AC156F10D
:1027D0003CD0070E771917E1785115E1795113E1D3
:1027E0007A5111E143C16BF144C16CF145C16DF106
:1027F00046C16EF13BC153F13CC154F13DC155F1AD
:102800003EC156F122D0080E771917E1785115E133
:10281000795113E17A5111E127C16BF128C16CF1B3
:1028200029C16DF12AC16EF13FC153F140C154F18C
:1028300041C155F142C156F108D06B6B6C6B6D6BA9
:102840006E6B536B546B556B566B530EE96E010EEA
:10285000EA6E6B51EE24146E6C51EE20156E6D51C4
:10286000EE20166E6E51EE20176ED890E850000ADA
:1028700008E6520E145C030E1558000E1658000E92
:10288000175807E3010E676F686B696B6A6BE66E3A
:1028900012D06B516C116D116E1107E1535154112F
:1028A0005511561102E1676B02D0020E676F686B1B
:1028B000696B6A6BE66AE66AD2EC0DF0E552E552A6
:1028C0001200D9CFE6FFE1CFD9FF180EE1260101B2
:1028D000BA0E836F846985698669E20E876F88699D
:1028E00089698A69E66A1FEC28F0E552F3CF57F14F
:1028F000F4CF58F10101596B5A6B636B646B656BD4
:10290000666B5F6B606B616B626B8B6B8C6B8D6BE3
:102910008E6B190EE66E010EE66E12EC26F0E55295
:10292000E552010E0618F5E10750F3E10850F1E118
:102930000950EFE1E66A2AEC0EF0E552010EE66E70
:102940002AEC0EF0E552E66A1FEC28F0E552F3CFD0
:102950005BF1F4CF5CF101015D6B5E6B570EE96ECC
:10296000010EEA6EEE505B5D5F6FEE505C59606F7A
:10297000EE505D59616FEE505E59626FD8906251B2
:10298000000A08E6B40E5F5D000E6059000E615942
:10299000000E625908E3680E5F5F010E605B000E77
:1029A000615B625B15D06235FF0E621909E6D88063
:1029B0004C0E5F55FF0E6055FF0E6155FF0E6255C0
:1029C00007E3680E5F27010E6023000E6123622378
:1029D000D8906251000A08E65A0E5F5D000E6059F9
:1029E000000E6159000E625924E36235000E62192F
:1029F00009E6D880B40E5F55000E6055000E615593
:102A0000000E625516E35FC106F060C107F061C1B8
:102A100008F062C109F0C8EC38F007C014F008C033
:102A200015F009C016F00AC017F0330E0C6E0D6ECB
:102A30004ED0D8906251000A08E62D0E5F5D000E60
:102A40006059000E6159000E625910E36235000EA4
:102A5000621909E6D8805A0E5F55000E6055000EC7
:102A60006155000E625502E3370E65D0D890625171
:102A7000000A08E6190E5F5D000E6059000E6159EC
:102A8000000E62593CE36235000E621909E6D880F7
:102A90002D0E5F55000E6055000E6155000E6255FB
:102AA0002EE35FC106F060C107F061C108F062C1AA
:102AB00009F0C8EC38F007C014F008C015F009C0E0
:102AC00016F00AC017F0330E0C6E0D6E930E0E6EDC
:102AD0003F0E0F6E14C007F015C008F016C009F0C5
:102AE00017C00AF0E1EC38F0FCEC39F006C063F1F5
:102AF00007C064F108C065F109C066F120D0D89024
:102B00006251000A08E60A0E5F5D000E6059000E71
:102B10006159000E625913E36235000E621909E62D
:102B2000D880190E5F55000E6055000E6155000EDD
:102B3000625505E3170E636F646B656B666BD88037
:102B400001016251FF0A08E64C0E5F5DFF0E6059FD
:102B5000FF0E6159FF0E625924E36235FF0E6219C0
:102B600009E6D880A60E5F55FF0E6055FF0E615531
:102B7000FF0E625516E35FC106F060C107F061C148
:102B800008F062C109F0C8EC38F007C014F008C0C2
:102B900015F009C016F00AC017F0330E0C6E0D6E5A
:102BA0004ED0D8806251FF0A08E6A60E5F5DFF0E88
:102BB0006059FF0E6159FF0E625910E36235FF0E36
:102BC000621909E6D880D30E5F55FF0E6055FF0EDF
:102BD0006155FF0E625502E3C90E65D0D88062517F
:102BE000FF0A08E6D30E5F5DFF0E6059FF0E6159C4
:102BF000FF0E62593CE36235FF0E621909E6D88088
:102C0000E70E5F55FF0E6055FF0E6155FF0E6255D2
:102C10002EE35FC106F060C107F061C108F062C138
:102C200009F0C8EC38F007C014F008C015F009C06E
:102C300016F00AC017F0330E0C6E0D6E930E0E6E6A
:102C40003F0E0F6E14C007F015C008F016C009F053
:102C500017C00AF0E1EC38F0FCEC39F006C063F183
:102C600007C064F108C065F109C066F120D0D880C2
:102C70006251FF0A08E6E70E5F5DFF0E6059FF0E26
:102C80006159FF0E625913E36235FF0E621909E6BE
:102C9000D880F60E5F55FF0E6055FF0E6155FF0E92
:102CA000625505E3E90E636F646965696669100E34
:102CB000DBCF1CF0110EDBCF1DF01E6A1F6A1DAEAC
:102CC00002D01E681F68010163511C5C186E6451BC
:102CD0001D58196E65511E581A6E66511F581B6E8D
:102CE00018C006F019C007F01AC008F0096EC8EC49
:102CF00038F007C014F008C015F009C016F00AC07B
:102D000017F0CD0E0C6ECC0E0D6E0E6E3D0E0F6ECE
:102D1000E1EC38F0CDEC39F0120E08C0DBFF130EF9
:102D200009C0DBFF120EDBCF14F0130EDBCF15F062
:102D3000166A176A15AE02D016681768630EE96E38
:102D4000010EEA6E1450EE5C0101636F1550EE58EF
:102D5000646F1650EE58656F1750EE58666FD89036
:102D60006251000A08E6110E5F5D000E6059000E08
:102D70006159000E62590FE26235FF0E621909E6D1
:102D8000D880EF0E5F55FF0E6055FF0E6155FF0EA8
:102D9000625501E27ED0800E661512E063C114F028
:102DA00064C115F065C116F066C117F0000E146C11
:102DB000151E1522161E1622171E1722148E08D055
:102DC00063C114F064C115F065C116F066C117F057
:102DD00014C0B8F0800E661511E063C114F064C130
:102DE00015F065C116F066C117F0000E146C151EC3
:102DF0001522161E1622171E172209D063C114F0C1
:102E000064C115F065C116F066C117F0148E14C0C8
:102E1000B9F0800E661512E063C114F064C115F0BC
:102E200065C116F066C117F0000E146C151E152250
:102E3000161E1622171E1722148E08D063C114F016
:102E400064C115F065C116F066C117F014C0BAF080
:102E5000800E661511E063C114F064C115F065C100
:102E600016F066C117F0000E146C151E1522161E02
:102E70001622171E172209D063C114F064C115F081
:102E800065C116F066C117F0148E14C0BBF0A6EC35
:102E900020F0100E63C1DBFF110E64C1DBFF050ED5
:102EA000E66E010EE66E12EC26F0E552E552D89081
:102EB0000950000A08E6320E065C000E0758000EA4
:102EC0000858000E095806E3010EF36E040EF3CF06
:102ED000DBFF02D0040EDB6A050EDB6A110EE66E24
:102EE000010EE66E12EC26F0E552E552D89009503C
:102EF000000A08E6320E065C000E0758000E08585D
:102F0000000E095806E3010EF36E060EF3CFDBFF49
:102F100002D0060EDB6A070EDB6A010EE66EE66E75
:102F200012EC26F0E552E552D8900950000A08E666
:102F3000320E065C000E0758000E0858000E0958A5
:102F400006E3010EF36E080EF3CFDBFF02D0080E8E
:102F5000DB6A090EDB6A0B0EE66E010EE66E12EC02
:102F600026F0E552E552D8900950000A08E6320EE4
:102F7000065C000E0758000E0858000E095806E3BC
:102F8000010EF36E0A0EF3CFDBFF02D00A0EDB6AEE
:102F90000B0EDB6AD950040FE96EDACFEAFF010E9F
:102FA000EE1827E1ED5025E1D950060FE96EDACF92
:102FB000EAFFEE50ED101DE1D950080FE96EDACFAF
:102FC000EAFFEE50ED1015E1D9500A0FE96EDACFA5
:102FD000EAFFEE50ED100DE1160EDB6A170EDB6A0C
:102FE000010EF36E0C0EF3CFDBFF0D0EDB6A010E4C
:102FF00084D2D950040FE96EDACFEAFFEE50ED101B
:1030000027E1D950060FE96EDACFEAFF010EEE187C
:103010001FE1ED501DE1D950080FE96EDACFEAFF4C
:10302000EE50ED1015E1D9500A0FE96EDACFEAFF44
:10303000EE50ED100DE1160EDB6A170EDB6A020E84
:10304000F36E0C0EF3CFDBFF0D0EDB6A020E55D2D2
:10305000D950040FE96EDACFEAFF010EEE1827E12E
:10306000ED5025E1D950060FE96EDACFEAFF010EE7
:10307000EE181DE1ED501BE1D950080FE96EDACFD3
:10308000EAFFEE50ED1013E1D9500A0FE96EDACFE6
:10309000EAFFEE50ED100BE1160EDB6A170EDB6A4D
:1030A0000C0EF36EDB6E0D0EDB6A0C0E26D2D950C1
:1030B000040FE96EDACFEAFFEE50ED1027E1D950A8
:1030C000060FE96EDACFEAFFEE50ED101FE1D9509E
:1030D000080FE96EDACFEAFF010EEE1817E1ED50A6
:1030E00015E1D9500A0FE96EDACFEAFFEE50ED1084
:1030F0000DE1160EDB6A170EDB6A030EF36E0C0E83
:10310000F3CFDBFF0D0EDB6A030EF7D1D950040FAE
:10311000E96EDACFEAFF010EEE1828E1ED5026E164
:10312000D950060FE96EDACFEAFFEE50ED101EE13E
:10313000D950080FE96EDACFEAFF010EEE1816E15A
:10314000ED5014E1D9500A0FE96EDACFEAFFEE50E4
:10315000ED100CE1160EDB6A170EDB6A0D0EF36E36
:103160000C0EF3CFDBFF0D0EDB6AC7D1D950040F75
:10317000E96EDACFEAFFEE50ED1028E1D950060FE4
:10318000E96EDACFEAFF010EEE1820E1ED501EE104
:10319000D950080FE96EDACFEAFF010EEE1816E1FA
:1031A000ED5014E1D9500A0FE96EDACFEAFFEE5084
:1031B000ED100CE1160EDB6A170EDB6AF36E0C0ED7
:1031C000F3CFDBFF0D0EDB6A170E97D1D950040F3A
:1031D000E96EDACFEAFF010EEE182BE1ED5029E19E
:1031E000D950060FE96EDACFEAFF010EEE1821E1A1
:1031F000ED501FE1D950080FE96EDACFEAFF010E5A
:10320000EE1817E1ED5015E1D9500A0FE96EDACF4B
:10321000EAFFEE50ED100DE1160EDB6A170EDB6AC9
:103220007B0EF36E0C0EF3CFDBFF0D0EDB6A7B0E15
:1032300064D1D950040FE96EDACFEAFFEE50ED10F9
:1032400027E1D950060FE96EDACFEAFFEE50ED1014
:103250001FE1D950080FE96EDACFEAFFEE50ED100A
:1032600017E1D9500A0FE96EDACFEAFF010EEE1826
:103270000FE1ED500DE1160EDB6A170EDB6A040E4E
:10328000F36E0C0EF3CFDBFF0D0EDB6A040E35D1AF
:10329000D950040FE96EDACFEAFF010EEE182AE1E9
:1032A000ED5028E1D950060FE96EDACFEAFFEE5073
:1032B000ED1020E1D950080FE96EDACFEAFFEE50A9
:1032C000ED1018E1D9500A0FE96EDACFEAFF010ECE
:1032D000EE1810E1ED500EE1160EDB6A170EDB6AF8
:1032E0000E0EF36E0C0EF3CFDBFF0D0EDB6A0E0E2F
:1032F000F36E05D1D950040FE96EDACFEAFFEE5034
:10330000ED102CE1D950060FE96EDACFEAFF010E7D
:10331000EE1824E1ED5022E1D950080FE96EDACF22
:10332000EAFFEE50ED101AE1D9500A0FE96EDACF3C
:10333000EAFF010EEE1812E1ED5010E1010EF36EFE
:10334000160EF3CFDBFF170EDB6A180EF36E0C0EB2
:10335000F3CFDBFF0D0EDB6A180ECFD0D950040F70
:10336000E96EDACFEAFF010EEE182EE1ED502CE106
:10337000D950060FE96EDACFEAFF010EEE1824E10C
:10338000ED5022E1D950080FE96EDACFEAFFEE5096
:10339000ED101AE1D9500A0FE96EDACFEAFF010EFB
:1033A000EE1812E1ED5010E1010EF36E160EF3CFA0
:1033B000DBFF170EDB6A7C0EF36E0C0EF3CFDBFF28
:1033C0000D0EDB6A7C0E99D0D950040FE96EDACF6E
:1033D000EAFFEE50ED1029E1D950060FE96EDACF81
:1033E000EAFFEE50ED1021E1D950080FE96EDACF77
:1033F000EAFF010EEE1819E1ED5017E1D9500A0F5E
:10340000E96EDACFEAFF010EEE180FE1ED500DE1A3
:10341000160EDB6A170EDB6A220EF36E0C0EF3CF6C
:10342000DBFF0D0EDB6A220E68D0D950040FE96E67
:10343000DACFEAFF010EEE182BE1ED5029E1D95069
:10344000060FE96EDACFEAFFEE50ED1021E1D95018
:10345000080FE96EDACFEAFF010EEE1819E1ED5020
:1034600017E1D9500A0FE96EDACFEAFF010EEE1824
:103470000FE1ED500DE1160EDB6A170EDB6A860ECA
:10348000F36E0C0EF3CFDBFF0D0EDB6A860E35D02C
:10349000D950040FE96EDACFEAFFEE50ED1033E1B8
:1034A000D950060FE96EDACFEAFF010EEE182BE1D4
:1034B000ED5029E1D950080FE96EDACFEAFF010E8D
:1034C000EE1821E1ED501FE1D9500A0FE96EDACF75
:1034D000EAFF010EEE1817E1ED5015E1010EF36E53
:1034E000160EF3CFDBFF170EDB6AEA0EF36E0C0E3F
:1034F000F3CFDBFF0D0EDB6AEA0EF36E0E0EF3CF99
:10350000DBFF0F0E48D0D950040FE96EDACFEAFF87
:10351000010EEE1839E1ED5037E1D950060FE96E92
:10352000DACFEAFF010EEE182FE1ED502DE1D95070
:10353000080FE96EDACFEAFF010EEE1825E1ED5033
:1035400023E1D9500A0FE96EDACFEAFF010EEE1837
:103550001BE1ED5019E1160EDB6A170EDB6AD20E85
:10356000F36E0C0EF3CFDBFF040EF36E0D0EF3CFF4
:10357000DBFFD20EF36E0E0EF3CFDBFF040EF36E05
:103580000F0EF3CFDBFF08D0160EDB6A170EDB6AD7
:103590000C0EDB6A0D0EDB6A00EC12F032EC12F05E
:1035A0004CEC13F0D9500C0FE96EDACFEAFF180E8D
:1035B000EE1808E1ED5006E10001B86BB96BBA6B8B
:1035C000BB6B1ED2D950060FE96EDACFEAFFEE5080
:1035D000ED1073E10101800E861512E083C114F035
:1035E00084C115F085C116F086C117F0000E146C69
:1035F000151E1522161E1622171E1722148E08D00D
:1036000083C114F084C115F085C116F086C117F08E
:1036100014C0B8F0800E861511E083C114F084C187
:1036200015F085C116F086C117F0000E146C151E3A
:103630001522161E1622171E172209D083C114F058
:1036400084C115F085C116F086C117F0148E14C020
:10365000B9F0800E861511E083C114F084C115F015
:1036600085C116F086C117F0000E146C151E1522C8
:10367000161E1622171E172209D083C114F084C10A
:1036800015F085C116F086C117F0148E14C0BAF07B
:10369000800E861509E083C114F084C115F085C140
:1036A00016F086C117F005D183C114F084C115F05E
:1036B00085C116F086C117F0A1D1D9500A0FE96E65
:1036C000DACFEAFFEE50ED1073E10101800E8615AE
:1036D00011E083C114F084C115F085C116F086C1D4
:1036E00017F0000E146C151E1522161E1622171E3A
:1036F000172209D083C114F084C115F085C116F0DA
:1037000086C117F0148E14C0B8F0800E861512E032
:1037100083C114F084C115F085C116F086C117F07D
:10372000000E146C151E1522161E1622171E1722C7
:10373000148E08D083C114F084C115F085C116F031
:1037400086C117F014C0B9F0800E861512E083C14F
:1037500014F084C115F085C116F086C117F0000E73
:10376000146C151E1522161E1622171E1722148EF3
:1037700008D083C114F084C115F085C116F086C14C
:1037800017F014C0BAF0800E861509E083C114F05A
:1037900084C115F085C116F086C117F01DD183C113
:1037A00014F084C115F085C116F086C117F025D13B
:1037B000D950040FE96EDACFEAFF010EEE1801E0EE
:1037C0008AD0ED5001E087D0D950020FE96EDACFF0
:1037D000EAFF010EEE1801E015D1ED5001E012D123
:1037E0000101800E8A1512E087C114F088C115F01E
:1037F00089C116F08AC117F0000E146C151E15222F
:10380000161E1622171E1722148E08D087C114F018
:1038100088C115F089C116F08AC117F014C0B8F03C
:10382000800E8A1512E087C114F088C115F089C195
:1038300016F08AC117F0000E146C151E1522161E04
:103840001622171E1722148E08D087C114F088C1C3
:1038500015F089C116F08AC117F014C0B9F0800EB6
:103860008A1512E087C114F088C115F089C116F0DD
:103870008AC117F0000E146C151E1522161E162292
:10388000171E1722148E08D087C114F088C115F0B6
:1038900089C116F08AC117F014C0BAF0800E8A15DB
:1038A00011E087C114F088C115F089C116F08AC1F2
:1038B00017F0000E146C151E1522161E1622171E68
:1038C00017229BD087C114F088C115F089C116F06A
:1038D0008AC117F093D0D950080FE96EDACFEAFF0A
:1038E000010EEE1801E08ED0ED5001E08BD0D950E2
:1038F000020FE96EDACFEAFF010EEE1801E082D086
:10390000ED5001E07FD00101800E8A1511E087C1E2
:1039100014F088C115F089C116F08AC117F0000EA5
:10392000146C151E1522161E1622171E172209D0FA
:1039300087C114F088C115F089C116F08AC117F04B
:10394000148E14C0B8F0800E8A1511E087C114F0EF
:1039500088C115F089C116F08AC117F0000E146CE9
:10396000151E1522161E1622171E172209D087C1F2
:1039700014F088C115F089C116F08AC117F0148EB1
:1039800014C0B9F0800E8A1511E087C114F088C107
:1039900015F089C116F08AC117F0000E146C151EBF
:1039A0001522161E1622171E172209D087C114F0E1
:1039B00088C115F089C116F08AC117F0148E14C0A1
:1039C000BAF0800E8A1511E087C114F088C115F095
:1039D00089C116F08AC117F0000E146C151E15224D
:1039E000161E1622171E172209D087C114F088C18F
:1039F00015F089C116F08AC117F0148E14C0BBF0FF
:103A0000A6EC20F0010E0101771907E1785105E1DC
:103A1000795103E17A5101E156D1020E77196CE137
:103A200078516AE1795168E17A5166E1020EDB6A08
:103A3000030EDB6A800E861511E083C114F084C189
:103A400015F085C116F086C117F0000E146C151E16
:103A50001522161E1622171E172209D083C114F034
:103A600084C115F085C116F086C117F0148E14C0FC
:103A7000B8F0800E861512E083C114F084C115F0F1
:103A800085C116F086C117F0000E146C151E1522A4
:103A9000161E1622171E1722148E08D083C114F08A
:103AA00084C115F085C116F086C117F014C0B9F0B5
:103AB000800E861512E083C114F084C115F085C113
:103AC00016F086C117F0000E146C151E1522161E76
:103AD0001622171E1722148E08D083C114F084C139
:103AE00015F085C116F086C117F014C0BAF0800E2B
:103AF000861501E044D254D2030E77196CE1785157
:103B00006AE1795168E17A5166E1020EDB6A030EDF
:103B1000DB6A800E861511E083C114F084C115F0B4
:103B200085C116F086C117F0000E146C151E152203
:103B3000161E1622171E172209D083C114F084C145
:103B400015F085C116F086C117F0148E14C0B8F0B8
:103B5000800E861512E083C114F084C115F085C172
:103B600016F086C117F0000E146C151E1522161ED5
:103B70001622171E1722148E08D083C114F084C198
:103B800015F085C116F086C117F014C0B9F0800E8B
:103B9000861512E083C114F084C115F085C116F0BA
:103BA00086C117F0000E146C151E1522161E162263
:103BB000171E1722148E08D083C114F084C115F08B
:103BC00085C116F086C117F014C0BAF0800E8615B4
:103BD00001E1E6D1D4D1040E77196CE178516AE1A4
:103BE000795168E17A5166E1020EDB6A030EDB6A05
:103BF000800E861511E083C114F084C115F085C1D3
:103C000016F086C117F0000E146C151E1522161E34
:103C10001622171E172209D083C114F084C115F093
:103C200085C116F086C117F0148E14C0B8F0800E4E
:103C3000861512E083C114F084C115F085C116F019
:103C400086C117F0000E146C151E1522161E1622C2
:103C5000171E1722148E08D083C114F084C115F0EA
:103C600085C116F086C117F014C0B9F0800E861514
:103C700012E083C114F084C115F085C116F086C12D
:103C800017F0000E146C151E1522161E1622171E94
:103C90001722148E08D083C114F084C115F085C199
:103CA00016F086C117F014C0BAF0800E861501E137
:103CB00077D165D1050E771913E1785111E179516A
:103CC0000FE17A510DE1010EF36E020EF3CFDBFF2F
:103CD000030EDB6A0001B86BB96BBA6BBB6B6BD1BF
:103CE000060E77196CE178516AE1795168E17A51F1
:103CF00066E1020EDB6A030EDB6A800E861511E0B8
:103D000083C114F084C115F085C116F086C117F087
:103D1000000E146C151E1522161E1622171E1722D1
:103D200009D083C114F084C115F085C116F086C195
:103D300017F0148E14C0B8F0800E861512E083C1FF
:103D400014F084C115F085C116F086C117F0000E7D
:103D5000146C151E1522161E1622171E1722148EFD
:103D600008D083C114F084C115F085C116F086C156
:103D700017F014C0B9F0800E861512E083C114F05C
:103D800084C115F085C116F086C117F0000E146CC1
:103D9000151E1522161E1622171E1722148E08D065
:103DA00083C114F084C115F085C116F086C117F0E7
:103DB00014C0BAF0800E861501E1F2D0E0D0070EF3
:103DC00077196CE178516AE1795168E17A5166E1DD
:103DD000020EDB6A030EDB6A800E861511E083C1DA
:103DE00014F084C115F085C116F086C117F0000EDD
:103DF000146C151E1522161E1622171E172209D026
:103E000083C114F084C115F085C116F086C117F086
:103E1000148E14C0B8F0800E861512E083C114F021
:103E200084C115F085C116F086C117F0000E146C20
:103E3000151E1522161E1622171E1722148E08D0C4
:103E400083C114F084C115F085C116F086C117F046
:103E500014C0B9F0800E861512E083C114F084C13D
:103E600015F085C116F086C117F0000E146C151EF2
:103E70001522161E1622171E1722148E08D083C173
:103E800014F084C115F085C116F086C117F014C076
:103E9000BAF0800E861501E183D071D0080E771933
:103EA00001E08DD0785101E08AD0795101E087D0CE
:103EB0007A5101E084D0020EDB6A030EDB6A800EC9
:103EC000861511E083C114F084C115F085C116F088
:103ED00086C117F0000E146C151E1522161E162230
:103EE000171E172209D083C114F084C115F085C1B3
:103EF00016F086C117F0148E14C0B8F0800E861527
:103F000012E083C114F084C115F085C116F086C19A
:103F100017F0000E146C151E1522161E1622171E01
:103F20001722148E08D083C114F084C115F085C106
:103F300016F086C117F014C0B9F0800E861512E095
:103F400083C114F084C115F085C116F086C117F045
:103F5000000E146C151E1522161E1622171E17228F
:103F6000148E08D083C114F084C115F085C116F0F9
:103F700086C117F014C0BAF0800E861511E083C117
:103F800014F084C115F085C116F086C117F0000E3B
:103F9000146C151E1522161E1622171E172209D084
:103FA00083C114F084C115F085C116F086C117F0E5
:103FB000148E14C0BBF0A6EC20F0A3EF14F0010E99
:103FC000F36E020EF3CFDBFF030EDB6AA3EF14F0F8
:103FD000C76A110EC86E280EC66E400EC56E948656
:103FE00094889F869E969D86A286A196A08606D8D6
:103FF000A00EE66EAAEC3CF0E5521200D9CFE6FF27
:10400000E1CFD9FFE652C950DF6EC69AC69CC69E64
:10401000C59CC59A0001846B82B803D00DD80001FD
:10402000BE6B9E96A196806B816B826BC68AE552B1
:10403000E552E7CFD9FF1200D9CFE6FFE1CFD9FF94
:10404000E6528A88C69ADF6A090EDF5C0EE2949611
:10405000020EE66EC4EC3CF0E5529486020EE66E6B
:10406000C4EC3CF0E552DF2AEFD7E552E552E7CF4A
:10407000D9FF12000001816B1F0EC51403E1C75068
:10408000040B07E00A0E146E8151145CF5E2E8EFB0
:104090001FF01200D9CFE6FFE1CFD9FFE652DF6A69
:1040A000020E0001815DFCE3E5DFFE0EDBCF83F055
:1040B000FD0EDBCF85F00001816B010E806FC580A6
:1040C000805112E0020E146E8151145C03E2800EE6
:1040D0008011826F8251F4E0C5847ADFDF2A050EF9
:1040E000DF5CE9E3000E02D0816B010EE552E55280
:1040F000E7CFD9FF1200D9CFE6FFE1CFD9FF020EFB
:104100000001815DFCE3B6DFFE0EDB50010900011A
:10411000836FFD0EDBCF85F0816B0B0E806FC5804A
:1041200080510EE0020E146E8151145C03E2800E89
:104130008011826F8251F4E0C5844ADF000E02D004
:10414000816B010EE552E7CFD9FF1200D9CFE6FF10
:10415000E1CFD9FFE652DF6A060EDF5C13E2DF50E3
:10416000EA6AB80FE96E000EEA22EF50E66EDF5001
:10417000EA6A860FE96E000EEA22E552E750EF6E1A
:10418000DF2AEAD7060EE66E140EE66E83DFE552EE
:10419000E552E552E552E7CFD9FF1200D9CFE6FF4D
:1041A000E1CFD9FFE652DF6A060EDF5C09E2DF509D
:1041B000EA6AB80FE96E000EEA22EF6ADF2AF4D746
:1041C000C5DFE552E552E7CFD9FF1200D9CFE6FFB0
:1041D000E1CFD9FF020EE126DF6A146AFE0EDB5042
:1041E000145C09E2FE0EDB04E824300FE76E010EDA
:1041F000E7CFDBFF02D0010EDB6ADF50DF2AEA6A7D
:10420000860FE96E000EEA22010EEF6EDF50DF2A04
:10421000EA6A860FE96E000EEA22EF6ADFCFE6FF58
:10422000010EDBCFE6FF36DFE552E552020EE15C20
:1042300002E2E16AE552E16EE552E7CFD9FF1200F2
:10424000D9CFE6FFE1CFD9FF020EE126DF6A146A7B
:10425000FE0EDB50145C09E2FE0EDB04E824300F96
:10426000E76E010EE7CFDBFF02D0010EDB6ADF5005
:10427000DF2AEA6A860FE96E000EEA22010EEF6E6F
:10428000DF50DF2AEA6A860FE96E000EEA22010E8D
:10429000EF6EDFCFE6FFDBCFE6FFFCDEE552E55257
:1042A000640EE66EE66AE4EC09F0E552E552020EB1
:1042B000E15C02E2E16AE552E16EE552E7CFD9FF47
:1042C0001200D9CFE6FFE1CFD9FF020EE126146A32
:1042D000FE0EDB50145C09E2FE0EDB04E824300F16
:1042E000E76E010EE7CFDBFF02D0010EDB6ADF6A6B
:1042F000DF50DF2AEA6A860FE96E000EEA22030E1B
:10430000EF6EDF50DF2AEA6A860FE96E000EEA22BE
:10431000120EEF6EDF50DF2AEA6A860FE96E000E9A
:10432000EA22FC0EDBCFEFFFDF50DF2AEA6A860FBE
:10433000E96E000EEA22FA0EDBCFEFFFDFCFE6FFD9
:10434000010EDBCFE6FFA6DEE552E552020EE15C90
:1043500002E2E16AE552E16EE552E7CFD9FF1200D1
:10436000D9CFE6FFE1CFD9FF020EE126146AFE0E97
:10437000DB50145C09E2FE0EDB04E824300FE76E2C
:10438000010EE7CFDBFF02D0010EDB6ADF6ADF50F0
:10439000DF2AEA6A860FE96E000EEA22030EEF6E4C
:1043A000DF50DF2AEA6A860FE96E000EEA22130E5A
:1043B000EF6EDF50DF2AEA6A860FE96E000EEA220E
:1043C000FD0EDBCFEFFFDF50DF2AEA6A860FE96ED2
:1043D000000EEA22FC0EDBCFEFFFDFCFE6FF010E7F
:1043E000DBCFE6FF57DEE552E552020EE15C02E26A
:1043F000E16AE552E16EE552E7CFD9FF1200D9CF6D
:10440000E6FFE1CFD9FF020EE126146AFE0EDB5073
:10441000145C09E2FE0EDB04E824300FE76E010EA7
:10442000E7CFDBFF02D0010EDB6ADF6ADF50DF2A55
:10443000EA6A860FE96E000EEA22030EEF6EDF5085
:10444000DF2AEA6A860FE96E000EEA22140EEF6E8A
:10445000DF50DF2AEA6A860FE96E000EEA22FD0EBF
:10446000DBCFEFFFDF50DF2AEA6A860FE96E000E2E
:10447000EA22FC0EDBCFEFFFDFCFE6FF010EDBCF42
:10448000E6FF08DEE552E552020EE15C02E2E16A77
:10449000E552E16EE552E7CFD9FF1200D9CFE6FF32
:1044A000E1CFD9FF020EE126146AFE0EDB50145C48
:1044B00009E2FE0EDB04E824300FE76E010EE7CFC1
:1044C000DBFF02D0010EDB6ADF6ADF50DF2AEA6A17
:1044D000860FE96E000EEA22020EEF6EDF50DF2A31
:1044E000EA6A860FE96E000EEA22150EEF6EDF50C3
:1044F000DF2AEA6A860FE96E000EEA22FD0EDBCFA4
:10450000EFFFDFCFE6FF010EDBCFE6FFC3DDE552B5
:10451000E552020EE15C02E2E16AE552E16EE5522B
:10452000E7CFD9FF1200D9CFE6FFE1CFD9FF060EC2
:10453000E126146AFE0EDB50145C09E2FE0EDB0479
:10454000E824300FE76E050EE7CFDBFF02D0050E43
:10455000DB6A040EDB6ADBCFF3FFDB2AF350EA6A87
:10456000860FE96E000EEA22060EEF6E040EDBCF18
:10457000F3FFDB2AF350EA6A860FE96E000EEA22A7
:10458000160EEF6E040EDBCFF3FFDB2AF350EA6A60
:10459000860FE96E000EEA22FD0EDBCFEFFFD9CFCA
:1045A000E9FFDACFEAFFF90EDBCFEEFFFA0EDBCF41
:1045B000EEFFFB0EDBCFEEFFFC0EDBCFEEFF040EBB
:1045C000DBCFF3FFDB2AF350EA6A860FE96E000EB9
:1045D000EA22DFCFEFFF040EDBCFF3FFDB2AF3503D
:1045E000EA6A860FE96E000EEA22010EDBCFEFFFCA
:1045F000040EDBCFF3FFDB2AF350EA6A860FE96E85
:10460000000EEA22020EDBCFEFFF040EDBCFF3FF3A
:10461000DB2AF350EA6A860FE96E000EEA22030EE7
:10462000DBCFEFFF040EDBCFE6FF050EDBCFE6FFAF
:1046300031DDE552E552060EE15C02E2E16AE55247
:10464000E16EE552E7CFD9FF1200D9CFE6FFE1CF07
:10465000D9FF040EE126146AFE0EDB50145C09E259
:10466000FE0EDB04E824300FE76E030EE7CFDBFF1E
:1046700002D0030EDB6A020EDB6ADBCFF3FFDB2A1C
:10468000F350EA6A860FE96E000EEA22010EEF6E21
:10469000020EDBCFF3FFDB2AF350EA6A860FE96EE6
:1046A000000EEA22800EEF6E020EDBCFE6FF030E55
:1046B000DBCFE6FFEFDCE552E55200090AE00A0E27
:1046C000E66E030EDBCFE6FF16DDE552E55200098C
:1046D00002E1000E21D0020EDB6A0A0EF36E020E1A
:1046E000DBCFF4FFF350F45C16E2020EDB50EA6A13
:1046F000860FE96E000EEA22EF50E66E020EDB50E6
:10470000EA6AC00FE96E010EEA22E552E750EF6E49
:10471000020EDB2AE2D7010E146E040EE15C02E207
:10472000E16AE552E16E1450E552E7CFD9FF12007D
:10473000D9CFE6FFE1CFD9FF050EE126146AFE0EC0
:10474000DB50145C09E2FE0EDB04E824300FE76E58
:10475000020EE7CFDBFF02D0020EDB6A030EDB6A3C
:104760000A0EF36EFD0EDBCFF4FFF350F45C02E2B1
:10477000020E01D0160EE76E040EE7CFDBFF030E2C
:10478000DBCFF3FFDB2AF350EA6A860FE96E000EF7
:10479000EA22020EEF6E030EDBCFF3FFDB2AF350AB
:1047A000EA6A860FE96E000EEA22810EEF6E030EB2
:1047B000DBCFF3FFDB2AF350EA6A860FE96E000EC7
:1047C000EA22FD0EDBCFEFFF030EDBCFE6FF020E8A
:1047D000DBCFE6FF5FDCE552E55200090BE0040E9B
:1047E000DBCFE6FF020EDBCFE6FF85DCE552E552CC
:1047F000000902E1F36A49D0040EDB5002080EE121
:1048000086C0DFFF010E87C0DBFFDECF14F0DDCFF7
:1048100015F014C0F3FF15C0F4FF38D0030EDB6AA7
:104820000A0EF36E030EDBCFF4FFF350F45C27E2C5
:10483000030EDB50E824EA6A860FE96E000EEA22D6
:10484000EFCFDFFF030EDB50E824010FEA6A860F8B
:10485000E96E000EEA22010EEFCFDBFF030EEA6ADB
:10486000DB34FE0BEA36E96EAC0EE926010EEA22D5
:10487000DECFEEFFDDCFEDFF030EDB2AD1D79AC0EE
:10488000CAF19BC0CBF1010EF36EF46A050EE15C38
:1048900002E2E16AE552E16EE552E7CFD9FF12008C
:1048A000D9CFE6FFE1CFD9FF040EE126146AFE0E50
:1048B000DB50145C09E2FE0EDB04E824300FE76EE7
:1048C000030EE7CFDBFF02D0030EDB6A020EDB6ACA
:1048D000DBCFF3FFDB2AF350EA6A860FE96E000EA6
:1048E000EA22010EEF6E020EDBCFF3FFDB2AF3505C
:1048F000EA6A860FE96E000EEA22820EEF6E020E61
:10490000DBCFE6FF030EDBCFE6FF4AEC20F0E552FB
:10491000E55200090BE0020EE66E030EDBCFE6FF68
:104920007BEC20F0E552E552000903E1F36AF46AFA
:104930000DD086C0DFFF010E87C0DBFFDECF14F095
:10494000DDCF15F014C0F3FF15C0F4FF040EE15CD9
:1049500002E2E16AE552E16EE552E7CFD9FF1200CB
:10496000D9CFE6FFE1CFD9FF020EE126030E146E88
:10497000FD0EDB50145C42E3146AFE0EDB50145C47
:1049800009E2FE0EDB04E824300FE76E010EE7CFEC
:10499000DBFF02D0010EDB6ADF6ADF50DF2AEA6A42
:1049A000860FE96E000EEA22020EEF6EDF50DF2A5C
:1049B000EA6A860FE96E000EEA22830EEF6EDF5080
:1049C000DF2AEA6A860FE96E000EEA22FD0EDBCFCF
:1049D000EFFFDFCFE6FF010EDBCFE6FF4AEC20F072
:1049E000E552E55200090AE0010EE66EDBCFE6FF74
:1049F0007BEC20F0E552E552000902E1000E02D006
:104A000000018651146E020EE15C02E2E16AE55299
:104A1000E16E1450E552E7CFD9FF1200D9CFE6FF7F
:104A2000E1CFD9FF020EE126090E146EFD0EDB5018
:104A3000145C42E3146AFE0EDB50145C09E2FE0EC5
:104A4000DB04E824300FE76E010EE7CFDBFF02D076
:104A5000010EDB6ADF6ADF50DF2AEA6A860FE96E41
:104A6000000EEA22020EEF6EDF50DF2AEA6A860F9E
:104A7000E96E000EEA22840EEF6EDF50DF2AEA6A4A
:104A8000860FE96E000EEA22FD0EDBCFEFFFDFCFCF
:104A9000E6FF010EDBCFE6FF4AEC20F0E552E552DF
:104AA00000090AE0010EE66EDBCFE6FF7BEC20F0AA
:104AB000E552E552000902E1000E02D000018651E4
:104AC000146E020EE15C02E2E16AE552E16E1450FE
:104AD000E552E7CFD9FF1200D9CFE6FFE1CFD9FFEA
:104AE000060EE126030E146EFD0EDB50145C4DE342
:104AF000146AFE0EDB50145C09E2FE0EDB04E824AF
:104B0000300FE76E050EE7CFDBFF02D0050EDB6A44
:104B1000040EDB6ADBCFF3FFDB2AF350EA6A860F71
:104B2000E96E000EEA22020EEF6E040EDBCFF3FFF9
:104B3000DB2AF350EA6A860FE96E000EEA22850E40
:104B4000EF6E040EDBCFF3FFDB2AF350EA6A860F29
:104B5000E96E000EEA22FD0EDBCFEFFF040EDBCF85
:104B6000E6FF050EDBCFE6FF4AEC20F0E552E5520A
:104B700000090BE0040EE66E050EDBCFE6FF7BECD2
:104B800020F0E552E552000905E1066A076A086A65
:104B9000096A3ED0040EDB6ADBCFF3FFDB2AF35059
:104BA000EA6A860FE96E000EEA22EFCFDFFF040EFD
:104BB000DBCFF3FFDB2AF350EA6A860FE96E000EC3
:104BC000EA22010EEFCFDBFF040EDBCFF3FFDB2A7F
:104BD000F350EA6A860FE96E000EEA22020EEFCF6A
:104BE000DBFF040EDBCFF3FFDB2AF350EA6A860F0C
:104BF000E96E000EEA22030EEFCFDBFFDECF06F0F8
:104C0000DECF07F0DECF08F0DDCF09F0DD52DD5258
:104C1000060EE15C02E2E16AE552E16EE552E7CFA1
:104C2000D9FF1200D9CFE6FFE1CFD9FF060EE1266A
:104C3000190E146EFD0EDB50145C4DE3146AFE0E6B
:104C4000DB50145C09E2FE0EDB04E824300FE76E53
:104C5000050EE7CFDBFF02D0050EDB6A040EDB6A30
:104C6000DBCFF3FFDB2AF350EA6A860FE96E000E12
:104C7000EA22020EEF6E040EDBCFF3FFDB2AF350C5
:104C8000EA6A860FE96E000EEA22860EEF6E040EC7
:104C9000DBCFF3FFDB2AF350EA6A860FE96E000EE2
:104CA000EA22FD0EDBCFEFFF040EDBCFE6FF050EA1
:104CB000DBCFE6FF4AEC20F0E552E55200090BE0BD
:104CC000040EE66E050EDBCFE6FF7BEC20F0E5522E
:104CD000E552000905E1066A076A086A096A3ED0DA
:104CE000040EDB6ADBCFF3FFDB2AF350EA6A860FA0
:104CF000E96E000EEA22EFCFDFFF040EDBCFF3FFF9
:104D0000DB2AF350EA6A860FE96E000EEA22010EF2
:104D1000EFCFDBFF040EDBCFF3FFDB2AF350EA6AB1
:104D2000860FE96E000EEA22020EEFCFDBFF040EC3
:104D3000DBCFF3FFDB2AF350EA6A860FE96E000E41
:104D4000EA22030EEFCFDBFFDECF06F0DECF07F067
:104D5000DECF08F0DDCF09F0DD52DD52060EE15C5A
:104D600002E2E16AE552E16EE552E7CFD9FF1200B7
:104D7000D9CFE6FFE1CFD9FF030EE126500EDF6E5B
:104D8000010EDB6A020EDB6A010EDBCFF3FFDB2ACA
:104D9000F350EA6A860FE96E000EEA22350EEF6ED6
:104DA000010EDBCFE6FFDFCFE6FF4AEC20F0E55255
:104DB000E55200090AE0010EE66EDFCFE6FF7BEC6C
:104DC00020F0E552E552000902E1020E07D0030E81
:104DD00000018615E76E020EE7CFDBFFDB50146E95
:104DE000030EE15C02E2E16AE552E16E1450E55225
:104DF000E7CFD9FF1200D9CFE6FFE1CFD9FF030EED
:104E0000E126500EDF6E010EDB6A020EDB6A010E38
:104E1000DBCFF3FFDB2AF350EA6A860FE96E000E60
:104E2000EA22350EEF6E010EDBCFE6FFDFCFE6FFA5
:104E30004AEC20F0E552E55200090AE0010EE66E68
:104E4000DFCFE6FF7BEC20F0E552E552000903E1FD
:104E5000020EDB500AD00C0E00018615E76E020E22
:104E6000E7CFDBFFDB40E8403F0B146E030EE15C55
:104E700002E2E16AE552E16E1450E552E7CFD9FF54
:104E80001200D9CFE6FFE1CFD9FF030EE126500E85
:104E9000DF6E010EDB6A020EDB6A010EDBCFF3FF71
:104EA000DB2AF350EA6A860FE96E000EEA22350E1D
:104EB000EF6E010EDBCFE6FFDFCFE6FF4AEC20F01E
:104EC000E552E55200090AE0010EE66EDFCFE6FF8B
:104ED0007BEC20F0E552E552000903E1020EDB50C5
:104EE00009D0300E00018615E76E020EE7CFDBFF1A
:104EF000DB380F0B146E030EE15C02E2E16AE5524F
:104F0000E16E1450E552E7CFD9FF1200D9CFE6FF8A
:104F1000E1CFD9FF020EE126500EDF6E010EDB6AF3
:104F20008A0EE66E020EE66EE4EC09F0E552E552FA
:104F3000010EDBCFF3FFDB2AF350EA6A860FE96E3E
:104F4000000EEA223B0EEF6E010EDBCFF3FFDB2AF1
:104F5000F350EA6A860FE96E000EEA22EF6A010E4C
:104F6000DBCFE6FFDFCFE6FF4AEC20F0E552E5526B
:104F7000000954E0010EDB6ADBCFF3FFDB2AF350BC
:104F8000EA6A860FE96E000EEA22410EEF6E010E0C
:104F9000DBCFF3FFDB2AF350EA6A860FE96E000EDF
:104FA000EA22210EEF6E010EDBCFF3FFDB2AF35076
:104FB000EA6A860FE96E000EEA22040EEF6E010E19
:104FC000DBCFE6FFDFCFE6FF4AEC20F0E552E5520B
:104FD000000924E0010EDB6ADBCFF3FFDB2AF3508C
:104FE000EA6A860FE96E000EEA223D0EEF6E010EB0
:104FF000DBCFF3FFDB2AF350EA6A860FE96E000E7F
:10500000EA220C0EEF6E010EDBCFE6FFDFCFE6FFEC
:105010004AEC20F0E552E552000902E1000E03D00F
:105020000001010EBE6F146E020EE15C02E2E16A45
:10503000E552E16E1450E552E7CFD9FF1200D9CF07
:10504000E6FFE1CFD9FF040EE126500EDF6E00012E
:10505000BE5101E15BDF010EDB6ADBCFF3FFDB2A30
:10506000F350EA6A860FE96E000EEA221A0EEF6E1E
:10507000010EDBCFE6FFDFCFE6FF4AEC20F0E55282
:10508000E552000901E199D0060EE66EDFCFE6FF9A
:105090007BEC20F0E552E552000901E18ED0010ED3
:1050A000DB6ADBCFF3FFDB2AF350EA6A860FE96E97
:1050B000000EEA22020EEFCFDBFF010EDBCFF3FF83
:1050C000DB2AF350EA6A860FE96E000EEA22030E2D
:1050D000EFCFDBFF020EDBCFBFF0030EDBCFC0F064
:1050E000040E0F0B000105E0D890C033BF33E80673
:1050F000FBE1010EDBCFF3FFDB2AF350EA6A860FF8
:10510000E96E000EEA22020EEFCFDBFF010EDBCFCD
:10511000F3FFDB2AF350EA6A860FE96E000EEA22FB
:10512000030EEFCFDBFFD950020FE96EDACFEAFFB3
:10513000A00EEE26050EED22020EDBCFC3F0030E0D
:10514000DBCFC4F0040E0F0B000105E0D890C43390
:10515000C333E806FBE1010EDBCFF3FFDB2AF3509C
:10516000EA6A860FE96E000EEA22020EEFCFDBFF3D
:10517000010EDBCFF3FFDB2AF350EA6A860FE96EFC
:10518000000EEA22030EEFCFDBFFD950020FE96ECB
:10519000DACFEAFF400EEE260B0EED22020EDBCF39
:1051A000C1F0030EDBCFC2F0040E0F0B000105E0CF
:1051B000D890C233C133E806FBE1FE0EEA6ADB3465
:1051C000FE0BEA36E96EBF0EE926000EEA22EECFAC
:1051D00014F0EFCF15F014C0F3FF15C0F4FF040E68
:1051E000E15C02E2E16AE552E16EE552E7CFD9FF08
:1051F0001200D9CFE6FFE1CFD9FF080EE126FE0E5F
:10520000DB50020804E1B40E146E156A04D0680E77
:10521000146E010E156E060E14C0DBFF070E15C0CE
:10522000DBFF060EDBCF18F0070EDBCF19F0FC0E0C
:10523000DB501824166EFD0EDB501920176EFA0E87
:10524000DB50165C146EFB0EDB501758156E14C045
:1052500008F0096E060EDBCF0DF0070EDBCF0EF067
:1052600064EC3CF0020E04C0DBFF030E05C0DBFF64
:10527000060EDBCF18F0070EDBCF19F0FC0EDB506B
:105280001824166EFD0EDB501920176EFA0EDB5037
:105290001624146EFB0EDB501720156E14C008F098
:1052A000096E060EDBCF0DF0070EDBCF0EF064ECBF
:1052B0003CF0040E04C0DBFF050E05C0DBFFFE0E54
:1052C000DBCFE6FFBCDEE552F3CFDEFFF4CFDDFF40
:1052D000020EDBCF14F0030EDBCF15F0040EDBCF94
:1052E00016F0050EDBCF17F01650145C175015584A
:1052F0001FE2DECF14F0DDCF15F0020EDBCF16F08B
:10530000030EDBCF17F01650145C175015582EE320
:10531000040EDBCF18F0050EDBCF19F0DECF1AF04C
:10532000DDCF1BF01A50185C1B50195821E21ED01B
:10533000DECF14F0DDCF15F0020EDBCF16F0030E3A
:10534000DBCF17F01650145C1750155811E2040EFD
:10535000DBCF18F0050EDBCF19F0DECF1AF0DDCF72
:105360001BF01A50185C1B50195802E2000E01D0B5
:10537000010E146E080EE15C02E2E16AE552E16E94
:0A5380001450E552E7CFD9FF1200E8
:06538A009D9A9E9A040E9C
:10539000AC6E800EAB6EB886B06A440EAF6E240E53
:1053A000AC6E900EAB6E0001E86B200EE85D09E27A
:1053B000E851EA6AC50FE96E000EEA22EF6AE82BAF
:1053C000F4D7E96BE9C0E8F0EB6B9F9A9E9A9D8A4F
:1053D0001200D9CFE6FFE1CFD9FFACA2FED7FE0E77
:1053E000DB50AD6EE552E7CFD9FF1200D9CFE6FF13
:1053F000E1CFD9FFFD0EDBCFE9FFFE0EDBCFEAFFE9
:10540000EF500EE0FD0EDBCFE9FFDB2AFE0EDBCF17
:10541000EAFF01E3DB2AEF50E66EDBDFE552EAD775
:10542000E552E7CFD9FF1200D9CFE6FFE1CFD9FF90
:10543000FC0EDBCFF6FFFD0EDBCFF7FFFE0EDBCF62
:10544000F8FF0800F55016E0D950FC0FE96EFF0E8A
:10545000DA20EA6EEFCFF6FFEE2AEFCFF7FF000E6D
:10546000EE22EFCFF8FFEE220800F550E66EB1DF36
:10547000E552DED7E552E7CFD9FF1200D9CFE6FFDC
:10548000E1CFD9FFE6520001E951EA6AC50FE96EA2
:10549000000EEA22EFCFDFFF200E146EE92BE95158
:1054A000D880145401E3E96BDF50E552E552E7CFB1
:1054B000D9FF12000001E851E95D01E1000C010C87
:1054C000D9CFE6FFE1CFD9FF200EE1261B0EDB6A24
:1054D0000001E66BE76B0001640ED880E655000E14
:1054E000E75501E234D0E6DF000901E1F4D7C6DF79
:1054F000E76E180EE7CFDBFF180EDBCF14F0200E9F
:10550000E76E1418E8AE02D0E73402D0E750145C1E
:1055100001E21DD0170E146E1B0EDB50145C01E26D
:1055200016D0D9CF14F0DACF15F01B0EDBCFF3FF76
:10553000DB2AF3500F011424E96E000E1520EA6EE9
:10554000180EDBCFEFFF0001E66BE76BC4D7D9CFB6
:1055500014F0DACF15F01B0EDB500F011424E96EA6
:10556000000E1520EA6EEF6A1B0EDB5001E152D1EE
:10557000DF50520A01E147D1040A01E142D1140A85
:1055800001E132D10F0A01E1E0D0020A01E1B3D01A
:10559000030A01E186D0050A6AE03A0A33E0200AEC
:1055A00001E033D1640E0101CC6FCD6B010EDB50F5
:1055B000310A16E0010A01E020D0030EDB50310869
:1055C00005E132D90101AA81899E09D00101AA9180
:1055D0000101AB6BABC1E6FFE6EC20F0E5520DD06C
:1055E000030EDB50310802E1010E01D0000E010173
:1055F000E8B0AA83E8A0AA9300D0010E01010D6FC4
:105600000E6B08D1010EDB50650830E1020EDB5055
:1056100074082CE1030EDB505F0828E1040EDB5018
:10562000620824E1050EDB506E0820E1060EDB5017
:105630006F081CE186EC27F0010814E10D0EF36EF3
:10564000070EF3CFDBFF0A0EF36E080EF3CFDBFF7E
:10565000090EDB6AD9CFE6FFDACFE6FFC7DEE552F7
:10566000E55204D0150EE66EB4DEE552D3D0010E3D
:10567000DB5044080EE1300EF36E030EDBCFF4FF77
:10568000F350F45C06E3390E146E030EDB50145C29
:1056900001E2C0D0030EDB50D00F0101AB6FC4D8C4
:1056A000B9D0010EDB50D00FE76E190EE7CFDBFF4C
:1056B000030EDB50D00FE76E1A0EE7CFDBFF0101C0
:1056C000AB510BE11A0EDBCFE6FF190EDBCFE6FF85
:1056D000D2EC0DF0E552E5520DD01A0EDBCFE6FF0D
:1056E000190EDBCFE6FFABC1E6FFB0EC21F0E552CF
:1056F000E552E5528FD0010EDB50D00FE76E190E48
:10570000E7CFDBFF030EDB50D00FE76E1A0EE7CFBB
:10571000DBFF0101AB510BE11A0EDBCFE6FF190EE7
:10572000DBCFE6FF1EEC0DF0E552E5520DD01A0E70
:10573000DBCFE6FF190EDBCFE6FFABC1E6FFFFECE8
:1057400021F0E552E552E55265D0030EE66ED950E0
:10575000020FE66E000EDA20E66EFFDAE552E55241
:10576000E5521C0EF3CFDBFF1D0EF4CFDBFF030E63
:10577000E66ED950060FE66E000EDA20E66EEDDA20
:10578000E552E552E5521E0EF3CFDBFF1F0EF4CFBC
:10579000DBFF0101AB5113E11E0EDBCFE6FF1F0E55
:1057A000DBCFE6FF1C0EDBCFE6FF1D0EDBCFE6FFF7
:1057B0000EEC0AF0E552E552E552E55214D01E0E09
:1057C000DBCFE6FF1F0EDBCFE6FF1C0EDBCFE6FFD5
:1057D0001D0EDBCFE6FFABC1E6FF61EC21F0146EDE
:1057E000050EE15E145016D0070E01010D6F0E6B11
:1057F000D9CFE6FFDACFE6FF99EC37F0E552E55274
:1058000009D099D807D0FF0005D0150EE66EE1DD6E
:10581000E55200D0200EE15C02E2E16AE552E16E61
:10582000E552E7CFD9FF1200D9CFE6FFE1CFD9FF8C
:10583000E652000E146E780E156E166A14C0E6FF5E
:10584000E66E16C0E6FFF0DDE552E552E5520101D5
:10585000AB5111E1DF6A0A0EDF5C0DE2DF50EA6A4C
:10586000A00FE96E010EEA22EF50300FE66EB1DDB7
:10587000E552DF2AF0D7146A0101AB51145C18E23B
:10588000ABC1E6FF25EC23F0E552000911E0DF6A29
:105890000A0EDF5C0DE2DF50EA6AC00FE96E010E0E
:1058A000EA22EF50300FE66E94DDE552DF2AF0D7A2
:1058B000FB0E146E770E156E166A14C0E6FFE66EC8
:1058C00016C0E6FFB1DDE552E552E552300E0101AA
:1058D000AB25E66E7EDDE552F20E146E770E156E88
:1058E000166A14C0E6FFE66E16C0E6FF9DDDE552BF
:1058F000E552E552E90E146E770E156E166A14C065
:10590000E6FFE66E16C0E6FF8FDDE552E552E55292
:10591000E60E146E770E156E166A14C0E6FFE66E7C
:1059200016C0E6FF81DDE552E552E552E552E5524B
:10593000E7CFD9FF1200D9CFE6FFE1CFD9FF200E84
:10594000E126CAEC36F0E10E146E770E156E166A7B
:1059500014C0E6FFE66E16C0E6FF66DDE552E552CE
:10596000E552200EE66E35DDE552D80E146E770E48
:10597000156E166A14C0E6FFE66E16C0E6FF54DD2B
:10598000E552E552E552FCC1E6FFFDC1E6FFFAC172
:10599000E6FFFBC1E6FFF8C1E6FFF9C1E6FFC30E73
:1059A000146E770E156E166A14C0E6FFE66E16C00A
:1059B000E6FFD9CFE6FFDACFE6FFB9EC3AF0176E93
:1059C0000B0EE15E1750D9CFE6FFDACFE6FF0EDD12
:1059D000E552E552200EE15C02E2E16AE552E16E39
:1059E000E552E7CFD9FF1200D9CFE6FFE1CFD9FFCB
:1059F000160EE1260101AB5152E1020EDB6A0A0EDE
:105A0000F36E020EDBCFF4FFF350F45C37E2020ECC
:105A1000DB50EA6AA00FE96E010EEA22EF500FE1B7
:105A2000020EDBCFE6FF8AEC0DF0E552000903E140
:105A3000146A156A12D01468030E156E0ED0020E89
:105A4000EA6ADB34FE0BEA36E96E0F0EE926010E38
:105A5000EA22EECF14F0EFCF15F0020EEA6ADB3443
:105A6000FE0BEA36E96EAC0EE926010EEA2214C0FE
:105A7000EEFF15C0EDFF020EDB2AC1D7E66A02EC8D
:105A80000EF0E552E76E140EE7CFDBFF010EE66E77
:105A900002EC0EF0E552E76E150EE7CFDBFF146A5D
:105AA0000101AB51145C12E20A0EE66EABC1E6FFD7
:105AB00098EC23F0E552E552F350F41001E1D1D017
:105AC000140ECAC1DBFF150ECBC1DBFF020EDB6A71
:105AD0000A0EF36E020EDBCFF4FFF350F45C34E2F7
:105AE000020EEA6ADB34FE0BEA36E96EAC0EE926FA
:105AF000010EEA22EECFE6FFEFCFE6FF020EDB2833
:105B0000E66EE66AB80E146E770E156E166A14C04D
:105B1000E6FFE66E16C0E6FFD950030FE66E000EF4
:105B2000DA20E66EB9EC3AF0176E090EE15E175016
:105B3000D950030FE66E000EDA20E66E57DCE55210
:105B4000E552020EDB2AC4D7020EDB6AD950030FDE
:105B5000146E020EDBCFF3FFDB2AF3500F01142487
:105B6000E96E000EDA20EA6E4C0EEF6ED950030F8C
:105B7000146E020EDBCFF3FFDB2AF3501424E96E20
:105B8000000EDA20EA6E450EEF6ED950030F146E48
:105B9000020EDBCFF3FFDB2AF3501424E96E000E74
:105BA000DA20EA6E440EEF6ED950030F146E020E27
:105BB000DBCFF3FFDB2AF3501424E96E000EDA206A
:105BC000EA6E3D0EEF6E140EDB50300FE66ED950CC
:105BD000030F146E020EDBCFF3FFDB2AF350142405
:105BE000E96E000EDA20EA6EE552E750EF6E150E10
:105BF000DB50300FE66ED950030F146E020EDBCF70
:105C0000F3FFDB2AF3501424E96E000EDA20EA6E6B
:105C1000E552E750EF6ED950030F146EDACF15F04E
:105C2000020EDB501424E96E000EDA20EA6EEF6AF1
:105C3000D950030FE66E000EDA20E66EF6EC29F07E
:105C4000E552E552E60E146E770E156E166A14C014
:105C5000E6FFE66E16C0E6FF14EC2AF0E552E552C8
:105C6000E552160EE15C02E2E16AE552E16EE552B0
:105C7000E7CFD9FF1200D9CFE6FFE1CFD9FF070E5A
:105C8000E126030EE66E1FEC28F0E552440EE66EA8
:105C9000E9EC29F0E5523A0EE66EE9EC29F0E5521E
:105CA000060EDB6A030EF36E060EDBCFF4FFF35035
:105CB000F45C3AE2060EEA6ADB34FE0BEA36E96E81
:105CC000BF0EE926000EEA22EECFE6FFEFCFE6FF99
:105CD000B30E146E770E156E166A14C0E6FFE66EEC
:105CE00016C0E6FFD9CFE6FFDACFE6FFB9EC3AF00F
:105CF000176E070EE15E1750D9CFE6FFDACFE6FF49
:105D0000F6EC29F0E552E552020EF36E060EDBCFFB
:105D1000F4FFF350F45C05E22C0EE66EE9EC29F09A
:105D2000E552060EDB2ABED7E60E146E770E156E10
:105D3000166A14C0E6FFE66E16C0E6FF14EC2AF001
:105D4000E552E552E552070EE15C02E2E16AE552F6
:105D5000E16EE552E7CFD9FF1200D9CFE6FFE1CFE0
:105D6000D9FF060EE126010EF36E040EF3CFDBFF22
:105D7000050EDB6A020EDB6A030EDB6ADF6AFC0ECD
:105D8000DB50DF5C43E2FD0EDBCFE9FFDB2AFE0EDA
:105D9000DBCFEAFF01E3DB2A010EEFCFDBFFDB50B5
:105DA00035E0010EDB502D0805E1040EDB68050E21
:105DB000DB682AD0300EF36E010EDBCFF4FFF35018
:105DC000F45C22E3390E146E010EDB50145C1CE30C
:105DD000D950020FE96EDACFEAFF0A0EEC02F3CFD8
:105DE000EDFFEF02F3CFEEFFF450ED26010EDB5096
:105DF000D00F146E156AD950020FE96EDACFEAFFA0
:105E00001450EE261550ED22DF2AB9D7040EDBCF51
:105E100014F0050EDBCF15F0D950020FE96EDACF82
:105E2000EAFF14C00DF015C00EF0EECF08F0EDCF74
:105E300009F0AFEC39F006C0EEFF07C0EDFF020E2F
:105E4000DBCF14F0030EDBCF15F014C0F3FF15C049
:105E5000F4FF060EE15C02E2E16AE552E16EE55212
:105E6000E7CFD9FF1200D9CFE6FFE1CFD9FF060E69
:105E7000E126DE6ADE6ADE6ADD6ADD52DD52040E8C
:105E8000DB6AFC0EDB50F36E040EDBCFF4FFF35045
:105E9000F45C57E2FD0EDBCFE9FFDB2AFE0EDBCF21
:105EA000EAFF01E3DB2A050EEFCFDBFF300EF36ED6
:105EB000050EDBCFF4FFF350F45C43E3390E146EB0
:105EC000050EDB50145C3DE3300E146E050EDBCF87
:105ED000E7FF1450E75E050EE7CFDBFFD9CFE9FF00
:105EE000DACFEAFF0A0E0B6E0C6A0D6A0E6AEECF6D
:105EF00006F0EECF07F0EECF08F0EFCF09F0A0EC00
:105F00003BF005C0EDFF04C0EDFF03C0EDFF02C094
:105F1000EFFF050EDBCF14F0156A166A176A14AE90
:105F200003D01568166817681450DE261550DE2257
:105F30001650DE221750DD22DD52DD52040EDB2A20
:105F4000A0D7DECF06F0DECF07F0DECF08F0DDCF42
:105F500009F0DD52DD52060EE15C02E2E16AE55233
:105F6000E16EE552E7CFD9FF1200D9CFE6FFE1CFCE
:105F7000D9FF040EE126DE6ADD6A020EDB6AFC0E42
:105F8000DB50F36E020EDBCFF4FFF350F45C4FE214
:105F9000FD0EDBCFE9FFDB2AFE0EDBCFEAFF01E3DC
:105FA000DB2A030EEFCFDBFF300E146E030EDB5047
:105FB000D880145408E3030EDB50390804E3030EC1
:105FC000DB50D00F1ED0410E146E030EDB50D88074
:105FD000145408E3030EDB50460804E3030EDB50C1
:105FE000BF0F0ED0610E146E030EDB50D880145418
:105FF0001EE3030EDB5066081AE3030EDB509F0F0F
:106000000A0FE76E030EE7CFDBFFD9CFE9FFDACF48
:10601000EAFF040ED890EE36ED36E806FBE1030EFB
:10602000DB50DE26000EDD22020EDB2AA8D7DECFF3
:1060300014F0DDCF15F014C0F3FF15C0F4FF040E0B
:10604000E15C02E2E16AE552E16EE552E7CFD9FF99
:106050001200D9CFE6FFE1CFD9FF300EF36EFE0E6E
:10606000DBCFF4FFF350F45C08E3390E146EFE0E40
:10607000DB50145C02E3000E01D0010E000902E0C7
:0E608000000E01D0010EE552E7CFD9FF12004D
:02608E0083ECA1
:1060900035F0FB0EDBCFF3FFDB06F35000090AE01F
:1060A000D1EC35F0FA0E3CEC36F0F3E1151CF1E1E1
:1060B000010E01D0000EB2EF35F083EC35F03B0E4F
:1060C000E12402E3E168E652E16E010EDB6A020EB2
:1060D000DB6AF90EDBCFF6FFFA0EDBCFF7FFFB0E24
:1060E000DBCFF8FF0800F550DF6EDF5002E1D6EF9E
:1060F00034F0250EDF5C02E0C9EF34F0030EDB6AFA
:10610000040EDB6A050EDB6A060EDB6A070EDB6A2D
:10611000EBEC34F02D0EDF5C0CE02B0EDF5C09E0C5
:10612000200EDF5C06E0230EDF5C03E0300EDF5C58
:106130001AE1DF50300A14E0130A0FE0030A0AE004
:106140000B0A05E0060AE4E1030EDB80E1D7030E4B
:10615000DB82DED7030EDB84DBD7030EDB86D8D7EA
:10616000030EDB88D5D72A0EDF5C1BE1E7EC34F0A9
:1061700035EC35F010E0030EDB8008680968130E7B
:10618000DBCF0DF0140EDBCF0EF082EC39F0040EF5
:1061900006C0DBFF03D0130E1EEC35F0EBEC34F041
:1061A0000BD0090EDB6A8CEC35F003E000EC36F026
:1061B000FAD7090E1EEC35F0030EDBB0DB982E0E7D
:1061C000DF5C1BE1EBEC34F02A0EDF5C0BE1E7EC6B
:1061D00034F035EC35F003E1130E70EC35F0EBECF8
:1061E00034F00BD0090EDB6A8CEC35F003E000ECE8
:1061F00036F0FAD7090E70EC35F0680EDF5C07E177
:10620000EBEC34F0680EDF5C1DE1030E18D0740E69
:10621000DF5C17E07A0EDF5C14E0480EDF5C06E01E
:10622000540EDF5C03E05A0EDF5C02E1020E07D081
:106230006C0EDF5C03E06A0EDF5C04E1010EC3EC70
:1062400035F0C9DBDF506E0A01E17FD31E0A01E1A0
:1062500092D1200A01E18FD13F0A01E149D11A0A06
:1062600001E146D10D0A01E143D1200A01E140D10B
:106270003A0A01E13DD1200A01E13AD1260A01E1C1
:1062800035D10D0A01E132D11A0A01E1D9D0200A33
:106290004AE0300A1FE0460A0EE0250A01E083D3F7
:1062A000D950F90FE96EFF0EDA20EA6E010EEE5EAC
:1062B000000EEE5AEE5AD1EC35F0250EE66E95DB67
:1062C00003E1151C01E169D3CDEC35F001E26BD39C
